{
  "_format": "hh-sol-artifact-1",
  "contractName": "MarketplaceV2",
  "sourceName": "contracts/Marketplace.sol",
  "abi": [
    {
      "anonymous": false,
      "inputs": [
        {
          "indexed": false,
          "internalType": "address",
          "name": "previousAdmin",
          "type": "address"
        },
        {
          "indexed": false,
          "internalType": "address",
          "name": "newAdmin",
          "type": "address"
        }
      ],
      "name": "AdminChanged",
      "type": "event"
    },
    {
      "anonymous": false,
      "inputs": [
        {
          "indexed": true,
          "internalType": "address",
          "name": "beacon",
          "type": "address"
        }
      ],
      "name": "BeaconUpgraded",
      "type": "event"
    },
    {
      "anonymous": false,
      "inputs": [
        {
          "indexed": true,
          "internalType": "uint256",
          "name": "itemId",
          "type": "uint256"
        }
      ],
      "name": "MarketItemCancelled",
      "type": "event"
    },
    {
      "anonymous": false,
      "inputs": [
        {
          "indexed": true,
          "internalType": "uint256",
          "name": "itemId",
          "type": "uint256"
        },
        {
          "indexed": true,
          "internalType": "address",
          "name": "nftContract",
          "type": "address"
        },
        {
          "indexed": true,
          "internalType": "uint256",
          "name": "tokenId",
          "type": "uint256"
        },
        {
          "indexed": false,
          "internalType": "address",
          "name": "seller",
          "type": "address"
        },
        {
          "indexed": false,
          "internalType": "uint256",
          "name": "price",
          "type": "uint256"
        }
      ],
      "name": "MarketItemCreated",
      "type": "event"
    },
    {
      "anonymous": false,
      "inputs": [
        {
          "indexed": true,
          "internalType": "uint256",
          "name": "itemId",
          "type": "uint256"
        }
      ],
      "name": "MarketItemSold",
      "type": "event"
    },
    {
      "anonymous": false,
      "inputs": [
        {
          "indexed": true,
          "internalType": "address",
          "name": "previousOwner",
          "type": "address"
        },
        {
          "indexed": true,
          "internalType": "address",
          "name": "newOwner",
          "type": "address"
        }
      ],
      "name": "OwnershipTransferred",
      "type": "event"
    },
    {
      "anonymous": false,
      "inputs": [
        {
          "indexed": true,
          "internalType": "address",
          "name": "implementation",
          "type": "address"
        }
      ],
      "name": "Upgraded",
      "type": "event"
    },
    {
      "inputs": [
        {
          "internalType": "uint256",
          "name": "itemId",
          "type": "uint256"
        }
      ],
      "name": "cancelMarketSale",
      "outputs": [],
      "stateMutability": "nonpayable",
      "type": "function"
    },
    {
      "inputs": [
        {
          "internalType": "address",
          "name": "nftContractAddress",
          "type": "address"
        },
        {
          "internalType": "uint256",
          "name": "tokenId",
          "type": "uint256"
        },
        {
          "internalType": "uint256",
          "name": "price",
          "type": "uint256"
        }
      ],
      "name": "createMarketItem",
      "outputs": [],
      "stateMutability": "payable",
      "type": "function"
    },
    {
      "inputs": [
        {
          "internalType": "uint256",
          "name": "itemId",
          "type": "uint256"
        }
      ],
      "name": "createMarketSale",
      "outputs": [],
      "stateMutability": "payable",
      "type": "function"
    },
    {
      "inputs": [
        {
          "internalType": "address",
          "name": "nftContractAddress",
          "type": "address"
        },
        {
          "internalType": "uint256",
          "name": "tokenId",
          "type": "uint256"
        }
      ],
      "name": "fetchMarketItem",
      "outputs": [
        {
          "components": [
            {
              "internalType": "uint256",
              "name": "itemId",
              "type": "uint256"
            },
            {
              "internalType": "address",
              "name": "nftContract",
              "type": "address"
            },
            {
              "internalType": "uint256",
              "name": "tokenId",
              "type": "uint256"
            },
            {
              "internalType": "address payable",
              "name": "seller",
              "type": "address"
            },
            {
              "internalType": "address payable",
              "name": "owner",
              "type": "address"
            },
            {
              "internalType": "uint256",
              "name": "price",
              "type": "uint256"
            },
            {
              "internalType": "bool",
              "name": "cancelled",
              "type": "bool"
            }
          ],
          "internalType": "struct Marketplace.MarketItem",
          "name": "",
          "type": "tuple"
        }
      ],
      "stateMutability": "view",
      "type": "function"
    },
    {
      "inputs": [],
      "name": "fetchMarketItems",
      "outputs": [
        {
          "components": [
            {
              "internalType": "uint256",
              "name": "itemId",
              "type": "uint256"
            },
            {
              "internalType": "address",
              "name": "nftContract",
              "type": "address"
            },
            {
              "internalType": "uint256",
              "name": "tokenId",
              "type": "uint256"
            },
            {
              "internalType": "address payable",
              "name": "seller",
              "type": "address"
            },
            {
              "internalType": "address payable",
              "name": "owner",
              "type": "address"
            },
            {
              "internalType": "uint256",
              "name": "price",
              "type": "uint256"
            },
            {
              "internalType": "bool",
              "name": "cancelled",
              "type": "bool"
            }
          ],
          "internalType": "struct Marketplace.MarketItem[]",
          "name": "",
          "type": "tuple[]"
        }
      ],
      "stateMutability": "view",
      "type": "function"
    },
    {
      "inputs": [],
      "name": "fetchMyNFTs",
      "outputs": [
        {
          "components": [
            {
              "internalType": "uint256",
              "name": "itemId",
              "type": "uint256"
            },
            {
              "internalType": "address",
              "name": "nftContract",
              "type": "address"
            },
            {
              "internalType": "uint256",
              "name": "tokenId",
              "type": "uint256"
            },
            {
              "internalType": "address payable",
              "name": "seller",
              "type": "address"
            },
            {
              "internalType": "address payable",
              "name": "owner",
              "type": "address"
            },
            {
              "internalType": "uint256",
              "name": "price",
              "type": "uint256"
            },
            {
              "internalType": "bool",
              "name": "cancelled",
              "type": "bool"
            }
          ],
          "internalType": "struct Marketplace.MarketItem[]",
          "name": "",
          "type": "tuple[]"
        }
      ],
      "stateMutability": "view",
      "type": "function"
    },
    {
      "inputs": [],
      "name": "getListingPrice",
      "outputs": [
        {
          "internalType": "uint256",
          "name": "",
          "type": "uint256"
        }
      ],
      "stateMutability": "view",
      "type": "function"
    },
    {
      "inputs": [
        {
          "internalType": "uint256",
          "name": "marketItemId",
          "type": "uint256"
        }
      ],
      "name": "getMarketItem",
      "outputs": [
        {
          "components": [
            {
              "internalType": "uint256",
              "name": "itemId",
              "type": "uint256"
            },
            {
              "internalType": "address",
              "name": "nftContract",
              "type": "address"
            },
            {
              "internalType": "uint256",
              "name": "tokenId",
              "type": "uint256"
            },
            {
              "internalType": "address payable",
              "name": "seller",
              "type": "address"
            },
            {
              "internalType": "address payable",
              "name": "owner",
              "type": "address"
            },
            {
              "internalType": "uint256",
              "name": "price",
              "type": "uint256"
            },
            {
              "internalType": "bool",
              "name": "cancelled",
              "type": "bool"
            }
          ],
          "internalType": "struct Marketplace.MarketItem",
          "name": "",
          "type": "tuple"
        }
      ],
      "stateMutability": "view",
      "type": "function"
    },
    {
      "inputs": [],
      "name": "initialize",
      "outputs": [],
      "stateMutability": "nonpayable",
      "type": "function"
    },
    {
      "inputs": [],
      "name": "owner",
      "outputs": [
        {
          "internalType": "address",
          "name": "",
          "type": "address"
        }
      ],
      "stateMutability": "view",
      "type": "function"
    },
    {
      "inputs": [],
      "name": "renounceOwnership",
      "outputs": [],
      "stateMutability": "nonpayable",
      "type": "function"
    },
    {
      "inputs": [
        {
          "internalType": "uint256",
          "name": "_listingPrice",
          "type": "uint256"
        }
      ],
      "name": "setListingPrice",
      "outputs": [],
      "stateMutability": "nonpayable",
      "type": "function"
    },
    {
      "inputs": [
        {
          "internalType": "address",
          "name": "newOwner",
          "type": "address"
        }
      ],
      "name": "transferOwnership",
      "outputs": [],
      "stateMutability": "nonpayable",
      "type": "function"
    },
    {
      "inputs": [
        {
          "internalType": "address",
          "name": "newImplementation",
          "type": "address"
        }
      ],
      "name": "upgradeTo",
      "outputs": [],
      "stateMutability": "nonpayable",
      "type": "function"
    },
    {
      "inputs": [
        {
          "internalType": "address",
          "name": "newImplementation",
          "type": "address"
        },
        {
          "internalType": "bytes",
          "name": "data",
          "type": "bytes"
        }
      ],
      "name": "upgradeToAndCall",
      "outputs": [],
      "stateMutability": "payable",
      "type": "function"
    },
    {
      "inputs": [],
      "name": "version",
      "outputs": [
        {
          "internalType": "string",
          "name": "",
          "type": "string"
        }
      ],
      "stateMutability": "pure",
      "type": "function"
    }
  ],
  "bytecode": "0x608060405234801561001057600080fd5b50611ed6806100206000396000f3fe6080604052600436106100f35760003560e01c8063715018a61161008a578063be9af53611610059578063be9af5361461026f578063c7be7a4914610282578063cfd825a2146102a2578063f2fde38b146102c2576100f3565b8063715018a6146101fd5780637c726b69146102125780638129fc1c146102325780638da5cb5b14610247576100f3565b80633659cfe6116100c65780633659cfe6146101835780634f1ef286146101a557806354fd4d50146101b857806358eb2df5146101ea576100f3565b80630f08efe0146100f857806312e8558514610123578063202e3740146101415780632e41f5fa14610156575b600080fd5b34801561010457600080fd5b5061010d6102e2565b60405161011a9190611cac565b60405180910390f35b34801561012f57600080fd5b5060fe5460405190815260200161011a565b34801561014d57600080fd5b5061010d6105a6565b34801561016257600080fd5b50610176610171366004611bc3565b61079f565b60405161011a9190611db0565b34801561018f57600080fd5b506101a361019e366004611acc565b610a4b565b005b6101a36101b3366004611b04565b610a72565b3480156101c457600080fd5b50604080518082018252600381526276322160e81b6020820152905161011a9190611cfa565b6101a36101f8366004611bee565b610a8b565b34801561020957600080fd5b506101a3610e7c565b34801561021e57600080fd5b506101a361022d366004611c22565b60fe55565b34801561023e57600080fd5b506101a3610eb2565b34801561025357600080fd5b506033546040516001600160a01b03909116815260200161011a565b6101a361027d366004611c22565b610f4d565b34801561028e57600080fd5b5061017661029d366004611c22565b6111a9565b3480156102ae57600080fd5b506101a36102bd366004611c22565b611225565b3480156102ce57600080fd5b506101a36102dd366004611acc565b611364565b606060006102ef60fb5490565b905060006102fc60fc5490565b60fb546103099190611dd6565b90506000808267ffffffffffffffff81111561033557634e487b7160e01b600052604160045260246000fd5b60405190808252806020026020018201604052801561036e57816020015b61035b611a90565b8152602001906001900390816103535790505b50905060005b8481101561059d57600060ff8161038c846001611dbe565b8152602081019190915260400160009081206001908101546001600160a01b031692508290636352211e9060ff9084906103c7908890611dbe565b8152602001908152602001600020600201546040518263ffffffff1660e01b81526004016103f791815260200190565b60206040518083038186803b15801561040f57600080fd5b505afa158015610423573d6000803e3d6000fd5b505050506040513d601f19601f820116820180604052508101906104479190611ae8565b9050600060ff81610459866001611dbe565b81526020810191909152604001600020600401546001600160a01b03161480156104b0575060ff600061048d856001611dbe565b81526020810191909152604001600020600301546001600160a01b038281169116145b1561058857600060ff816104c5866001611dbe565b8152602080820192909252604090810160009081205480825260ff80855291839020835160e0810185528154815260018201546001600160a01b039081169682019690965260028201549481019490945260038101548516606085015260048101549094166080840152600584015460a08401526006840154909116151560c0830152875190935087908990811061056d57634e487b7160e01b600052603260045260246000fd5b6020908102919091010152610583600188611dbe565b965050505b5050808061059590611e1d565b915050610374565b50935050505090565b606060006105b360fb5490565b905060008060005b83811015610616573360ff60006105d3846001611dbe565b81526020810191909152604001600020600401546001600160a01b0316141561060457610601600184611dbe565b92505b8061060e81611e1d565b9150506105bb565b5060008267ffffffffffffffff81111561064057634e487b7160e01b600052604160045260246000fd5b60405190808252806020026020018201604052801561067957816020015b610666611a90565b81526020019060019003908161065e5790505b50905060005b8481101561059d573360ff6000610697846001611dbe565b81526020810191909152604001600020600401546001600160a01b0316141561078d57600060ff816106ca846001611dbe565b8152602080820192909252604090810160009081205480825260ff80855291839020835160e0810185528154815260018201546001600160a01b039081169682019690965260028201549481019490945260038101548516606085015260048101549094166080840152600584015460a08401526006840154909116151560c0830152855190935085908790811061077257634e487b7160e01b600052603260045260246000fd5b6020908102919091010152610788600186611dbe565b945050505b8061079781611e1d565b91505061067f565b6107a7611a90565b60006107b260fb5490565b90506107bc611a90565b60005b82811015610a40576001600160a01b03861660ff60006107e0846001611dbe565b81526020810191909152604001600020600101546001600160a01b031614801561082957508460ff6000610815846001611dbe565b815260200190815260200160002060020154145b801561085f5750600060ff81610840846001611dbe565b81526020810191909152604001600020600401546001600160a01b0316145b15610a2e57600060ff81610874846001611dbe565b8152602081019190915260400160009081206001908101546001600160a01b031692508290636352211e9060ff9084906108af908890611dbe565b8152602001908152602001600020600201546040518263ffffffff1660e01b81526004016108df91815260200190565b60206040518083038186803b1580156108f757600080fd5b505afa15801561090b573d6000803e3d6000fd5b505050506040513d601f19601f8201168201806040525081019061092f9190611ae8565b9050600060ff81610941866001611dbe565b81526020810191909152604001600020600401546001600160a01b0316148015610998575060ff6000610975856001611dbe565b81526020810191909152604001600020600301546001600160a01b038281169116145b15610a2b5760ff60006109ac856001611dbe565b81526020808201929092526040908101600020815160e0810183528154815260018201546001600160a01b039081169482019490945260028201549281019290925260038101548316606083015260048101549092166080820152600582015460a082015260069091015460ff16151560c08201529350610a40915050565b50505b80610a3881611e1d565b9150506107bf565b509150505b92915050565b610a54816113fc565b610a6f81604051806020016040528060008152506000611426565b50565b610a7b826113fc565b610a8782826001611426565b5050565b600260c9541415610ae35760405162461bcd60e51b815260206004820152601f60248201527f5265656e7472616e637947756172643a207265656e7472616e742063616c6c0060448201526064015b60405180910390fd5b600260c9556040516331a9108f60e11b81526004810183905283906000906001600160a01b03831690636352211e9060240160206040518083038186803b158015610b2d57600080fd5b505afa158015610b41573d6000803e3d6000fd5b505050506040513d601f19601f82011682018060405250810190610b659190611ae8565b90506001600160a01b0381163314610bca5760405162461bcd60e51b815260206004820152602260248201527f596f75206d75737420626520746865206f776e6572206f662074686520746f6b60448201526132b760f11b6064820152608401610ada565b60008311610c1a5760405162461bcd60e51b815260206004820152601c60248201527f5072696365206d757374206265206174206c65617374203120776569000000006044820152606401610ada565b60fe543414610c775760405162461bcd60e51b8152602060048201526024808201527f56616c7565206d75737420626520657175616c20746f206c697374696e6720706044820152637269636560e01b6064820152608401610ada565b610c8185856115ae565b15610cce5760405162461bcd60e51b815260206004820152601a60248201527f4d61726b6574206974656d20616c7265616479206578697374730000000000006044820152606401610ada565b610cdc60fb80546001019055565b6000610ce760fb5490565b90506040518060e00160405280828152602001876001600160a01b03168152602001868152602001336001600160a01b0316815260200160006001600160a01b031681526020018581526020016000151581525060ff60008381526020019081526020016000206000820151816000015560208201518160010160006101000a8154816001600160a01b0302191690836001600160a01b031602179055506040820151816002015560608201518160030160006101000a8154816001600160a01b0302191690836001600160a01b0316021790555060808201518160040160006101000a8154816001600160a01b0302191690836001600160a01b0316021790555060a0820151816005015560c08201518160060160006101000a81548160ff02191690831515021790555090505084866001600160a01b0316827f6c768f237d15b0eedb46b2f49918dc5109839c2d232c382d377c40fabeeec92d3388604051610e679291906001600160a01b03929092168252602082015260400190565b60405180910390a45050600160c95550505050565b6033546001600160a01b03163314610ea65760405162461bcd60e51b8152600401610ada90611d7b565b610eb0600061165e565b565b600054610100900460ff1680610ecb575060005460ff16155b610ee75760405162461bcd60e51b8152600401610ada90611d2d565b600054610100900460ff16158015610f12576000805460ff1961ff0019909116610100171660011790555b610f1a6116b0565b610f22611734565b60fd80546001600160a01b03191633179055600060fe558015610a6f576000805461ff001916905550565b600260c9541415610fa05760405162461bcd60e51b815260206004820152601f60248201527f5265656e7472616e637947756172643a207265656e7472616e742063616c6c006044820152606401610ada565b600260c9819055600082815260ff602052604090206005810154910154348214611034576040805162461bcd60e51b81526020600482015260248101919091527f506c65617365207375626d6974207468652061736b696e67207072696365206960448201527f6e206f7264657220746f20636f6d706c657465207468652070757263686173656064820152608401610ada565b600083815260ff60205260408082206003015490516001600160a01b03909116913480156108fc02929091818181858888f1935050505015801561107c573d6000803e3d6000fd5b50600083815260ff602052604090819020600181015460039091015491516323b872dd60e01b81526001600160a01b039283166004820152336024820152604481018490529116906323b872dd90606401600060405180830381600087803b1580156110e757600080fd5b505af11580156110fb573d6000803e3d6000fd5b505050600084815260ff6020526040902060040180546001600160a01b031916331790555061112e60fc80546001019055565b60fe54156111745760fd5460fe546040516001600160a01b039092169181156108fc0291906000818181858888f19350505050158015611172573d6000803e3d6000fd5b505b60405183907f5edde87e7efe9511fd280717315e9a4c5f46a6a84becfc74084b59e48154084490600090a25050600160c95550565b6111b1611a90565b50600090815260ff6020818152604092839020835160e0810185528154815260018201546001600160a01b039081169382019390935260028201549481019490945260038101548216606085015260048101549091166080840152600581015460a08401526006015416151560c082015290565b600081815260ff6020526040808220600181015460029091015491516331a9108f60e11b815260048101929092526001600160a01b031691908290636352211e9060240160206040518083038186803b15801561128157600080fd5b505afa158015611295573d6000803e3d6000fd5b505050506040513d601f19601f820116820180604052508101906112b99190611ae8565b90506001600160a01b038116331461131f5760405162461bcd60e51b8152602060048201526024808201527f596f7520617265206e6f7420746865206f776e6572206f66207468697320746f60448201526335b2b71760e11b6064820152608401610ada565b600083815260ff6020526040808220600601805460ff191690555184917fb44d5981f3bd81a0185dad0967e03df817142f923e4b93a322e68f34ec23cba991a2505050565b6033546001600160a01b0316331461138e5760405162461bcd60e51b8152600401610ada90611d7b565b6001600160a01b0381166113f35760405162461bcd60e51b815260206004820152602660248201527f4f776e61626c653a206e6577206f776e657220697320746865207a65726f206160448201526564647265737360d01b6064820152608401610ada565b610a6f8161165e565b6033546001600160a01b03163314610a6f5760405162461bcd60e51b8152600401610ada90611d7b565b60006114597f360894a13ba1a3210667c828492db98dca3e2076cc3735a920a3ca505d382bbc546001600160a01b031690565b9050611464846117a4565b6000835111806114715750815b15611482576114808484611849565b505b7f4910fdfa16fed3260ed0e7147f7cc6da11a60208b5b9406d12a635614ffd9143805460ff166115a757805460ff191660011781556040516001600160a01b038316602482015261150190869060440160408051601f198184030181529190526020810180516001600160e01b0316631b2ce7f360e11b179052611849565b50805460ff191681557f360894a13ba1a3210667c828492db98dca3e2076cc3735a920a3ca505d382bbc546001600160a01b0383811691161461159e5760405162461bcd60e51b815260206004820152602f60248201527f45524331393637557067726164653a207570677261646520627265616b73206660448201526e75727468657220757067726164657360881b6064820152608401610ada565b6115a785611934565b5050505050565b6000806115b96102e2565b90506000805b8251811015610a4057856001600160a01b03168382815181106115f257634e487b7160e01b600052603260045260246000fd5b6020026020010151602001516001600160a01b031614801561163e57508483828151811061163057634e487b7160e01b600052603260045260246000fd5b602002602001015160400151145b1561164c5760019150610a40565b8061165681611e1d565b9150506115bf565b603380546001600160a01b038381166001600160a01b0319831681179093556040519116919082907f8be0079c531659141344cd1fd0a4f28419497f9722a3daafe3b4186f6b6457e090600090a35050565b600054610100900460ff16806116c9575060005460ff16155b6116e55760405162461bcd60e51b8152600401610ada90611d2d565b600054610100900460ff16158015611710576000805460ff1961ff0019909116610100171660011790555b611718611974565b6117206119e7565b8015610a6f576000805461ff001916905550565b600054610100900460ff168061174d575060005460ff16155b6117695760405162461bcd60e51b8152600401610ada90611d2d565b600054610100900460ff16158015611794576000805460ff1961ff0019909116610100171660011790555b61179c611974565b611720611974565b803b6118085760405162461bcd60e51b815260206004820152602d60248201527f455243313936373a206e657720696d706c656d656e746174696f6e206973206e60448201526c1bdd08184818dbdb9d1c9858dd609a1b6064820152608401610ada565b7f360894a13ba1a3210667c828492db98dca3e2076cc3735a920a3ca505d382bbc80546001600160a01b0319166001600160a01b0392909216919091179055565b6060823b6118a85760405162461bcd60e51b815260206004820152602660248201527f416464726573733a2064656c65676174652063616c6c20746f206e6f6e2d636f6044820152651b9d1c9858dd60d21b6064820152608401610ada565b600080846001600160a01b0316846040516118c39190611c90565b600060405180830381855af49150503d80600081146118fe576040519150601f19603f3d011682016040523d82523d6000602084013e611903565b606091505b509150915061192b8282604051806060016040528060278152602001611e7a60279139611a50565b95945050505050565b61193d816117a4565b6040516001600160a01b038216907fbc7cd75a20ee27fd9adebab32041f755214dbc6bffa90cc0225b39da2e5c2d3b90600090a250565b600054610100900460ff168061198d575060005460ff16155b6119a95760405162461bcd60e51b8152600401610ada90611d2d565b600054610100900460ff16158015611720576000805460ff1961ff0019909116610100171660011790558015610a6f576000805461ff001916905550565b600054610100900460ff1680611a00575060005460ff16155b611a1c5760405162461bcd60e51b8152600401610ada90611d2d565b600054610100900460ff16158015611a47576000805460ff1961ff0019909116610100171660011790555b6117203361165e565b60608315611a5f575081611a89565b825115611a6f5782518084602001fd5b8160405162461bcd60e51b8152600401610ada9190611cfa565b9392505050565b6040805160e081018252600080825260208201819052918101829052606081018290526080810182905260a0810182905260c081019190915290565b600060208284031215611add578081fd5b8135611a8981611e64565b600060208284031215611af9578081fd5b8151611a8981611e64565b60008060408385031215611b16578081fd5b8235611b2181611e64565b9150602083013567ffffffffffffffff80821115611b3d578283fd5b818501915085601f830112611b50578283fd5b813581811115611b6257611b62611e4e565b604051601f8201601f19908116603f01168101908382118183101715611b8a57611b8a611e4e565b81604052828152886020848701011115611ba2578586fd5b82602086016020830137856020848301015280955050505050509250929050565b60008060408385031215611bd5578182fd5b8235611be081611e64565b946020939093013593505050565b600080600060608486031215611c02578081fd5b8335611c0d81611e64565b95602085013595506040909401359392505050565b600060208284031215611c33578081fd5b5035919050565b80518252602081015160018060a01b03808216602085015260408301516040850152806060840151166060850152806080840151166080850152505060a081015160a083015260c0810151151560c08301525050565b60008251611ca2818460208701611ded565b9190910192915050565b6020808252825182820181905260009190848201906040850190845b81811015611cee57611cdb838551611c3a565b9284019260e09290920191600101611cc8565b50909695505050505050565b6000602082528251806020840152611d19816040850160208701611ded565b601f01601f19169190910160400192915050565b6020808252602e908201527f496e697469616c697a61626c653a20636f6e747261637420697320616c72656160408201526d191e481a5b9a5d1a585b1a5e995960921b606082015260800190565b6020808252818101527f4f776e61626c653a2063616c6c6572206973206e6f7420746865206f776e6572604082015260600190565b60e08101610a458284611c3a565b60008219821115611dd157611dd1611e38565b500190565b600082821015611de857611de8611e38565b500390565b60005b83811015611e08578181015183820152602001611df0565b83811115611e17576000848401525b50505050565b6000600019821415611e3157611e31611e38565b5060010190565b634e487b7160e01b600052601160045260246000fd5b634e487b7160e01b600052604160045260246000fd5b6001600160a01b0381168114610a6f57600080fdfe416464726573733a206c6f772d6c6576656c2064656c65676174652063616c6c206661696c6564a2646970667358221220cd53aacc0a1a5c4d519b306907b3bbce7a7e7c9aaf19d8494ba4e065af1d94e564736f6c63430008020033",
  "linkReferences": {},
  "deployedLinkReferences": {}
}