{
  "_format": "hh-sol-artifact-1",
  "contractName": "Marketplace",
  "sourceName": "contracts/Marketplace.sol",
  "abi": [
    {
      "anonymous": false,
      "inputs": [
        {
          "indexed": false,
          "internalType": "address",
          "name": "previousAdmin",
          "type": "address"
        },
        {
          "indexed": false,
          "internalType": "address",
          "name": "newAdmin",
          "type": "address"
        }
      ],
      "name": "AdminChanged",
      "type": "event"
    },
    {
      "anonymous": false,
      "inputs": [
        {
          "indexed": true,
          "internalType": "address",
          "name": "beacon",
          "type": "address"
        }
      ],
      "name": "BeaconUpgraded",
      "type": "event"
    },
    {
      "anonymous": false,
      "inputs": [
        {
          "indexed": true,
          "internalType": "uint256",
          "name": "itemId",
          "type": "uint256"
        }
      ],
      "name": "MarketItemCancelled",
      "type": "event"
    },
    {
      "anonymous": false,
      "inputs": [
        {
          "indexed": true,
          "internalType": "uint256",
          "name": "itemId",
          "type": "uint256"
        },
        {
          "indexed": true,
          "internalType": "address",
          "name": "nftContract",
          "type": "address"
        },
        {
          "indexed": true,
          "internalType": "uint256",
          "name": "tokenId",
          "type": "uint256"
        },
        {
          "indexed": false,
          "internalType": "address",
          "name": "seller",
          "type": "address"
        },
        {
          "indexed": false,
          "internalType": "uint256",
          "name": "price",
          "type": "uint256"
        },
        {
          "indexed": false,
          "internalType": "uint256",
          "name": "listingPrice",
          "type": "uint256"
        }
      ],
      "name": "MarketItemCreated",
      "type": "event"
    },
    {
      "anonymous": false,
      "inputs": [
        {
          "indexed": true,
          "internalType": "uint256",
          "name": "itemId",
          "type": "uint256"
        }
      ],
      "name": "MarketItemSold",
      "type": "event"
    },
    {
      "anonymous": false,
      "inputs": [
        {
          "indexed": true,
          "internalType": "address",
          "name": "previousOwner",
          "type": "address"
        },
        {
          "indexed": true,
          "internalType": "address",
          "name": "newOwner",
          "type": "address"
        }
      ],
      "name": "OwnershipTransferred",
      "type": "event"
    },
    {
      "anonymous": false,
      "inputs": [
        {
          "indexed": true,
          "internalType": "address",
          "name": "implementation",
          "type": "address"
        }
      ],
      "name": "Upgraded",
      "type": "event"
    },
    {
      "inputs": [
        {
          "internalType": "uint256",
          "name": "itemId",
          "type": "uint256"
        }
      ],
      "name": "cancelMarketItem",
      "outputs": [],
      "stateMutability": "nonpayable",
      "type": "function"
    },
    {
      "inputs": [
        {
          "internalType": "address",
          "name": "nftContractAddress",
          "type": "address"
        },
        {
          "internalType": "uint256",
          "name": "tokenId",
          "type": "uint256"
        },
        {
          "internalType": "uint256",
          "name": "price",
          "type": "uint256"
        }
      ],
      "name": "createMarketItem",
      "outputs": [],
      "stateMutability": "payable",
      "type": "function"
    },
    {
      "inputs": [
        {
          "internalType": "uint256",
          "name": "itemId",
          "type": "uint256"
        }
      ],
      "name": "createMarketSale",
      "outputs": [],
      "stateMutability": "payable",
      "type": "function"
    },
    {
      "inputs": [
        {
          "internalType": "address",
          "name": "nftContractAddress",
          "type": "address"
        },
        {
          "internalType": "uint256",
          "name": "tokenId",
          "type": "uint256"
        }
      ],
      "name": "fetchMarketItem",
      "outputs": [
        {
          "components": [
            {
              "internalType": "uint256",
              "name": "itemId",
              "type": "uint256"
            },
            {
              "internalType": "address",
              "name": "nftContract",
              "type": "address"
            },
            {
              "internalType": "uint256",
              "name": "tokenId",
              "type": "uint256"
            },
            {
              "internalType": "address payable",
              "name": "seller",
              "type": "address"
            },
            {
              "internalType": "address payable",
              "name": "owner",
              "type": "address"
            },
            {
              "internalType": "uint256",
              "name": "price",
              "type": "uint256"
            },
            {
              "internalType": "uint256",
              "name": "listingPrice",
              "type": "uint256"
            },
            {
              "internalType": "bool",
              "name": "cancelled",
              "type": "bool"
            }
          ],
          "internalType": "struct Marketplace.MarketItem",
          "name": "",
          "type": "tuple"
        }
      ],
      "stateMutability": "view",
      "type": "function"
    },
    {
      "inputs": [],
      "name": "fetchMarketItems",
      "outputs": [
        {
          "components": [
            {
              "internalType": "uint256",
              "name": "itemId",
              "type": "uint256"
            },
            {
              "internalType": "address",
              "name": "nftContract",
              "type": "address"
            },
            {
              "internalType": "uint256",
              "name": "tokenId",
              "type": "uint256"
            },
            {
              "internalType": "address payable",
              "name": "seller",
              "type": "address"
            },
            {
              "internalType": "address payable",
              "name": "owner",
              "type": "address"
            },
            {
              "internalType": "uint256",
              "name": "price",
              "type": "uint256"
            },
            {
              "internalType": "uint256",
              "name": "listingPrice",
              "type": "uint256"
            },
            {
              "internalType": "bool",
              "name": "cancelled",
              "type": "bool"
            }
          ],
          "internalType": "struct Marketplace.MarketItem[]",
          "name": "",
          "type": "tuple[]"
        }
      ],
      "stateMutability": "view",
      "type": "function"
    },
    {
      "inputs": [],
      "name": "fetchMyNFTs",
      "outputs": [
        {
          "components": [
            {
              "internalType": "uint256",
              "name": "itemId",
              "type": "uint256"
            },
            {
              "internalType": "address",
              "name": "nftContract",
              "type": "address"
            },
            {
              "internalType": "uint256",
              "name": "tokenId",
              "type": "uint256"
            },
            {
              "internalType": "address payable",
              "name": "seller",
              "type": "address"
            },
            {
              "internalType": "address payable",
              "name": "owner",
              "type": "address"
            },
            {
              "internalType": "uint256",
              "name": "price",
              "type": "uint256"
            },
            {
              "internalType": "uint256",
              "name": "listingPrice",
              "type": "uint256"
            },
            {
              "internalType": "bool",
              "name": "cancelled",
              "type": "bool"
            }
          ],
          "internalType": "struct Marketplace.MarketItem[]",
          "name": "",
          "type": "tuple[]"
        }
      ],
      "stateMutability": "view",
      "type": "function"
    },
    {
      "inputs": [],
      "name": "getListingPrice",
      "outputs": [
        {
          "internalType": "uint256",
          "name": "",
          "type": "uint256"
        }
      ],
      "stateMutability": "view",
      "type": "function"
    },
    {
      "inputs": [
        {
          "internalType": "uint256",
          "name": "marketItemId",
          "type": "uint256"
        }
      ],
      "name": "getMarketItem",
      "outputs": [
        {
          "components": [
            {
              "internalType": "uint256",
              "name": "itemId",
              "type": "uint256"
            },
            {
              "internalType": "address",
              "name": "nftContract",
              "type": "address"
            },
            {
              "internalType": "uint256",
              "name": "tokenId",
              "type": "uint256"
            },
            {
              "internalType": "address payable",
              "name": "seller",
              "type": "address"
            },
            {
              "internalType": "address payable",
              "name": "owner",
              "type": "address"
            },
            {
              "internalType": "uint256",
              "name": "price",
              "type": "uint256"
            },
            {
              "internalType": "uint256",
              "name": "listingPrice",
              "type": "uint256"
            },
            {
              "internalType": "bool",
              "name": "cancelled",
              "type": "bool"
            }
          ],
          "internalType": "struct Marketplace.MarketItem",
          "name": "",
          "type": "tuple"
        }
      ],
      "stateMutability": "view",
      "type": "function"
    },
    {
      "inputs": [],
      "name": "initialize",
      "outputs": [],
      "stateMutability": "nonpayable",
      "type": "function"
    },
    {
      "inputs": [],
      "name": "owner",
      "outputs": [
        {
          "internalType": "address",
          "name": "",
          "type": "address"
        }
      ],
      "stateMutability": "view",
      "type": "function"
    },
    {
      "inputs": [],
      "name": "renounceOwnership",
      "outputs": [],
      "stateMutability": "nonpayable",
      "type": "function"
    },
    {
      "inputs": [
        {
          "internalType": "uint256",
          "name": "_listingPrice",
          "type": "uint256"
        }
      ],
      "name": "setListingPrice",
      "outputs": [],
      "stateMutability": "nonpayable",
      "type": "function"
    },
    {
      "inputs": [
        {
          "internalType": "address",
          "name": "newOwner",
          "type": "address"
        }
      ],
      "name": "transferOwnership",
      "outputs": [],
      "stateMutability": "nonpayable",
      "type": "function"
    },
    {
      "inputs": [
        {
          "internalType": "address",
          "name": "newImplementation",
          "type": "address"
        }
      ],
      "name": "upgradeTo",
      "outputs": [],
      "stateMutability": "nonpayable",
      "type": "function"
    },
    {
      "inputs": [
        {
          "internalType": "address",
          "name": "newImplementation",
          "type": "address"
        },
        {
          "internalType": "bytes",
          "name": "data",
          "type": "bytes"
        }
      ],
      "name": "upgradeToAndCall",
      "outputs": [],
      "stateMutability": "payable",
      "type": "function"
    },
    {
      "inputs": [],
      "name": "version",
      "outputs": [
        {
          "internalType": "string",
          "name": "",
          "type": "string"
        }
      ],
      "stateMutability": "pure",
      "type": "function"
    }
  ],
  "bytecode": "0x608060405234801561001057600080fd5b506122e4806100206000396000f3fe6080604052600436106100f35760003560e01c8063715018a61161008a578063a6e22b0211610059578063a6e22b021461026e578063be9af5361461028e578063c7be7a49146102a1578063f2fde38b146102c1576100f3565b8063715018a6146101fc5780637c726b69146102115780638129fc1c146102315780638da5cb5b14610246576100f3565b80633659cfe6116100c65780633659cfe6146101835780634f1ef286146101a557806354fd4d50146101b857806358eb2df5146101e9576100f3565b80630f08efe0146100f857806312e8558514610123578063202e3740146101415780632e41f5fa14610156575b600080fd5b34801561010457600080fd5b5061010d6102e1565b60405161011a9190611fd7565b60405180910390f35b34801561012f57600080fd5b5060fe5460405190815260200161011a565b34801561014d57600080fd5b5061010d610666565b34801561016257600080fd5b50610176610171366004611ee4565b61086a565b60405161011a91906121bd565b34801561018f57600080fd5b506101a361019e366004611ded565b610bd1565b005b6101a36101b3366004611e25565b610bf8565b3480156101c457600080fd5b506040805180820182526002815261763160f01b6020820152905161011a9190612026565b6101a36101f7366004611f0f565b610c11565b34801561020857600080fd5b506101a3611069565b34801561021d57600080fd5b506101a361022c366004611f43565b61109f565b34801561023d57600080fd5b506101a36110ce565b34801561025257600080fd5b506033546040516001600160a01b03909116815260200161011a565b34801561027a57600080fd5b506101a3610289366004611f43565b61117d565b6101a361029c366004611f43565b611441565b3480156102ad57600080fd5b506101766102bc366004611f43565b611688565b3480156102cd57600080fd5b506101a36102dc366004611ded565b61170f565b606060006102ee60fb5490565b905060006102fb60fc5490565b60fb5461030891906121e4565b90506000808267ffffffffffffffff81111561033457634e487b7160e01b600052604160045260246000fd5b60405190808252806020026020018201604052801561036d57816020015b61035a611d8b565b8152602001906001900390816103525790505b50905060005b8481101561065d57600060ff8161038b8460016121cc565b8152602081019190915260400160009081206001908101546001600160a01b031692508290636352211e9060ff9084906103c69088906121cc565b8152602001908152602001600020600201546040518263ffffffff1660e01b81526004016103f691815260200190565b60206040518083038186803b15801561040e57600080fd5b505afa158015610422573d6000803e3d6000fd5b505050506040513d601f19601f820116820180604052508101906104469190611e09565b905060006001600160a01b03831663081812fc60ff836104678860016121cc565b8152602001908152602001600020600201546040518263ffffffff1660e01b815260040161049791815260200190565b60206040518083038186803b1580156104af57600080fd5b505afa1580156104c3573d6000803e3d6000fd5b505050506040513d601f19601f820116820180604052508101906104e79190611e09565b9050600060ff816104f98760016121cc565b81526020810191909152604001600020600401546001600160a01b0316148015610550575060ff600061052d8660016121cc565b81526020810191909152604001600020600301546001600160a01b038381169116145b801561056457506001600160a01b03811630145b1561064757600060ff816105798760016121cc565b8152602080820192909252604090810160009081205480825260ff808552918390208351610100810185528154815260018201546001600160a01b039081169682019690965260028201549481019490945260038101548516606085015260048101549094166080840152600584015460a0840152600684015460c08401526007840154909116151560e0830152885190935088908a90811061062c57634e487b7160e01b600052603260045260246000fd5b60209081029190910101526106426001896121cc565b975050505b50505080806106559061222b565b915050610373565b50935050505090565b6060600061067360fb5490565b905060008060005b838110156106d6573360ff60006106938460016121cc565b81526020810191909152604001600020600401546001600160a01b031614156106c4576106c16001846121cc565b92505b806106ce8161222b565b91505061067b565b5060008267ffffffffffffffff81111561070057634e487b7160e01b600052604160045260246000fd5b60405190808252806020026020018201604052801561073957816020015b610726611d8b565b81526020019060019003908161071e5790505b50905060005b8481101561065d573360ff60006107578460016121cc565b81526020810191909152604001600020600401546001600160a01b0316141561085857600060ff8161078a8460016121cc565b8152602080820192909252604090810160009081205480825260ff808552918390208351610100810185528154815260018201546001600160a01b039081169682019690965260028201549481019490945260038101548516606085015260048101549094166080840152600584015460a0840152600684015460c08401526007840154909116151560e0830152855190935085908790811061083d57634e487b7160e01b600052603260045260246000fd5b60209081029190910101526108536001866121cc565b945050505b806108628161222b565b91505061073f565b610872611d8b565b600061087d60fb5490565b9050610887611d8b565b60005b82811015610bc6576001600160a01b03861660ff60006108ab8460016121cc565b81526020810191909152604001600020600101546001600160a01b03161480156108f457508460ff60006108e08460016121cc565b815260200190815260200160002060020154145b801561092a5750600060ff8161090b8460016121cc565b81526020810191909152604001600020600401546001600160a01b0316145b8015610959575060ff60006109408360016121cc565b815260208101919091526040016000206007015460ff16155b15610bb457600060ff8161096e8460016121cc565b8152602081019190915260400160009081206001908101546001600160a01b031692508290636352211e9060ff9084906109a99088906121cc565b8152602001908152602001600020600201546040518263ffffffff1660e01b81526004016109d991815260200190565b60206040518083038186803b1580156109f157600080fd5b505afa158015610a05573d6000803e3d6000fd5b505050506040513d601f19601f82011682018060405250810190610a299190611e09565b905060006001600160a01b03831663081812fc60ff83610a4a8860016121cc565b8152602001908152602001600020600201546040518263ffffffff1660e01b8152600401610a7a91815260200190565b60206040518083038186803b158015610a9257600080fd5b505afa158015610aa6573d6000803e3d6000fd5b505050506040513d601f19601f82011682018060405250810190610aca9190611e09565b905060ff6000610adb8660016121cc565b81526020810191909152604001600020600301546001600160a01b038381169116148015610b1157506001600160a01b03811630145b15610bb05760ff6000610b258660016121cc565b815260208082019290925260409081016000208151610100810183528154815260018201546001600160a01b039081169482019490945260028201549281019290925260038101548316606083015260048101549092166080820152600582015460a0820152600682015460c082015260079091015460ff16151560e08201529450610bc692505050565b5050505b80610bbe8161222b565b91505061088a565b509150505b92915050565b610bda816117a7565b610bf5816040518060200160405280600081525060006117d1565b50565b610c01826117a7565b610c0d828260016117d1565b5050565b600260c9541415610c3d5760405162461bcd60e51b8152600401610c3490612186565b60405180910390fd5b600260c9556040516331a9108f60e11b81526004810183905283906000906001600160a01b03831690636352211e9060240160206040518083038186803b158015610c8757600080fd5b505afa158015610c9b573d6000803e3d6000fd5b505050506040513d601f19601f82011682018060405250810190610cbf9190611e09565b60405163020604bf60e21b8152600481018690529091506000906001600160a01b0384169063081812fc9060240160206040518083038186803b158015610d0557600080fd5b505afa158015610d19573d6000803e3d6000fd5b505050506040513d601f19601f82011682018060405250810190610d3d9190611e09565b90506001600160a01b0382163314610d675760405162461bcd60e51b8152600401610c34906120c1565b6001600160a01b0381163014610d8f5760405162461bcd60e51b8152600401610c3490612059565b60008411610ddf5760405162461bcd60e51b815260206004820152601c60248201527f5072696365206d757374206265206174206c65617374203120776569000000006044820152606401610c34565b60fe543414610e3c5760405162461bcd60e51b8152602060048201526024808201527f56616c7565206d75737420626520657175616c20746f206c697374696e6720706044820152637269636560e01b6064820152608401610c34565b6000610e48878761086a565b805190915015610e9a5760405162461bcd60e51b815260206004820152601a60248201527f4d61726b6574206974656d20616c7265616479206578697374730000000000006044820152606401610c34565b610ea860fb80546001019055565b6000610eb360fb5490565b9050604051806101000160405280828152602001896001600160a01b03168152602001888152602001336001600160a01b0316815260200160006001600160a01b0316815260200187815260200160fe5481526020016000151581525060ff60008381526020019081526020016000206000820151816000015560208201518160010160006101000a8154816001600160a01b0302191690836001600160a01b031602179055506040820151816002015560608201518160030160006101000a8154816001600160a01b0302191690836001600160a01b0316021790555060808201518160040160006101000a8154816001600160a01b0302191690836001600160a01b0316021790555060a0820151816005015560c0820151816006015560e08201518160070160006101000a81548160ff02191690831515021790555090505086886001600160a01b0316827f0577ba4f9e422b352c9a2a6dcafa535fe95af69d985d741e4af739183532ffb4338a60fe54604051611052939291906001600160a01b039390931683526020830191909152604082015260600190565b60405180910390a45050600160c955505050505050565b6033546001600160a01b031633146110935760405162461bcd60e51b8152600401610c3490612151565b61109d6000611959565b565b6033546001600160a01b031633146110c95760405162461bcd60e51b8152600401610c3490612151565b60fe55565b600054610100900460ff16806110e7575060005460ff16155b6111035760405162461bcd60e51b8152600401610c3490612103565b600054610100900460ff1615801561112e576000805460ff1961ff0019909116610100171660011790555b6111366119ab565b61113e611a2f565b60fd80546001600160a01b03191673768532c218f4f4e6e4960ceea7f5a7a947a1dd61179055600060fe558015610bf5576000805461ff001916905550565b600260c95414156111a05760405162461bcd60e51b8152600401610c3490612186565b600260c955600081815260ff602081905260409091206007015416156112085760405162461bcd60e51b815260206004820181905260248201527f4d61726b6574206974656d20697320616c72656164792063616e63656c6c65646044820152606401610c34565b600081815260ff6020526040808220600181015460029091015491516331a9108f60e11b815260048101929092526001600160a01b031691908290636352211e9060240160206040518083038186803b15801561126457600080fd5b505afa158015611278573d6000803e3d6000fd5b505050506040513d601f19601f8201168201806040525081019061129c9190611e09565b600084815260ff602052604080822060020154905163020604bf60e21b81526004810191909152919250906001600160a01b0384169063081812fc9060240160206040518083038186803b1580156112f357600080fd5b505afa158015611307573d6000803e3d6000fd5b505050506040513d601f19601f8201168201806040525081019061132b9190611e09565b600085815260ff60205260409020600301549091506001600160a01b03838116911614801561136257506001600160a01b03821633145b61137e5760405162461bcd60e51b8152600401610c34906120c1565b6001600160a01b03811630146113a65760405162461bcd60e51b8152600401610c3490612059565b600084815260ff6020526040902060078101805460ff19166001179055600601541561140b57600084815260ff6020526040808220600601549051339282156108fc02929190818181858888f19350505050158015611409573d6000803e3d6000fd5b505b60405184907fb44d5981f3bd81a0185dad0967e03df817142f923e4b93a322e68f34ec23cba990600090a25050600160c9555050565b600260c95414156114645760405162461bcd60e51b8152600401610c3490612186565b600260c9819055600082815260ff6020526040902060058101549101543482146114f8576040805162461bcd60e51b81526020600482015260248101919091527f506c65617365207375626d6974207468652061736b696e67207072696365206960448201527f6e206f7264657220746f20636f6d706c657465207468652070757263686173656064820152608401610c34565b600083815260ff60205260408082206003015490516001600160a01b03909116913480156108fc02929091818181858888f19350505050158015611540573d6000803e3d6000fd5b50600083815260ff602052604090819020600181015460039091015491516323b872dd60e01b81526001600160a01b039283166004820152336024820152604481018490529116906323b872dd90606401600060405180830381600087803b1580156115ab57600080fd5b505af11580156115bf573d6000803e3d6000fd5b505050600084815260ff6020526040902060040180546001600160a01b03191633179055506115f260fc80546001019055565b600083815260ff6020526040902060060154156116535760fd54600084815260ff60205260408082206006015490516001600160a01b039093169281156108fc0292818181858888f19350505050158015611651573d6000803e3d6000fd5b505b60405183907f5edde87e7efe9511fd280717315e9a4c5f46a6a84becfc74084b59e48154084490600090a25050600160c95550565b611690611d8b565b50600090815260ff60208181526040928390208351610100810185528154815260018201546001600160a01b039081169382019390935260028201549481019490945260038101548216606085015260048101549091166080840152600581015460a0840152600681015460c08401526007015416151560e082015290565b6033546001600160a01b031633146117395760405162461bcd60e51b8152600401610c3490612151565b6001600160a01b03811661179e5760405162461bcd60e51b815260206004820152602660248201527f4f776e61626c653a206e6577206f776e657220697320746865207a65726f206160448201526564647265737360d01b6064820152608401610c34565b610bf581611959565b6033546001600160a01b03163314610bf55760405162461bcd60e51b8152600401610c3490612151565b60006118047f360894a13ba1a3210667c828492db98dca3e2076cc3735a920a3ca505d382bbc546001600160a01b031690565b905061180f84611a9f565b60008351118061181c5750815b1561182d5761182b8484611b44565b505b7f4910fdfa16fed3260ed0e7147f7cc6da11a60208b5b9406d12a635614ffd9143805460ff1661195257805460ff191660011781556040516001600160a01b03831660248201526118ac90869060440160408051601f198184030181529190526020810180516001600160e01b0316631b2ce7f360e11b179052611b44565b50805460ff191681557f360894a13ba1a3210667c828492db98dca3e2076cc3735a920a3ca505d382bbc546001600160a01b038381169116146119495760405162461bcd60e51b815260206004820152602f60248201527f45524331393637557067726164653a207570677261646520627265616b73206660448201526e75727468657220757067726164657360881b6064820152608401610c34565b61195285611c2f565b5050505050565b603380546001600160a01b038381166001600160a01b0319831681179093556040519116919082907f8be0079c531659141344cd1fd0a4f28419497f9722a3daafe3b4186f6b6457e090600090a35050565b600054610100900460ff16806119c4575060005460ff16155b6119e05760405162461bcd60e51b8152600401610c3490612103565b600054610100900460ff16158015611a0b576000805460ff1961ff0019909116610100171660011790555b611a13611c6f565b611a1b611ce2565b8015610bf5576000805461ff001916905550565b600054610100900460ff1680611a48575060005460ff16155b611a645760405162461bcd60e51b8152600401610c3490612103565b600054610100900460ff16158015611a8f576000805460ff1961ff0019909116610100171660011790555b611a97611c6f565b611a1b611c6f565b803b611b035760405162461bcd60e51b815260206004820152602d60248201527f455243313936373a206e657720696d706c656d656e746174696f6e206973206e60448201526c1bdd08184818dbdb9d1c9858dd609a1b6064820152608401610c34565b7f360894a13ba1a3210667c828492db98dca3e2076cc3735a920a3ca505d382bbc80546001600160a01b0319166001600160a01b0392909216919091179055565b6060823b611ba35760405162461bcd60e51b815260206004820152602660248201527f416464726573733a2064656c65676174652063616c6c20746f206e6f6e2d636f6044820152651b9d1c9858dd60d21b6064820152608401610c34565b600080846001600160a01b031684604051611bbe9190611fbb565b600060405180830381855af49150503d8060008114611bf9576040519150601f19603f3d011682016040523d82523d6000602084013e611bfe565b606091505b5091509150611c26828260405180606001604052806027815260200161228860279139611d4b565b95945050505050565b611c3881611a9f565b6040516001600160a01b038216907fbc7cd75a20ee27fd9adebab32041f755214dbc6bffa90cc0225b39da2e5c2d3b90600090a250565b600054610100900460ff1680611c88575060005460ff16155b611ca45760405162461bcd60e51b8152600401610c3490612103565b600054610100900460ff16158015611a1b576000805460ff1961ff0019909116610100171660011790558015610bf5576000805461ff001916905550565b600054610100900460ff1680611cfb575060005460ff16155b611d175760405162461bcd60e51b8152600401610c3490612103565b600054610100900460ff16158015611d42576000805460ff1961ff0019909116610100171660011790555b611a1b33611959565b60608315611d5a575081611d84565b825115611d6a5782518084602001fd5b8160405162461bcd60e51b8152600401610c349190612026565b9392505050565b6040518061010001604052806000815260200160006001600160a01b031681526020016000815260200160006001600160a01b0316815260200160006001600160a01b0316815260200160008152602001600081526020016000151581525090565b600060208284031215611dfe578081fd5b8135611d8481612272565b600060208284031215611e1a578081fd5b8151611d8481612272565b60008060408385031215611e37578081fd5b8235611e4281612272565b9150602083013567ffffffffffffffff80821115611e5e578283fd5b818501915085601f830112611e71578283fd5b813581811115611e8357611e8361225c565b604051601f8201601f19908116603f01168101908382118183101715611eab57611eab61225c565b81604052828152886020848701011115611ec3578586fd5b82602086016020830137856020848301015280955050505050509250929050565b60008060408385031215611ef6578182fd5b8235611f0181612272565b946020939093013593505050565b600080600060608486031215611f23578081fd5b8335611f2e81612272565b95602085013595506040909401359392505050565b600060208284031215611f54578081fd5b5035919050565b80518252602081015160018060a01b03808216602085015260408301516040850152806060840151166060850152806080840151166080850152505060a081015160a083015260c081015160c083015260e0810151151560e08301525050565b60008251611fcd8184602087016121fb565b9190910192915050565b6020808252825182820181905260009190848201906040850190845b8181101561201a57612006838551611f5b565b928401926101009290920191600101611ff3565b50909695505050505050565b60006020825282518060208401526120458160408501602087016121fb565b601f01601f19169190910160400192915050565b60208082526042908201527f596f75206d7573742067697665207065726d697373696f6e20666f722074686960408201527f73206d61726b6574706c61636520746f2061636365737320796f757220746f6b60608201526132b760f11b608082015260a00190565b60208082526022908201527f596f75206d75737420626520746865206f776e6572206f662074686520746f6b60408201526132b760f11b606082015260800190565b6020808252602e908201527f496e697469616c697a61626c653a20636f6e747261637420697320616c72656160408201526d191e481a5b9a5d1a585b1a5e995960921b606082015260800190565b6020808252818101527f4f776e61626c653a2063616c6c6572206973206e6f7420746865206f776e6572604082015260600190565b6020808252601f908201527f5265656e7472616e637947756172643a207265656e7472616e742063616c6c00604082015260600190565b6101008101610bcb8284611f5b565b600082198211156121df576121df612246565b500190565b6000828210156121f6576121f6612246565b500390565b60005b838110156122165781810151838201526020016121fe565b83811115612225576000848401525b50505050565b600060001982141561223f5761223f612246565b5060010190565b634e487b7160e01b600052601160045260246000fd5b634e487b7160e01b600052604160045260246000fd5b6001600160a01b0381168114610bf557600080fdfe416464726573733a206c6f772d6c6576656c2064656c65676174652063616c6c206661696c6564a26469706673582212209aafdc204232619041358b40df8d7d8bfe4f69e37140966315e3b172f37fcefe64736f6c63430008020033",
  "linkReferences": {},
  "deployedLinkReferences": {}
}