{
  "_format": "hh-sol-artifact-1",
  "contractName": "Marketplace",
  "sourceName": "contracts/Marketplace.sol",
  "abi": [
    {
      "anonymous": false,
      "inputs": [
        {
          "indexed": false,
          "internalType": "address",
          "name": "previousAdmin",
          "type": "address"
        },
        {
          "indexed": false,
          "internalType": "address",
          "name": "newAdmin",
          "type": "address"
        }
      ],
      "name": "AdminChanged",
      "type": "event"
    },
    {
      "anonymous": false,
      "inputs": [
        {
          "indexed": true,
          "internalType": "address",
          "name": "beacon",
          "type": "address"
        }
      ],
      "name": "BeaconUpgraded",
      "type": "event"
    },
    {
      "anonymous": false,
      "inputs": [
        {
          "indexed": true,
          "internalType": "uint256",
          "name": "itemId",
          "type": "uint256"
        }
      ],
      "name": "MarketItemCancelled",
      "type": "event"
    },
    {
      "anonymous": false,
      "inputs": [
        {
          "indexed": true,
          "internalType": "uint256",
          "name": "itemId",
          "type": "uint256"
        },
        {
          "indexed": true,
          "internalType": "address",
          "name": "nftContract",
          "type": "address"
        },
        {
          "indexed": true,
          "internalType": "uint256",
          "name": "tokenId",
          "type": "uint256"
        },
        {
          "indexed": false,
          "internalType": "address",
          "name": "seller",
          "type": "address"
        },
        {
          "indexed": false,
          "internalType": "uint256",
          "name": "price",
          "type": "uint256"
        },
        {
          "indexed": false,
          "internalType": "string",
          "name": "currency",
          "type": "string"
        },
        {
          "indexed": false,
          "internalType": "uint256",
          "name": "listingPrice",
          "type": "uint256"
        }
      ],
      "name": "MarketItemCreated",
      "type": "event"
    },
    {
      "anonymous": false,
      "inputs": [
        {
          "indexed": true,
          "internalType": "uint256",
          "name": "itemId",
          "type": "uint256"
        }
      ],
      "name": "MarketItemSold",
      "type": "event"
    },
    {
      "anonymous": false,
      "inputs": [
        {
          "indexed": true,
          "internalType": "address",
          "name": "previousOwner",
          "type": "address"
        },
        {
          "indexed": true,
          "internalType": "address",
          "name": "newOwner",
          "type": "address"
        }
      ],
      "name": "OwnershipTransferred",
      "type": "event"
    },
    {
      "anonymous": false,
      "inputs": [
        {
          "indexed": true,
          "internalType": "address",
          "name": "implementation",
          "type": "address"
        }
      ],
      "name": "Upgraded",
      "type": "event"
    },
    {
      "inputs": [
        {
          "internalType": "uint256",
          "name": "itemId",
          "type": "uint256"
        }
      ],
      "name": "cancelMarketItem",
      "outputs": [],
      "stateMutability": "nonpayable",
      "type": "function"
    },
    {
      "inputs": [
        {
          "internalType": "string",
          "name": "a",
          "type": "string"
        },
        {
          "internalType": "string",
          "name": "b",
          "type": "string"
        }
      ],
      "name": "compareStrings",
      "outputs": [
        {
          "internalType": "bool",
          "name": "",
          "type": "bool"
        }
      ],
      "stateMutability": "view",
      "type": "function"
    },
    {
      "inputs": [
        {
          "internalType": "address",
          "name": "nftContractAddress",
          "type": "address"
        },
        {
          "internalType": "uint256",
          "name": "tokenId",
          "type": "uint256"
        },
        {
          "internalType": "uint256",
          "name": "price",
          "type": "uint256"
        },
        {
          "internalType": "string",
          "name": "currency",
          "type": "string"
        }
      ],
      "name": "createMarketItem",
      "outputs": [],
      "stateMutability": "payable",
      "type": "function"
    },
    {
      "inputs": [
        {
          "internalType": "uint256",
          "name": "itemId",
          "type": "uint256"
        }
      ],
      "name": "createMarketSale",
      "outputs": [
        {
          "internalType": "uint256",
          "name": "",
          "type": "uint256"
        }
      ],
      "stateMutability": "payable",
      "type": "function"
    },
    {
      "inputs": [
        {
          "internalType": "address",
          "name": "nftContractAddress",
          "type": "address"
        },
        {
          "internalType": "uint256",
          "name": "tokenId",
          "type": "uint256"
        }
      ],
      "name": "fetchMarketItem",
      "outputs": [
        {
          "components": [
            {
              "internalType": "uint256",
              "name": "itemId",
              "type": "uint256"
            },
            {
              "internalType": "address",
              "name": "nftContract",
              "type": "address"
            },
            {
              "internalType": "uint256",
              "name": "tokenId",
              "type": "uint256"
            },
            {
              "internalType": "address payable",
              "name": "seller",
              "type": "address"
            },
            {
              "internalType": "address payable",
              "name": "owner",
              "type": "address"
            },
            {
              "internalType": "uint256",
              "name": "price",
              "type": "uint256"
            },
            {
              "internalType": "string",
              "name": "currency",
              "type": "string"
            },
            {
              "internalType": "uint256",
              "name": "listingPrice",
              "type": "uint256"
            },
            {
              "internalType": "bool",
              "name": "cancelled",
              "type": "bool"
            }
          ],
          "internalType": "struct Marketplace.MarketItem",
          "name": "",
          "type": "tuple"
        }
      ],
      "stateMutability": "view",
      "type": "function"
    },
    {
      "inputs": [],
      "name": "fetchMarketItems",
      "outputs": [
        {
          "components": [
            {
              "internalType": "uint256",
              "name": "itemId",
              "type": "uint256"
            },
            {
              "internalType": "address",
              "name": "nftContract",
              "type": "address"
            },
            {
              "internalType": "uint256",
              "name": "tokenId",
              "type": "uint256"
            },
            {
              "internalType": "address payable",
              "name": "seller",
              "type": "address"
            },
            {
              "internalType": "address payable",
              "name": "owner",
              "type": "address"
            },
            {
              "internalType": "uint256",
              "name": "price",
              "type": "uint256"
            },
            {
              "internalType": "string",
              "name": "currency",
              "type": "string"
            },
            {
              "internalType": "uint256",
              "name": "listingPrice",
              "type": "uint256"
            },
            {
              "internalType": "bool",
              "name": "cancelled",
              "type": "bool"
            }
          ],
          "internalType": "struct Marketplace.MarketItem[]",
          "name": "",
          "type": "tuple[]"
        }
      ],
      "stateMutability": "view",
      "type": "function"
    },
    {
      "inputs": [],
      "name": "fetchMyNFTs",
      "outputs": [
        {
          "components": [
            {
              "internalType": "uint256",
              "name": "itemId",
              "type": "uint256"
            },
            {
              "internalType": "address",
              "name": "nftContract",
              "type": "address"
            },
            {
              "internalType": "uint256",
              "name": "tokenId",
              "type": "uint256"
            },
            {
              "internalType": "address payable",
              "name": "seller",
              "type": "address"
            },
            {
              "internalType": "address payable",
              "name": "owner",
              "type": "address"
            },
            {
              "internalType": "uint256",
              "name": "price",
              "type": "uint256"
            },
            {
              "internalType": "string",
              "name": "currency",
              "type": "string"
            },
            {
              "internalType": "uint256",
              "name": "listingPrice",
              "type": "uint256"
            },
            {
              "internalType": "bool",
              "name": "cancelled",
              "type": "bool"
            }
          ],
          "internalType": "struct Marketplace.MarketItem[]",
          "name": "",
          "type": "tuple[]"
        }
      ],
      "stateMutability": "view",
      "type": "function"
    },
    {
      "inputs": [],
      "name": "getListingPrice",
      "outputs": [
        {
          "internalType": "uint256",
          "name": "",
          "type": "uint256"
        }
      ],
      "stateMutability": "view",
      "type": "function"
    },
    {
      "inputs": [
        {
          "internalType": "uint256",
          "name": "marketItemId",
          "type": "uint256"
        }
      ],
      "name": "getMarketItem",
      "outputs": [
        {
          "components": [
            {
              "internalType": "uint256",
              "name": "itemId",
              "type": "uint256"
            },
            {
              "internalType": "address",
              "name": "nftContract",
              "type": "address"
            },
            {
              "internalType": "uint256",
              "name": "tokenId",
              "type": "uint256"
            },
            {
              "internalType": "address payable",
              "name": "seller",
              "type": "address"
            },
            {
              "internalType": "address payable",
              "name": "owner",
              "type": "address"
            },
            {
              "internalType": "uint256",
              "name": "price",
              "type": "uint256"
            },
            {
              "internalType": "string",
              "name": "currency",
              "type": "string"
            },
            {
              "internalType": "uint256",
              "name": "listingPrice",
              "type": "uint256"
            },
            {
              "internalType": "bool",
              "name": "cancelled",
              "type": "bool"
            }
          ],
          "internalType": "struct Marketplace.MarketItem",
          "name": "",
          "type": "tuple"
        }
      ],
      "stateMutability": "view",
      "type": "function"
    },
    {
      "inputs": [],
      "name": "initialize",
      "outputs": [],
      "stateMutability": "nonpayable",
      "type": "function"
    },
    {
      "inputs": [],
      "name": "owner",
      "outputs": [
        {
          "internalType": "address",
          "name": "",
          "type": "address"
        }
      ],
      "stateMutability": "view",
      "type": "function"
    },
    {
      "inputs": [],
      "name": "renounceOwnership",
      "outputs": [],
      "stateMutability": "nonpayable",
      "type": "function"
    },
    {
      "inputs": [
        {
          "internalType": "uint256",
          "name": "_listingPrice",
          "type": "uint256"
        }
      ],
      "name": "setListingPrice",
      "outputs": [],
      "stateMutability": "nonpayable",
      "type": "function"
    },
    {
      "inputs": [
        {
          "internalType": "address",
          "name": "newOwner",
          "type": "address"
        }
      ],
      "name": "transferOwnership",
      "outputs": [],
      "stateMutability": "nonpayable",
      "type": "function"
    },
    {
      "inputs": [
        {
          "internalType": "address",
          "name": "newImplementation",
          "type": "address"
        }
      ],
      "name": "upgradeTo",
      "outputs": [],
      "stateMutability": "nonpayable",
      "type": "function"
    },
    {
      "inputs": [
        {
          "internalType": "address",
          "name": "newImplementation",
          "type": "address"
        },
        {
          "internalType": "bytes",
          "name": "data",
          "type": "bytes"
        }
      ],
      "name": "upgradeToAndCall",
      "outputs": [],
      "stateMutability": "payable",
      "type": "function"
    },
    {
      "inputs": [],
      "name": "version",
      "outputs": [
        {
          "internalType": "string",
          "name": "",
          "type": "string"
        }
      ],
      "stateMutability": "pure",
      "type": "function"
    }
  ],
  "bytecode": "0x608060405234801561001057600080fd5b50612972806100206000396000f3fe6080604052600436106100fe5760003560e01c80637c726b6911610095578063be9af53611610064578063be9af53614610287578063bed34bba1461029a578063c7be7a49146102ca578063ee45a711146102ea578063f2fde38b146102fd576100fe565b80637c726b691461020a5780638129fc1c1461022a5780638da5cb5b1461023f578063a6e22b0214610267576100fe565b80633659cfe6116100d15780633659cfe61461018f5780634f1ef286146101b157806354fd4d50146101c4578063715018a6146101f5576100fe565b80630f08efe01461010357806312e855851461012e578063202e37401461014d5780632e41f5fa14610162575b600080fd5b34801561010f57600080fd5b5061011861031d565b6040516101259190612635565b60405180910390f35b34801561013a57600080fd5b5060fe545b604051908152602001610125565b34801561015957600080fd5b5061011861073b565b34801561016e57600080fd5b5061018261017d366004612413565b6109d8565b604051610125919061280c565b34801561019b57600080fd5b506101af6101aa36600461237a565b610dd7565b005b6101af6101bf3660046123b2565b610dfe565b3480156101d057600080fd5b506040805180820182526002815261763160f01b602082015290516101259190612695565b34801561020157600080fd5b506101af610e17565b34801561021657600080fd5b506101af6102253660046124f6565b610e56565b34801561023657600080fd5b506101af610e85565b34801561024b57600080fd5b506033546040516001600160a01b039091168152602001610125565b34801561027357600080fd5b506101af6102823660046124f6565b610f34565b61013f6102953660046124f6565b6111f8565b3480156102a657600080fd5b506102ba6102b536600461249f565b611501565b6040519015158152602001610125565b3480156102d657600080fd5b506101826102e53660046124f6565b61155a565b6101af6102f836600461243e565b61167e565b34801561030957600080fd5b506101af61031836600461237a565b611b67565b6060600061032a60fb5490565b9050600061033760fc5490565b60fb546103449190612837565b90506000808267ffffffffffffffff81111561037057634e487b7160e01b600052604160045260246000fd5b6040519080825280602002602001820160405280156103a957816020015b6103966121e3565b81526020019060019003908161038e5790505b50905060005b8481101561073257600060ff816103c784600161281f565b8152602081019190915260400160009081206001908101546001600160a01b031692508290636352211e9060ff90849061040290889061281f565b8152602001908152602001600020600201546040518263ffffffff1660e01b815260040161043291815260200190565b60206040518083038186803b15801561044a57600080fd5b505afa15801561045e573d6000803e3d6000fd5b505050506040513d601f19601f820116820180604052508101906104829190612396565b905060006001600160a01b03831663081812fc60ff836104a388600161281f565b8152602001908152602001600020600201546040518263ffffffff1660e01b81526004016104d391815260200190565b60206040518083038186803b1580156104eb57600080fd5b505afa1580156104ff573d6000803e3d6000fd5b505050506040513d601f19601f820116820180604052508101906105239190612396565b9050600060ff8161053587600161281f565b81526020810191909152604001600020600401546001600160a01b031614801561058c575060ff600061056986600161281f565b81526020810191909152604001600020600301546001600160a01b038381169116145b80156105a057506001600160a01b03811630145b1561071c57600060ff816105b587600161281f565b8152602080820192909252604090810160009081205480825260ff8452908290208251610120810184528154815260018201546001600160a01b039081169582019590955260028201549381019390935260038101548416606084015260048101549093166080830152600583015460a0830152600683018054919450839160c0840191906106439061287e565b80601f016020809104026020016040519081016040528092919081815260200182805461066f9061287e565b80156106bc5780601f10610691576101008083540402835291602001916106bc565b820191906000526020600020905b81548152906001019060200180831161069f57829003601f168201915b50505091835250506007820154602082015260089091015460ff161515604090910152875188908a90811061070157634e487b7160e01b600052603260045260246000fd5b602090810291909101015261071760018961281f565b975050505b505050808061072a906128b9565b9150506103af565b50935050505090565b6060600061074860fb5490565b905060008060005b838110156107ab573360ff600061076884600161281f565b81526020810191909152604001600020600401546001600160a01b031614156107995761079660018461281f565b92505b806107a3816128b9565b915050610750565b5060008267ffffffffffffffff8111156107d557634e487b7160e01b600052604160045260246000fd5b60405190808252806020026020018201604052801561080e57816020015b6107fb6121e3565b8152602001906001900390816107f35790505b50905060005b84811015610732573360ff600061082c84600161281f565b81526020810191909152604001600020600401546001600160a01b031614156109c657600060ff8161085f84600161281f565b8152602080820192909252604090810160009081205480825260ff8452908290208251610120810184528154815260018201546001600160a01b039081169582019590955260028201549381019390935260038101548416606084015260048101549093166080830152600583015460a0830152600683018054919450839160c0840191906108ed9061287e565b80601f01602080910402602001604051908101604052809291908181526020018280546109199061287e565b80156109665780601f1061093b57610100808354040283529160200191610966565b820191906000526020600020905b81548152906001019060200180831161094957829003601f168201915b50505091835250506007820154602082015260089091015460ff16151560409091015284518590879081106109ab57634e487b7160e01b600052603260045260246000fd5b60209081029190910101526109c160018661281f565b945050505b806109d0816128b9565b915050610814565b6109e06121e3565b60006109eb60fb5490565b90506109f56121e3565b60005b82811015610dce576001600160a01b03861660ff6000610a1984600161281f565b81526020810191909152604001600020600101546001600160a01b0316148015610a6257508460ff6000610a4e84600161281f565b815260200190815260200160002060020154145b8015610a985750600060ff81610a7984600161281f565b81526020810191909152604001600020600401546001600160a01b0316145b8015610ac7575060ff6000610aae83600161281f565b815260208101919091526040016000206008015460ff16155b15610dbc57600060ff81610adc84600161281f565b8152602081019190915260400160009081206001908101546001600160a01b031692508290636352211e9060ff908490610b1790889061281f565b8152602001908152602001600020600201546040518263ffffffff1660e01b8152600401610b4791815260200190565b60206040518083038186803b158015610b5f57600080fd5b505afa158015610b73573d6000803e3d6000fd5b505050506040513d601f19601f82011682018060405250810190610b979190612396565b905060006001600160a01b03831663081812fc60ff83610bb888600161281f565b8152602001908152602001600020600201546040518263ffffffff1660e01b8152600401610be891815260200190565b60206040518083038186803b158015610c0057600080fd5b505afa158015610c14573d6000803e3d6000fd5b505050506040513d601f19601f82011682018060405250810190610c389190612396565b905060ff6000610c4986600161281f565b81526020810191909152604001600020600301546001600160a01b038381169116148015610c7f57506001600160a01b03811630145b15610db85760ff6000610c9386600161281f565b815260208082019290925260409081016000208151610120810183528154815260018201546001600160a01b039081169482019490945260028201549281019290925260038101548316606083015260048101549092166080820152600582015460a082015260068201805491929160c084019190610d119061287e565b80601f0160208091040260200160405190810160405280929190818152602001828054610d3d9061287e565b8015610d8a5780601f10610d5f57610100808354040283529160200191610d8a565b820191906000526020600020905b815481529060010190602001808311610d6d57829003601f168201915b50505091835250506007820154602082015260089091015460ff1615156040909101529450610dce92505050565b5050505b80610dc6816128b9565b9150506109f8565b50949350505050565b610de081611bff565b610dfb81604051806020016040528060008152506000611c29565b50565b610e0782611bff565b610e1382826001611c29565b5050565b6033546001600160a01b03163314610e4a5760405162461bcd60e51b8152600401610e41906127a0565b60405180910390fd5b610e546000611db1565b565b6033546001600160a01b03163314610e805760405162461bcd60e51b8152600401610e41906127a0565b60fe55565b600054610100900460ff1680610e9e575060005460ff16155b610eba5760405162461bcd60e51b8152600401610e4190612752565b600054610100900460ff16158015610ee5576000805460ff1961ff0019909116610100171660011790555b610eed611e03565b610ef5611e87565b60fd80546001600160a01b03191673768532c218f4f4e6e4960ceea7f5a7a947a1dd61179055600060fe558015610dfb576000805461ff001916905550565b600260c9541415610f575760405162461bcd60e51b8152600401610e41906127d5565b600260c955600081815260ff60208190526040909120600801541615610fbf5760405162461bcd60e51b815260206004820181905260248201527f4d61726b6574206974656d20697320616c72656164792063616e63656c6c65646044820152606401610e41565b600081815260ff6020526040808220600181015460029091015491516331a9108f60e11b815260048101929092526001600160a01b031691908290636352211e9060240160206040518083038186803b15801561101b57600080fd5b505afa15801561102f573d6000803e3d6000fd5b505050506040513d601f19601f820116820180604052508101906110539190612396565b600084815260ff602052604080822060020154905163020604bf60e21b81526004810191909152919250906001600160a01b0384169063081812fc9060240160206040518083038186803b1580156110aa57600080fd5b505afa1580156110be573d6000803e3d6000fd5b505050506040513d601f19601f820116820180604052508101906110e29190612396565b600085815260ff60205260409020600301549091506001600160a01b03838116911614801561111957506001600160a01b03821633145b6111355760405162461bcd60e51b8152600401610e4190612710565b6001600160a01b038116301461115d5760405162461bcd60e51b8152600401610e41906126a8565b600084815260ff6020526040902060088101805460ff1916600117905560070154156111c257600084815260ff6020526040808220600701549051339282156108fc02929190818181858888f193505050501580156111c0573d6000803e3d6000fd5b505b60405184907fb44d5981f3bd81a0185dad0967e03df817142f923e4b93a322e68f34ec23cba990600090a25050600160c9555050565b6000600260c954141561121d5760405162461bcd60e51b8152600401610e41906127d5565b600260c9819055600083815260ff60205260409020600581015491810154600690910180546112ef91906112509061287e565b80601f016020809104026020016040519081016040528092919081815260200182805461127c9061287e565b80156112c95780601f1061129e576101008083540402835291602001916112c9565b820191906000526020600020905b8154815290600101906020018083116112ac57829003601f168201915b50505050506040518060400160405280600381526020016221272160e91b815250611501565b156113b55781341461136b576040805162461bcd60e51b81526020600482015260248101919091527f506c65617365207375626d6974207468652061736b696e67207072696365206960448201527f6e206f7264657220746f20636f6d706c657465207468652070757263686173656064820152608401610e41565b600084815260ff60205260408082206003015490516001600160a01b03909116913480156108fc02929091818181858888f193505050501580156113b3573d6000803e3d6000fd5b505b600084815260ff602052604090819020600181015460039091015491516323b872dd60e01b81526001600160a01b039283166004820152336024820152604481018490529116906323b872dd90606401600060405180830381600087803b15801561141f57600080fd5b505af1158015611433573d6000803e3d6000fd5b505050600085815260ff6020526040902060040180546001600160a01b031916331790555061146660fc80546001019055565b600084815260ff6020526040902060070154156114c75760fd54600085815260ff60205260408082206007015490516001600160a01b039093169281156108fc0292818181858888f193505050501580156114c5573d6000803e3d6000fd5b505b60405184907f5edde87e7efe9511fd280717315e9a4c5f46a6a84becfc74084b59e48154084490600090a25050600160c955506002919050565b60008160405160200161151491906125e1565b604051602081830303815290604052805190602001208360405160200161153b91906125e1565b6040516020818303038152906040528051906020012014905092915050565b6115626121e3565b600082815260ff60209081526040918290208251610120810184528154815260018201546001600160a01b039081169382019390935260028201549381019390935260038101548216606084015260048101549091166080830152600581015460a083015260068101805460c0840191906115dc9061287e565b80601f01602080910402602001604051908101604052809291908181526020018280546116089061287e565b80156116555780601f1061162a57610100808354040283529160200191611655565b820191906000526020600020905b81548152906001019060200180831161163857829003601f168201915b50505091835250506007820154602082015260089091015460ff16151560409091015292915050565b600260c95414156116a15760405162461bcd60e51b8152600401610e41906127d5565b600260c9556040516331a9108f60e11b81526004810184905284906000906001600160a01b03831690636352211e9060240160206040518083038186803b1580156116eb57600080fd5b505afa1580156116ff573d6000803e3d6000fd5b505050506040513d601f19601f820116820180604052508101906117239190612396565b60405163020604bf60e21b8152600481018790529091506000906001600160a01b0384169063081812fc9060240160206040518083038186803b15801561176957600080fd5b505afa15801561177d573d6000803e3d6000fd5b505050506040513d601f19601f820116820180604052508101906117a19190612396565b90506117c8846040518060400160405280600381526020016221272160e91b815250611501565b806117f357506117f3846040518060400160405280600381526020016227aba760e91b815250611501565b6118385760405162461bcd60e51b8152602060048201526016602482015275496e76616c69642070726963652063757272656e637960501b6044820152606401610e41565b6001600160a01b03821633146118605760405162461bcd60e51b8152600401610e4190612710565b6001600160a01b03811630146118885760405162461bcd60e51b8152600401610e41906126a8565b600085116118d85760405162461bcd60e51b815260206004820152601c60248201527f5072696365206d757374206265206174206c65617374203120776569000000006044820152606401610e41565b60fe5434146119355760405162461bcd60e51b8152602060048201526024808201527f56616c7565206d75737420626520657175616c20746f206c697374696e6720706044820152637269636560e01b6064820152608401610e41565b600061194188886109d8565b8051909150156119935760405162461bcd60e51b815260206004820152601a60248201527f4d61726b6574206974656d20616c7265616479206578697374730000000000006044820152606401610e41565b6119a160fb80546001019055565b60006119ac60fb5490565b90506040518061012001604052808281526020018a6001600160a01b03168152602001898152602001336001600160a01b0316815260200160006001600160a01b0316815260200188815260200187815260200160fe5481526020016000151581525060ff60008381526020019081526020016000206000820151816000015560208201518160010160006101000a8154816001600160a01b0302191690836001600160a01b031602179055506040820151816002015560608201518160030160006101000a8154816001600160a01b0302191690836001600160a01b0316021790555060808201518160040160006101000a8154816001600160a01b0302191690836001600160a01b0316021790555060a0820151816005015560c0820151816006019080519060200190611ae392919061224c565b5060e08201516007820155610100909101516008909101805460ff191691151591909117905560fe5460405189916001600160a01b038c169184917fe4eef4d323c643be00d3153991b0fe3d4b55b32261c49ad782e362ac53fd663b91611b4f9133918e918e916125fd565b60405180910390a45050600160c95550505050505050565b6033546001600160a01b03163314611b915760405162461bcd60e51b8152600401610e41906127a0565b6001600160a01b038116611bf65760405162461bcd60e51b815260206004820152602660248201527f4f776e61626c653a206e6577206f776e657220697320746865207a65726f206160448201526564647265737360d01b6064820152608401610e41565b610dfb81611db1565b6033546001600160a01b03163314610dfb5760405162461bcd60e51b8152600401610e41906127a0565b6000611c5c7f360894a13ba1a3210667c828492db98dca3e2076cc3735a920a3ca505d382bbc546001600160a01b031690565b9050611c6784611ef7565b600083511180611c745750815b15611c8557611c838484611f9c565b505b7f4910fdfa16fed3260ed0e7147f7cc6da11a60208b5b9406d12a635614ffd9143805460ff16611daa57805460ff191660011781556040516001600160a01b0383166024820152611d0490869060440160408051601f198184030181529190526020810180516001600160e01b0316631b2ce7f360e11b179052611f9c565b50805460ff191681557f360894a13ba1a3210667c828492db98dca3e2076cc3735a920a3ca505d382bbc546001600160a01b03838116911614611da15760405162461bcd60e51b815260206004820152602f60248201527f45524331393637557067726164653a207570677261646520627265616b73206660448201526e75727468657220757067726164657360881b6064820152608401610e41565b611daa85612087565b5050505050565b603380546001600160a01b038381166001600160a01b0319831681179093556040519116919082907f8be0079c531659141344cd1fd0a4f28419497f9722a3daafe3b4186f6b6457e090600090a35050565b600054610100900460ff1680611e1c575060005460ff16155b611e385760405162461bcd60e51b8152600401610e4190612752565b600054610100900460ff16158015611e63576000805460ff1961ff0019909116610100171660011790555b611e6b6120c7565b611e7361213a565b8015610dfb576000805461ff001916905550565b600054610100900460ff1680611ea0575060005460ff16155b611ebc5760405162461bcd60e51b8152600401610e4190612752565b600054610100900460ff16158015611ee7576000805460ff1961ff0019909116610100171660011790555b611eef6120c7565b611e736120c7565b803b611f5b5760405162461bcd60e51b815260206004820152602d60248201527f455243313936373a206e657720696d706c656d656e746174696f6e206973206e60448201526c1bdd08184818dbdb9d1c9858dd609a1b6064820152608401610e41565b7f360894a13ba1a3210667c828492db98dca3e2076cc3735a920a3ca505d382bbc80546001600160a01b0319166001600160a01b0392909216919091179055565b6060823b611ffb5760405162461bcd60e51b815260206004820152602660248201527f416464726573733a2064656c65676174652063616c6c20746f206e6f6e2d636f6044820152651b9d1c9858dd60d21b6064820152608401610e41565b600080846001600160a01b03168460405161201691906125e1565b600060405180830381855af49150503d8060008114612051576040519150601f19603f3d011682016040523d82523d6000602084013e612056565b606091505b509150915061207e8282604051806060016040528060278152602001612916602791396121a3565b95945050505050565b61209081611ef7565b6040516001600160a01b038216907fbc7cd75a20ee27fd9adebab32041f755214dbc6bffa90cc0225b39da2e5c2d3b90600090a250565b600054610100900460ff16806120e0575060005460ff16155b6120fc5760405162461bcd60e51b8152600401610e4190612752565b600054610100900460ff16158015611e73576000805460ff1961ff0019909116610100171660011790558015610dfb576000805461ff001916905550565b600054610100900460ff1680612153575060005460ff16155b61216f5760405162461bcd60e51b8152600401610e4190612752565b600054610100900460ff1615801561219a576000805460ff1961ff0019909116610100171660011790555b611e7333611db1565b606083156121b25750816121dc565b8251156121c25782518084602001fd5b8160405162461bcd60e51b8152600401610e419190612695565b9392505050565b6040518061012001604052806000815260200160006001600160a01b031681526020016000815260200160006001600160a01b0316815260200160006001600160a01b031681526020016000815260200160608152602001600081526020016000151581525090565b8280546122589061287e565b90600052602060002090601f01602090048101928261227a57600085556122c0565b82601f1061229357805160ff19168380011785556122c0565b828001600101855582156122c0579182015b828111156122c05782518255916020019190600101906122a5565b506122cc9291506122d0565b5090565b5b808211156122cc57600081556001016122d1565b600067ffffffffffffffff80841115612300576123006128ea565b604051601f8501601f19908116603f01168101908282118183101715612328576123286128ea565b8160405280935085815286868601111561234157600080fd5b858560208301376000602087830101525050509392505050565b600082601f83011261236b578081fd5b6121dc838335602085016122e5565b60006020828403121561238b578081fd5b81356121dc81612900565b6000602082840312156123a7578081fd5b81516121dc81612900565b600080604083850312156123c4578081fd5b82356123cf81612900565b9150602083013567ffffffffffffffff8111156123ea578182fd5b8301601f810185136123fa578182fd5b612409858235602084016122e5565b9150509250929050565b60008060408385031215612425578182fd5b823561243081612900565b946020939093013593505050565b60008060008060808587031215612453578182fd5b843561245e81612900565b93506020850135925060408501359150606085013567ffffffffffffffff811115612487578182fd5b6124938782880161235b565b91505092959194509250565b600080604083850312156124b1578182fd5b823567ffffffffffffffff808211156124c8578384fd5b6124d48683870161235b565b935060208501359150808211156124e9578283fd5b506124098582860161235b565b600060208284031215612507578081fd5b5035919050565b6000815180845261252681602086016020860161284e565b601f01601f19169290920160200192915050565b60006101208251845260018060a01b03602084015116602085015260408301516040850152606083015161257960608601826001600160a01b03169052565b50608083015161259460808601826001600160a01b03169052565b5060a083015160a085015260c08301518160c08601526125b68286018261250e565b91505060e083015160e0850152610100808401516125d78287018215159052565b5090949350505050565b600082516125f381846020870161284e565b9190910192915050565b600060018060a01b038616825284602083015260806040830152612624608083018561250e565b905082606083015295945050505050565b6000602080830181845280855180835260408601915060408482028701019250838701855b8281101561268857603f1988860301845261267685835161253a565b9450928501929085019060010161265a565b5092979650505050505050565b6000602082526121dc602083018461250e565b60208082526042908201527f596f75206d7573742067697665207065726d697373696f6e20666f722074686960408201527f73206d61726b6574706c61636520746f2061636365737320796f757220746f6b60608201526132b760f11b608082015260a00190565b60208082526022908201527f596f75206d75737420626520746865206f776e6572206f662074686520746f6b60408201526132b760f11b606082015260800190565b6020808252602e908201527f496e697469616c697a61626c653a20636f6e747261637420697320616c72656160408201526d191e481a5b9a5d1a585b1a5e995960921b606082015260800190565b6020808252818101527f4f776e61626c653a2063616c6c6572206973206e6f7420746865206f776e6572604082015260600190565b6020808252601f908201527f5265656e7472616e637947756172643a207265656e7472616e742063616c6c00604082015260600190565b6000602082526121dc602083018461253a565b60008219821115612832576128326128d4565b500190565b600082821015612849576128496128d4565b500390565b60005b83811015612869578181015183820152602001612851565b83811115612878576000848401525b50505050565b60028104600182168061289257607f821691505b602082108114156128b357634e487b7160e01b600052602260045260246000fd5b50919050565b60006000198214156128cd576128cd6128d4565b5060010190565b634e487b7160e01b600052601160045260246000fd5b634e487b7160e01b600052604160045260246000fd5b6001600160a01b0381168114610dfb57600080fdfe416464726573733a206c6f772d6c6576656c2064656c65676174652063616c6c206661696c6564a2646970667358221220821e8ebe625e4cc41e53df1f929bf6080118c68f190e6ff23ca301da507d326a64736f6c63430008020033",
  "linkReferences": {},
  "deployedLinkReferences": {}
}