{
  "_format": "hh-sol-artifact-1",
  "contractName": "BRC721",
  "sourceName": "contracts/BRC721.sol",
  "abi": [
    {
      "inputs": [
        {
          "internalType": "address",
          "name": "admin_",
          "type": "address"
        },
        {
          "internalType": "string",
          "name": "name_",
          "type": "string"
        },
        {
          "internalType": "string",
          "name": "symbol_",
          "type": "string"
        }
      ],
      "stateMutability": "nonpayable",
      "type": "constructor"
    },
    {
      "anonymous": false,
      "inputs": [
        {
          "indexed": true,
          "internalType": "address",
          "name": "owner",
          "type": "address"
        },
        {
          "indexed": true,
          "internalType": "address",
          "name": "approved",
          "type": "address"
        },
        {
          "indexed": true,
          "internalType": "uint256",
          "name": "tokenId",
          "type": "uint256"
        }
      ],
      "name": "Approval",
      "type": "event"
    },
    {
      "anonymous": false,
      "inputs": [
        {
          "indexed": true,
          "internalType": "address",
          "name": "owner",
          "type": "address"
        },
        {
          "indexed": true,
          "internalType": "address",
          "name": "operator",
          "type": "address"
        },
        {
          "indexed": false,
          "internalType": "bool",
          "name": "approved",
          "type": "bool"
        }
      ],
      "name": "ApprovalForAll",
      "type": "event"
    },
    {
      "anonymous": false,
      "inputs": [
        {
          "indexed": true,
          "internalType": "address",
          "name": "from",
          "type": "address"
        },
        {
          "indexed": true,
          "internalType": "address",
          "name": "to",
          "type": "address"
        },
        {
          "indexed": true,
          "internalType": "uint256",
          "name": "tokenId",
          "type": "uint256"
        }
      ],
      "name": "Transfer",
      "type": "event"
    },
    {
      "inputs": [],
      "name": "admin",
      "outputs": [
        {
          "internalType": "address",
          "name": "",
          "type": "address"
        }
      ],
      "stateMutability": "view",
      "type": "function"
    },
    {
      "inputs": [
        {
          "internalType": "address",
          "name": "to",
          "type": "address"
        },
        {
          "internalType": "uint256",
          "name": "tokenId",
          "type": "uint256"
        }
      ],
      "name": "approve",
      "outputs": [],
      "stateMutability": "nonpayable",
      "type": "function"
    },
    {
      "inputs": [
        {
          "internalType": "address",
          "name": "owner",
          "type": "address"
        }
      ],
      "name": "balanceOf",
      "outputs": [
        {
          "internalType": "uint256",
          "name": "",
          "type": "uint256"
        }
      ],
      "stateMutability": "view",
      "type": "function"
    },
    {
      "inputs": [
        {
          "internalType": "uint256",
          "name": "tokenId",
          "type": "uint256"
        }
      ],
      "name": "getApproved",
      "outputs": [
        {
          "internalType": "address",
          "name": "",
          "type": "address"
        }
      ],
      "stateMutability": "view",
      "type": "function"
    },
    {
      "inputs": [
        {
          "internalType": "address",
          "name": "owner",
          "type": "address"
        },
        {
          "internalType": "address",
          "name": "operator",
          "type": "address"
        }
      ],
      "name": "isApprovedForAll",
      "outputs": [
        {
          "internalType": "bool",
          "name": "",
          "type": "bool"
        }
      ],
      "stateMutability": "view",
      "type": "function"
    },
    {
      "inputs": [],
      "name": "name",
      "outputs": [
        {
          "internalType": "string",
          "name": "",
          "type": "string"
        }
      ],
      "stateMutability": "view",
      "type": "function"
    },
    {
      "inputs": [
        {
          "internalType": "uint256",
          "name": "tokenId",
          "type": "uint256"
        }
      ],
      "name": "ownerOf",
      "outputs": [
        {
          "internalType": "address",
          "name": "",
          "type": "address"
        }
      ],
      "stateMutability": "view",
      "type": "function"
    },
    {
      "inputs": [
        {
          "internalType": "address",
          "name": "from",
          "type": "address"
        },
        {
          "internalType": "address",
          "name": "to",
          "type": "address"
        },
        {
          "internalType": "uint256",
          "name": "tokenId",
          "type": "uint256"
        }
      ],
      "name": "safeTransferFrom",
      "outputs": [],
      "stateMutability": "nonpayable",
      "type": "function"
    },
    {
      "inputs": [
        {
          "internalType": "address",
          "name": "from",
          "type": "address"
        },
        {
          "internalType": "address",
          "name": "to",
          "type": "address"
        },
        {
          "internalType": "uint256",
          "name": "tokenId",
          "type": "uint256"
        },
        {
          "internalType": "bytes",
          "name": "_data",
          "type": "bytes"
        }
      ],
      "name": "safeTransferFrom",
      "outputs": [],
      "stateMutability": "nonpayable",
      "type": "function"
    },
    {
      "inputs": [
        {
          "internalType": "address",
          "name": "operator",
          "type": "address"
        },
        {
          "internalType": "bool",
          "name": "approved",
          "type": "bool"
        }
      ],
      "name": "setApprovalForAll",
      "outputs": [],
      "stateMutability": "nonpayable",
      "type": "function"
    },
    {
      "inputs": [
        {
          "internalType": "bytes4",
          "name": "interfaceId",
          "type": "bytes4"
        }
      ],
      "name": "supportsInterface",
      "outputs": [
        {
          "internalType": "bool",
          "name": "",
          "type": "bool"
        }
      ],
      "stateMutability": "view",
      "type": "function"
    },
    {
      "inputs": [],
      "name": "symbol",
      "outputs": [
        {
          "internalType": "string",
          "name": "",
          "type": "string"
        }
      ],
      "stateMutability": "view",
      "type": "function"
    },
    {
      "inputs": [
        {
          "internalType": "uint256",
          "name": "tokenId",
          "type": "uint256"
        }
      ],
      "name": "tokenURI",
      "outputs": [
        {
          "internalType": "string",
          "name": "",
          "type": "string"
        }
      ],
      "stateMutability": "view",
      "type": "function"
    },
    {
      "inputs": [
        {
          "internalType": "address",
          "name": "from",
          "type": "address"
        },
        {
          "internalType": "address",
          "name": "to",
          "type": "address"
        },
        {
          "internalType": "uint256",
          "name": "tokenId",
          "type": "uint256"
        }
      ],
      "name": "transferFrom",
      "outputs": [],
      "stateMutability": "nonpayable",
      "type": "function"
    }
  ],
  "bytecode": "0x60a06040523480156200001157600080fd5b50604051620017ac380380620017ac8339810160408190526200003491620001cc565b6001600160601b0319606084901b1660805281516200005b9060009060208501906200007b565b508051620000719060019060208401906200007b565b50505050620002a5565b828054620000899062000252565b90600052602060002090601f016020900481019282620000ad5760008555620000f8565b82601f10620000c857805160ff1916838001178555620000f8565b82800160010185558215620000f8579182015b82811115620000f8578251825591602001919060010190620000db565b50620001069291506200010a565b5090565b5b808211156200010657600081556001016200010b565b600082601f83011262000132578081fd5b81516001600160401b03808211156200014f576200014f6200028f565b6040516020601f8401601f19168201810183811183821017156200017757620001776200028f565b60405283825285840181018710156200018e578485fd5b8492505b83831015620001b1578583018101518284018201529182019162000192565b83831115620001c257848185840101525b5095945050505050565b600080600060608486031215620001e1578283fd5b83516001600160a01b0381168114620001f8578384fd5b60208501519093506001600160401b038082111562000215578384fd5b620002238783880162000121565b9350604086015191508082111562000239578283fd5b50620002488682870162000121565b9150509250925092565b6002810460018216806200026757607f821691505b602082108114156200028957634e487b7160e01b600052602260045260246000fd5b50919050565b634e487b7160e01b600052604160045260246000fd5b60805160601c6114d3620002d960003960008181610450015281816106930152818161076801526107a001526114d36000f3fe608060405234801561001057600080fd5b50600436106100ea5760003560e01c806370a082311161008c578063b88d4fde11610066578063b88d4fde146101d6578063c87b56dd146101e9578063e985e9c5146101fc578063f851a4401461020f576100ea565b806370a082311461019b57806395d89b41146101bb578063a22cb465146101c3576100ea565b8063095ea7b3116100c8578063095ea7b31461014d57806323b872dd1461016257806342842e0e146101755780636352211e14610188576100ea565b806301ffc9a7146100ef57806306fdde0314610118578063081812fc1461012d575b600080fd5b6101026100fd366004610ea7565b610217565b60405161010f9190610fa3565b60405180910390f35b61012061025f565b60405161010f9190610fae565b61014061013b366004610edf565b6102f1565b60405161010f9190610f52565b61016061015b366004610e7e565b61033d565b005b610160610170366004610d3d565b6103d5565b610160610183366004610d3d565b610416565b610140610196366004610edf565b610431565b6101ae6101a9366004610cf1565b610477565b60405161010f9190611363565b6101206104bb565b6101606101d1366004610e44565b6104ca565b6101606101e4366004610d78565b610598565b6101206101f7366004610edf565b6105e0565b61010261020a366004610d0b565b610663565b610140610691565b60006001600160e01b031982166380ac58cd60e01b148061024857506001600160e01b03198216635b5e139f60e01b145b806102575750610257826106b5565b90505b919050565b60606000805461026e906113db565b80601f016020809104026020016040519081016040528092919081815260200182805461029a906113db565b80156102e75780601f106102bc576101008083540402835291602001916102e7565b820191906000526020600020905b8154815290600101906020018083116102ca57829003601f168201915b5050505050905090565b60006102fc826106ce565b6103215760405162461bcd60e51b8152600401610318906111ed565b60405180910390fd5b506000908152600460205260409020546001600160a01b031690565b600061034882610431565b9050806001600160a01b0316836001600160a01b0316141561037c5760405162461bcd60e51b8152600401610318906112d1565b806001600160a01b031661038e6106eb565b6001600160a01b031614806103aa57506103aa8161020a6106eb565b6103c65760405162461bcd60e51b815260040161031890611111565b6103d083836106ef565b505050565b6103de8161075d565b6103ef6103e96106eb565b826107c8565b61040b5760405162461bcd60e51b815260040161031890611312565b6103d083838361084d565b6103d083838360405180602001604052806000815250610598565b6000818152600260205260408120546001600160a01b031680610257577f000000000000000000000000000000000000000000000000000000000000000091505061025a565b60006001600160a01b03821661049f5760405162461bcd60e51b81526004016103189061116e565b506001600160a01b031660009081526003602052604090205490565b60606001805461026e906113db565b6104d26106eb565b6001600160a01b0316826001600160a01b031614156105035760405162461bcd60e51b81526004016103189061108e565b80600560006105106106eb565b6001600160a01b03908116825260208083019390935260409182016000908120918716808252919093529120805460ff1916921515929092179091556105546106eb565b6001600160a01b03167f17307eab39ab6107e8899845ad3d59bd9653f200f220920489ca2b5937696c318360405161058c9190610fa3565b60405180910390a35050565b6105a18261075d565b6105b26105ac6106eb565b836107c8565b6105ce5760405162461bcd60e51b815260040161031890611312565b6105da8484848461097a565b50505050565b60606105eb826106ce565b6106075760405162461bcd60e51b815260040161031890611282565b60006106116109ad565b90506000815111610631576040518060200160405280600081525061065c565b8061063b846109bf565b60405160200161064c929190610f23565b6040516020818303038152906040525b9392505050565b6001600160a01b03918216600090815260056020908152604080832093909416825291909152205460ff1690565b7f000000000000000000000000000000000000000000000000000000000000000090565b6001600160e01b031981166301ffc9a760e01b14919050565b6000908152600260205260409020546001600160a01b0316151590565b3390565b600081815260046020526040902080546001600160a01b0319166001600160a01b038416908117909155819061072482610431565b6001600160a01b03167f8c5be1e5ebec7d5bd14f71427d1e84f3dd0314c0f7b2291e5b200ac8c7c3b92560405160405180910390a45050565b336001600160a01b037f00000000000000000000000000000000000000000000000000000000000000001614156107c557610797816106ce565b6107c5576107c57f000000000000000000000000000000000000000000000000000000000000000082610ada565b50565b60006107d3826106ce565b6107ef5760405162461bcd60e51b8152600401610318906110c5565b60006107fa83610431565b9050806001600160a01b0316846001600160a01b031614806108355750836001600160a01b031661082a846102f1565b6001600160a01b0316145b8061084557506108458185610663565b949350505050565b826001600160a01b031661086082610431565b6001600160a01b0316146108865760405162461bcd60e51b815260040161031890611239565b6001600160a01b0382166108ac5760405162461bcd60e51b81526004016103189061104a565b6108b78383836103d0565b6108c26000826106ef565b6001600160a01b03831660009081526003602052604081208054600192906108eb908490611398565b90915550506001600160a01b038216600090815260036020526040812080546001929061091990849061136c565b909155505060008181526002602052604080822080546001600160a01b0319166001600160a01b0386811691821790925591518493918716917fddf252ad1be2c89b69c2b068fc378daa952ba7f163c4a11628f55a4df523b3ef91a4505050565b61098584848461084d565b61099184848484610bb9565b6105da5760405162461bcd60e51b815260040161031890610fc1565b60408051602081019091526000815290565b6060816109e457506040805180820190915260018152600360fc1b602082015261025a565b8160005b8115610a0e57806109f881611416565b9150610a079050600a83611384565b91506109e8565b60008167ffffffffffffffff811115610a3757634e487b7160e01b600052604160045260246000fd5b6040519080825280601f01601f191660200182016040528015610a61576020820181803683370190505b5090505b841561084557610a76600183611398565b9150610a83600a86611431565b610a8e90603061136c565b60f81b818381518110610ab157634e487b7160e01b600052603260045260246000fd5b60200101906001600160f81b031916908160001a905350610ad3600a86611384565b9450610a65565b6001600160a01b038216610b005760405162461bcd60e51b8152600401610318906111b8565b610b09816106ce565b15610b265760405162461bcd60e51b815260040161031890611013565b610b32600083836103d0565b6001600160a01b0382166000908152600360205260408120805460019290610b5b90849061136c565b909155505060008181526002602052604080822080546001600160a01b0319166001600160a01b03861690811790915590518392907fddf252ad1be2c89b69c2b068fc378daa952ba7f163c4a11628f55a4df523b3ef908290a45050565b6000610bcd846001600160a01b0316610cd4565b15610cc957836001600160a01b031663150b7a02610be96106eb565b8786866040518563ffffffff1660e01b8152600401610c0b9493929190610f66565b602060405180830381600087803b158015610c2557600080fd5b505af1925050508015610c55575060408051601f3d908101601f19168201909252610c5291810190610ec3565b60015b610caf573d808015610c83576040519150601f19603f3d011682016040523d82523d6000602084013e610c88565b606091505b508051610ca75760405162461bcd60e51b815260040161031890610fc1565b805181602001fd5b6001600160e01b031916630a85bd0160e11b149050610845565b506001949350505050565b3b151590565b80356001600160a01b038116811461025a57600080fd5b600060208284031215610d02578081fd5b61065c82610cda565b60008060408385031215610d1d578081fd5b610d2683610cda565b9150610d3460208401610cda565b90509250929050565b600080600060608486031215610d51578081fd5b610d5a84610cda565b9250610d6860208501610cda565b9150604084013590509250925092565b60008060008060808587031215610d8d578081fd5b610d9685610cda565b93506020610da5818701610cda565b935060408601359250606086013567ffffffffffffffff80821115610dc8578384fd5b818801915088601f830112610ddb578384fd5b813581811115610ded57610ded611471565b604051601f8201601f1916810185018381118282101715610e1057610e10611471565b60405281815283820185018b1015610e26578586fd5b81858501868301379081019093019390935250939692955090935050565b60008060408385031215610e56578182fd5b610e5f83610cda565b915060208301358015158114610e73578182fd5b809150509250929050565b60008060408385031215610e90578182fd5b610e9983610cda565b946020939093013593505050565b600060208284031215610eb8578081fd5b813561065c81611487565b600060208284031215610ed4578081fd5b815161065c81611487565b600060208284031215610ef0578081fd5b5035919050565b60008151808452610f0f8160208601602086016113af565b601f01601f19169290920160200192915050565b60008351610f358184602088016113af565b835190830190610f498183602088016113af565b01949350505050565b6001600160a01b0391909116815260200190565b6001600160a01b0385811682528416602082015260408101839052608060608201819052600090610f9990830184610ef7565b9695505050505050565b901515815260200190565b60006020825261065c6020830184610ef7565b60208082526032908201527f4552433732313a207472616e7366657220746f206e6f6e20455243373231526560408201527131b2b4bb32b91034b6b83632b6b2b73a32b960711b606082015260800190565b6020808252601c908201527f4552433732313a20746f6b656e20616c7265616479206d696e74656400000000604082015260600190565b60208082526024908201527f4552433732313a207472616e7366657220746f20746865207a65726f206164646040820152637265737360e01b606082015260800190565b60208082526019908201527f4552433732313a20617070726f766520746f2063616c6c657200000000000000604082015260600190565b6020808252602c908201527f4552433732313a206f70657261746f7220717565727920666f72206e6f6e657860408201526b34b9ba32b73a103a37b5b2b760a11b606082015260800190565b60208082526038908201527f4552433732313a20617070726f76652063616c6c6572206973206e6f74206f7760408201527f6e6572206e6f7220617070726f76656420666f7220616c6c0000000000000000606082015260800190565b6020808252602a908201527f4552433732313a2062616c616e636520717565727920666f7220746865207a65604082015269726f206164647265737360b01b606082015260800190565b6020808252818101527f4552433732313a206d696e7420746f20746865207a65726f2061646472657373604082015260600190565b6020808252602c908201527f4552433732313a20617070726f76656420717565727920666f72206e6f6e657860408201526b34b9ba32b73a103a37b5b2b760a11b606082015260800190565b60208082526029908201527f4552433732313a207472616e73666572206f6620746f6b656e2074686174206960408201526839903737ba1037bbb760b91b606082015260800190565b6020808252602f908201527f4552433732314d657461646174613a2055524920717565727920666f72206e6f60408201526e3732bc34b9ba32b73a103a37b5b2b760891b606082015260800190565b60208082526021908201527f4552433732313a20617070726f76616c20746f2063757272656e74206f776e656040820152603960f91b606082015260800190565b60208082526031908201527f4552433732313a207472616e736665722063616c6c6572206973206e6f74206f6040820152701ddb995c881b9bdc88185c1c1c9bdd9959607a1b606082015260800190565b90815260200190565b6000821982111561137f5761137f611445565b500190565b6000826113935761139361145b565b500490565b6000828210156113aa576113aa611445565b500390565b60005b838110156113ca5781810151838201526020016113b2565b838111156105da5750506000910152565b6002810460018216806113ef57607f821691505b6020821081141561141057634e487b7160e01b600052602260045260246000fd5b50919050565b600060001982141561142a5761142a611445565b5060010190565b6000826114405761144061145b565b500690565b634e487b7160e01b600052601160045260246000fd5b634e487b7160e01b600052601260045260246000fd5b634e487b7160e01b600052604160045260246000fd5b6001600160e01b0319811681146107c557600080fdfea2646970667358221220edf4a9040258628ef0b31f59ffe338659908d36b8979b579b6b7edf4e06dba9264736f6c63430008000033",
  "linkReferences": {},
  "deployedLinkReferences": {}
}