{
  "_format": "hh-sol-artifact-1",
  "contractName": "BRC721",
  "sourceName": "contracts/bep721/BRC721.sol",
  "abi": [
    {
      "inputs": [
        {
          "internalType": "address",
          "name": "admin_",
          "type": "address"
        },
        {
          "internalType": "string",
          "name": "name_",
          "type": "string"
        },
        {
          "internalType": "string",
          "name": "symbol_",
          "type": "string"
        }
      ],
      "stateMutability": "nonpayable",
      "type": "constructor"
    },
    {
      "anonymous": false,
      "inputs": [
        {
          "indexed": true,
          "internalType": "address",
          "name": "owner",
          "type": "address"
        },
        {
          "indexed": true,
          "internalType": "address",
          "name": "approved",
          "type": "address"
        },
        {
          "indexed": true,
          "internalType": "uint256",
          "name": "tokenId",
          "type": "uint256"
        }
      ],
      "name": "Approval",
      "type": "event"
    },
    {
      "anonymous": false,
      "inputs": [
        {
          "indexed": true,
          "internalType": "address",
          "name": "owner",
          "type": "address"
        },
        {
          "indexed": true,
          "internalType": "address",
          "name": "operator",
          "type": "address"
        },
        {
          "indexed": false,
          "internalType": "bool",
          "name": "approved",
          "type": "bool"
        }
      ],
      "name": "ApprovalForAll",
      "type": "event"
    },
    {
      "anonymous": false,
      "inputs": [
        {
          "indexed": true,
          "internalType": "address",
          "name": "from",
          "type": "address"
        },
        {
          "indexed": true,
          "internalType": "address",
          "name": "to",
          "type": "address"
        },
        {
          "indexed": true,
          "internalType": "uint256",
          "name": "tokenId",
          "type": "uint256"
        }
      ],
      "name": "Transfer",
      "type": "event"
    },
    {
      "inputs": [],
      "name": "admin",
      "outputs": [
        {
          "internalType": "address",
          "name": "",
          "type": "address"
        }
      ],
      "stateMutability": "view",
      "type": "function"
    },
    {
      "inputs": [
        {
          "internalType": "address",
          "name": "to",
          "type": "address"
        },
        {
          "internalType": "uint256",
          "name": "tokenId",
          "type": "uint256"
        }
      ],
      "name": "approve",
      "outputs": [],
      "stateMutability": "nonpayable",
      "type": "function"
    },
    {
      "inputs": [
        {
          "internalType": "address",
          "name": "owner",
          "type": "address"
        }
      ],
      "name": "balanceOf",
      "outputs": [
        {
          "internalType": "uint256",
          "name": "",
          "type": "uint256"
        }
      ],
      "stateMutability": "view",
      "type": "function"
    },
    {
      "inputs": [
        {
          "internalType": "uint256",
          "name": "tokenId",
          "type": "uint256"
        }
      ],
      "name": "getApproved",
      "outputs": [
        {
          "internalType": "address",
          "name": "",
          "type": "address"
        }
      ],
      "stateMutability": "view",
      "type": "function"
    },
    {
      "inputs": [
        {
          "internalType": "address",
          "name": "owner",
          "type": "address"
        },
        {
          "internalType": "address",
          "name": "operator",
          "type": "address"
        }
      ],
      "name": "isApprovedForAll",
      "outputs": [
        {
          "internalType": "bool",
          "name": "",
          "type": "bool"
        }
      ],
      "stateMutability": "view",
      "type": "function"
    },
    {
      "inputs": [],
      "name": "name",
      "outputs": [
        {
          "internalType": "string",
          "name": "",
          "type": "string"
        }
      ],
      "stateMutability": "view",
      "type": "function"
    },
    {
      "inputs": [
        {
          "internalType": "uint256",
          "name": "tokenId",
          "type": "uint256"
        }
      ],
      "name": "ownerOf",
      "outputs": [
        {
          "internalType": "address",
          "name": "",
          "type": "address"
        }
      ],
      "stateMutability": "view",
      "type": "function"
    },
    {
      "inputs": [
        {
          "internalType": "address",
          "name": "from",
          "type": "address"
        },
        {
          "internalType": "address",
          "name": "to",
          "type": "address"
        },
        {
          "internalType": "uint256",
          "name": "tokenId",
          "type": "uint256"
        }
      ],
      "name": "safeTransferFrom",
      "outputs": [],
      "stateMutability": "nonpayable",
      "type": "function"
    },
    {
      "inputs": [
        {
          "internalType": "address",
          "name": "from",
          "type": "address"
        },
        {
          "internalType": "address",
          "name": "to",
          "type": "address"
        },
        {
          "internalType": "uint256",
          "name": "tokenId",
          "type": "uint256"
        },
        {
          "internalType": "bytes",
          "name": "_data",
          "type": "bytes"
        }
      ],
      "name": "safeTransferFrom",
      "outputs": [],
      "stateMutability": "nonpayable",
      "type": "function"
    },
    {
      "inputs": [
        {
          "internalType": "address",
          "name": "operator",
          "type": "address"
        },
        {
          "internalType": "bool",
          "name": "approved",
          "type": "bool"
        }
      ],
      "name": "setApprovalForAll",
      "outputs": [],
      "stateMutability": "nonpayable",
      "type": "function"
    },
    {
      "inputs": [
        {
          "internalType": "bytes4",
          "name": "interfaceId",
          "type": "bytes4"
        }
      ],
      "name": "supportsInterface",
      "outputs": [
        {
          "internalType": "bool",
          "name": "",
          "type": "bool"
        }
      ],
      "stateMutability": "view",
      "type": "function"
    },
    {
      "inputs": [],
      "name": "symbol",
      "outputs": [
        {
          "internalType": "string",
          "name": "",
          "type": "string"
        }
      ],
      "stateMutability": "view",
      "type": "function"
    },
    {
      "inputs": [
        {
          "internalType": "uint256",
          "name": "tokenId",
          "type": "uint256"
        }
      ],
      "name": "tokenURI",
      "outputs": [
        {
          "internalType": "string",
          "name": "",
          "type": "string"
        }
      ],
      "stateMutability": "view",
      "type": "function"
    },
    {
      "inputs": [
        {
          "internalType": "address",
          "name": "from",
          "type": "address"
        },
        {
          "internalType": "address",
          "name": "to",
          "type": "address"
        },
        {
          "internalType": "uint256",
          "name": "tokenId",
          "type": "uint256"
        }
      ],
      "name": "transferFrom",
      "outputs": [],
      "stateMutability": "nonpayable",
      "type": "function"
    }
  ],
  "bytecode": "0x60a06040523480156200001157600080fd5b5060405162001703380380620017038339810160408190526200003491620001d4565b6001600160601b0319606084901b1660805281516200005b9060009060208501906200007b565b508051620000719060019060208401906200007b565b50505050620002ad565b82805462000089906200025a565b90600052602060002090601f016020900481019282620000ad5760008555620000f8565b82601f10620000c857805160ff1916838001178555620000f8565b82800160010185558215620000f8579182015b82811115620000f8578251825591602001919060010190620000db565b50620001069291506200010a565b5090565b5b808211156200010657600081556001016200010b565b600082601f83011262000132578081fd5b81516001600160401b03808211156200014f576200014f62000297565b604051601f8301601f19908116603f011681019082821181831017156200017a576200017a62000297565b8160405283815260209250868385880101111562000196578485fd5b8491505b83821015620001b957858201830151818301840152908201906200019a565b83821115620001ca57848385830101525b9695505050505050565b600080600060608486031215620001e9578283fd5b83516001600160a01b038116811462000200578384fd5b60208501519093506001600160401b03808211156200021d578384fd5b6200022b8783880162000121565b9350604086015191508082111562000241578283fd5b50620002508682870162000121565b9150509250925092565b6002810460018216806200026f57607f821691505b602082108114156200029157634e487b7160e01b600052602260045260246000fd5b50919050565b634e487b7160e01b600052604160045260246000fd5b60805160601c611422620002e16000396000818161024501528181610573015281816108a401526108eb01526114226000f3fe608060405234801561001057600080fd5b50600436106100ea5760003560e01c806370a082311161008c578063b88d4fde11610066578063b88d4fde146101e1578063c87b56dd146101f4578063e985e9c514610207578063f851a44014610243576100ea565b806370a08231146101a557806395d89b41146101c6578063a22cb465146101ce576100ea565b8063095ea7b3116100c8578063095ea7b31461015757806323b872dd1461016c57806342842e0e1461017f5780636352211e14610192576100ea565b806301ffc9a7146100ef57806306fdde0314610117578063081812fc1461012c575b600080fd5b6101026100fd36600461111d565b610269565b60405190151581526020015b60405180910390f35b61011f6102bd565b60405161010e9190611205565b61013f61013a366004611155565b61034f565b6040516001600160a01b03909116815260200161010e565b61016a6101653660046110f4565b6103e9565b005b61016a61017a366004610faa565b6104ff565b61016a61018d366004610faa565b610539565b61013f6101a0366004611155565b610554565b6101b86101b3366004610f5e565b61059a565b60405190815260200161010e565b61011f610621565b61016a6101dc3660046110ba565b610630565b61016a6101ef366004610fe5565b610702565b61011f610202366004611155565b610743565b610102610215366004610f78565b6001600160a01b03918216600090815260056020908152604080832093909416825291909152205460ff1690565b7f000000000000000000000000000000000000000000000000000000000000000061013f565b60006001600160e01b031982166380ac58cd60e01b148061029a57506001600160e01b03198216635b5e139f60e01b145b806102b557506301ffc9a760e01b6001600160e01b03198316145b90505b919050565b6060600080546102cc9061132a565b80601f01602080910402602001604051908101604052809291908181526020018280546102f89061132a565b80156103455780601f1061031a57610100808354040283529160200191610345565b820191906000526020600020905b81548152906001019060200180831161032857829003601f168201915b5050505050905090565b6000818152600260205260408120546001600160a01b03166103cd5760405162461bcd60e51b815260206004820152602c60248201527f4552433732313a20617070726f76656420717565727920666f72206e6f6e657860448201526b34b9ba32b73a103a37b5b2b760a11b60648201526084015b60405180910390fd5b506000908152600460205260409020546001600160a01b031690565b60006103f482610554565b9050806001600160a01b0316836001600160a01b031614156104625760405162461bcd60e51b815260206004820152602160248201527f4552433732313a20617070726f76616c20746f2063757272656e74206f776e656044820152603960f91b60648201526084016103c4565b336001600160a01b038216148061047e575061047e8133610215565b6104f05760405162461bcd60e51b815260206004820152603860248201527f4552433732313a20617070726f76652063616c6c6572206973206e6f74206f7760448201527f6e6572206e6f7220617070726f76656420666f7220616c6c000000000000000060648201526084016103c4565b6104fa838361082b565b505050565b61050881610899565b6105123382610913565b61052e5760405162461bcd60e51b81526004016103c49061126a565b6104fa838383610a0a565b6104fa83838360405180602001604052806000815250610702565b6000818152600260205260408120546001600160a01b0316806102b5577f00000000000000000000000000000000000000000000000000000000000000009150506102b8565b60006001600160a01b0382166106055760405162461bcd60e51b815260206004820152602a60248201527f4552433732313a2062616c616e636520717565727920666f7220746865207a65604482015269726f206164647265737360b01b60648201526084016103c4565b506001600160a01b031660009081526003602052604090205490565b6060600180546102cc9061132a565b6001600160a01b0382163314156106895760405162461bcd60e51b815260206004820152601960248201527f4552433732313a20617070726f766520746f2063616c6c65720000000000000060448201526064016103c4565b3360008181526005602090815260408083206001600160a01b0387168085529252909120805460ff1916841515179055906001600160a01b03167f17307eab39ab6107e8899845ad3d59bd9653f200f220920489ca2b5937696c31836040516106f6911515815260200190565b60405180910390a35050565b61070b82610899565b6107153383610913565b6107315760405162461bcd60e51b81526004016103c49061126a565b61073d84848484610baa565b50505050565b6000818152600260205260409020546060906001600160a01b03166107c25760405162461bcd60e51b815260206004820152602f60248201527f4552433732314d657461646174613a2055524920717565727920666f72206e6f60448201526e3732bc34b9ba32b73a103a37b5b2b760891b60648201526084016103c4565b60006107d960408051602081019091526000815290565b905060008151116107f95760405180602001604052806000815250610824565b8061080384610bdd565b604051602001610814929190611199565b6040516020818303038152906040525b9392505050565b600081815260046020526040902080546001600160a01b0319166001600160a01b038416908117909155819061086082610554565b6001600160a01b03167f8c5be1e5ebec7d5bd14f71427d1e84f3dd0314c0f7b2291e5b200ac8c7c3b92560405160405180910390a45050565b336001600160a01b037f0000000000000000000000000000000000000000000000000000000000000000161415610910576000818152600260205260409020546001600160a01b0316610910576109107f000000000000000000000000000000000000000000000000000000000000000082610cf8565b50565b6000818152600260205260408120546001600160a01b031661098c5760405162461bcd60e51b815260206004820152602c60248201527f4552433732313a206f70657261746f7220717565727920666f72206e6f6e657860448201526b34b9ba32b73a103a37b5b2b760a11b60648201526084016103c4565b600061099783610554565b9050806001600160a01b0316846001600160a01b031614806109d25750836001600160a01b03166109c78461034f565b6001600160a01b0316145b80610a0257506001600160a01b0380821660009081526005602090815260408083209388168352929052205460ff165b949350505050565b826001600160a01b0316610a1d82610554565b6001600160a01b031614610a855760405162461bcd60e51b815260206004820152602960248201527f4552433732313a207472616e73666572206f6620746f6b656e2074686174206960448201526839903737ba1037bbb760b91b60648201526084016103c4565b6001600160a01b038216610ae75760405162461bcd60e51b8152602060048201526024808201527f4552433732313a207472616e7366657220746f20746865207a65726f206164646044820152637265737360e01b60648201526084016103c4565b610af260008261082b565b6001600160a01b0383166000908152600360205260408120805460019290610b1b9084906112e7565b90915550506001600160a01b0382166000908152600360205260408120805460019290610b499084906112bb565b909155505060008181526002602052604080822080546001600160a01b0319166001600160a01b0386811691821790925591518493918716917fddf252ad1be2c89b69c2b068fc378daa952ba7f163c4a11628f55a4df523b3ef91a4505050565b610bb5848484610a0a565b610bc184848484610e3a565b61073d5760405162461bcd60e51b81526004016103c490611218565b606081610c0257506040805180820190915260018152600360fc1b60208201526102b8565b8160005b8115610c2c5780610c1681611365565b9150610c259050600a836112d3565b9150610c06565b60008167ffffffffffffffff811115610c5557634e487b7160e01b600052604160045260246000fd5b6040519080825280601f01601f191660200182016040528015610c7f576020820181803683370190505b5090505b8415610a0257610c946001836112e7565b9150610ca1600a86611380565b610cac9060306112bb565b60f81b818381518110610ccf57634e487b7160e01b600052603260045260246000fd5b60200101906001600160f81b031916908160001a905350610cf1600a866112d3565b9450610c83565b6001600160a01b038216610d4e5760405162461bcd60e51b815260206004820181905260248201527f4552433732313a206d696e7420746f20746865207a65726f206164647265737360448201526064016103c4565b6000818152600260205260409020546001600160a01b031615610db35760405162461bcd60e51b815260206004820152601c60248201527f4552433732313a20746f6b656e20616c7265616479206d696e7465640000000060448201526064016103c4565b6001600160a01b0382166000908152600360205260408120805460019290610ddc9084906112bb565b909155505060008181526002602052604080822080546001600160a01b0319166001600160a01b03861690811790915590518392907fddf252ad1be2c89b69c2b068fc378daa952ba7f163c4a11628f55a4df523b3ef908290a45050565b60006001600160a01b0384163b15610f3c57604051630a85bd0160e11b81526001600160a01b0385169063150b7a0290610e7e9033908990889088906004016111c8565b602060405180830381600087803b158015610e9857600080fd5b505af1925050508015610ec8575060408051601f3d908101601f19168201909252610ec591810190611139565b60015b610f22573d808015610ef6576040519150601f19603f3d011682016040523d82523d6000602084013e610efb565b606091505b508051610f1a5760405162461bcd60e51b81526004016103c490611218565b805181602001fd5b6001600160e01b031916630a85bd0160e11b149050610a02565b506001949350505050565b80356001600160a01b03811681146102b857600080fd5b600060208284031215610f6f578081fd5b61082482610f47565b60008060408385031215610f8a578081fd5b610f9383610f47565b9150610fa160208401610f47565b90509250929050565b600080600060608486031215610fbe578081fd5b610fc784610f47565b9250610fd560208501610f47565b9150604084013590509250925092565b60008060008060808587031215610ffa578081fd5b61100385610f47565b935061101160208601610f47565b925060408501359150606085013567ffffffffffffffff80821115611034578283fd5b818701915087601f830112611047578283fd5b813581811115611059576110596113c0565b604051601f8201601f19908116603f01168101908382118183101715611081576110816113c0565b816040528281528a6020848701011115611099578586fd5b82602086016020830137918201602001949094529598949750929550505050565b600080604083850312156110cc578182fd5b6110d583610f47565b9150602083013580151581146110e9578182fd5b809150509250929050565b60008060408385031215611106578182fd5b61110f83610f47565b946020939093013593505050565b60006020828403121561112e578081fd5b8135610824816113d6565b60006020828403121561114a578081fd5b8151610824816113d6565b600060208284031215611166578081fd5b5035919050565b600081518084526111858160208601602086016112fe565b601f01601f19169290920160200192915050565b600083516111ab8184602088016112fe565b8351908301906111bf8183602088016112fe565b01949350505050565b6001600160a01b03858116825284166020820152604081018390526080606082018190526000906111fb9083018461116d565b9695505050505050565b600060208252610824602083018461116d565b60208082526032908201527f4552433732313a207472616e7366657220746f206e6f6e20455243373231526560408201527131b2b4bb32b91034b6b83632b6b2b73a32b960711b606082015260800190565b60208082526031908201527f4552433732313a207472616e736665722063616c6c6572206973206e6f74206f6040820152701ddb995c881b9bdc88185c1c1c9bdd9959607a1b606082015260800190565b600082198211156112ce576112ce611394565b500190565b6000826112e2576112e26113aa565b500490565b6000828210156112f9576112f9611394565b500390565b60005b83811015611319578181015183820152602001611301565b8381111561073d5750506000910152565b60028104600182168061133e57607f821691505b6020821081141561135f57634e487b7160e01b600052602260045260246000fd5b50919050565b600060001982141561137957611379611394565b5060010190565b60008261138f5761138f6113aa565b500690565b634e487b7160e01b600052601160045260246000fd5b634e487b7160e01b600052601260045260246000fd5b634e487b7160e01b600052604160045260246000fd5b6001600160e01b03198116811461091057600080fdfea264697066735822122000ff0276ac6644aaf9b187d186ba181c80052ae76a3ffc282484c4f3ab09172d64736f6c63430008020033",
  "linkReferences": {},
  "deployedLinkReferences": {}
}