{
  "_format": "hh-sol-artifact-1",
  "contractName": "MarketplaceV3",
  "sourceName": "contracts/MarketplaceV3.sol",
  "abi": [
    {
      "anonymous": false,
      "inputs": [
        {
          "indexed": false,
          "internalType": "address",
          "name": "previousAdmin",
          "type": "address"
        },
        {
          "indexed": false,
          "internalType": "address",
          "name": "newAdmin",
          "type": "address"
        }
      ],
      "name": "AdminChanged",
      "type": "event"
    },
    {
      "anonymous": false,
      "inputs": [
        {
          "indexed": true,
          "internalType": "address",
          "name": "beacon",
          "type": "address"
        }
      ],
      "name": "BeaconUpgraded",
      "type": "event"
    },
    {
      "anonymous": false,
      "inputs": [
        {
          "indexed": true,
          "internalType": "uint256",
          "name": "itemId",
          "type": "uint256"
        }
      ],
      "name": "MarketItemCancelled",
      "type": "event"
    },
    {
      "anonymous": false,
      "inputs": [
        {
          "indexed": true,
          "internalType": "uint256",
          "name": "itemId",
          "type": "uint256"
        },
        {
          "indexed": true,
          "internalType": "address",
          "name": "nftContract",
          "type": "address"
        },
        {
          "indexed": true,
          "internalType": "uint256",
          "name": "tokenId",
          "type": "uint256"
        },
        {
          "indexed": false,
          "internalType": "address",
          "name": "seller",
          "type": "address"
        },
        {
          "indexed": false,
          "internalType": "uint256",
          "name": "price",
          "type": "uint256"
        },
        {
          "indexed": false,
          "internalType": "uint256",
          "name": "listingPrice",
          "type": "uint256"
        }
      ],
      "name": "MarketItemCreated",
      "type": "event"
    },
    {
      "anonymous": false,
      "inputs": [
        {
          "indexed": true,
          "internalType": "uint256",
          "name": "itemId",
          "type": "uint256"
        }
      ],
      "name": "MarketItemSold",
      "type": "event"
    },
    {
      "anonymous": false,
      "inputs": [
        {
          "indexed": true,
          "internalType": "address",
          "name": "previousOwner",
          "type": "address"
        },
        {
          "indexed": true,
          "internalType": "address",
          "name": "newOwner",
          "type": "address"
        }
      ],
      "name": "OwnershipTransferred",
      "type": "event"
    },
    {
      "anonymous": false,
      "inputs": [
        {
          "indexed": true,
          "internalType": "address",
          "name": "implementation",
          "type": "address"
        }
      ],
      "name": "Upgraded",
      "type": "event"
    },
    {
      "inputs": [
        {
          "internalType": "uint256",
          "name": "itemId",
          "type": "uint256"
        }
      ],
      "name": "cancelMarketItem",
      "outputs": [],
      "stateMutability": "nonpayable",
      "type": "function"
    },
    {
      "inputs": [
        {
          "internalType": "address",
          "name": "nftContractAddress",
          "type": "address"
        },
        {
          "internalType": "uint256",
          "name": "tokenId",
          "type": "uint256"
        },
        {
          "internalType": "uint256",
          "name": "price",
          "type": "uint256"
        }
      ],
      "name": "createMarketItem",
      "outputs": [],
      "stateMutability": "payable",
      "type": "function"
    },
    {
      "inputs": [
        {
          "internalType": "uint256",
          "name": "itemId",
          "type": "uint256"
        }
      ],
      "name": "createMarketSale",
      "outputs": [],
      "stateMutability": "payable",
      "type": "function"
    },
    {
      "inputs": [
        {
          "internalType": "address",
          "name": "nftContractAddress",
          "type": "address"
        },
        {
          "internalType": "uint256",
          "name": "tokenId",
          "type": "uint256"
        }
      ],
      "name": "fetchMarketItem",
      "outputs": [
        {
          "components": [
            {
              "internalType": "uint256",
              "name": "itemId",
              "type": "uint256"
            },
            {
              "internalType": "address",
              "name": "nftContract",
              "type": "address"
            },
            {
              "internalType": "uint256",
              "name": "tokenId",
              "type": "uint256"
            },
            {
              "internalType": "address payable",
              "name": "seller",
              "type": "address"
            },
            {
              "internalType": "address payable",
              "name": "owner",
              "type": "address"
            },
            {
              "internalType": "uint256",
              "name": "price",
              "type": "uint256"
            },
            {
              "internalType": "uint256",
              "name": "listingPrice",
              "type": "uint256"
            },
            {
              "internalType": "bool",
              "name": "cancelled",
              "type": "bool"
            }
          ],
          "internalType": "struct Marketplace.MarketItem",
          "name": "",
          "type": "tuple"
        }
      ],
      "stateMutability": "view",
      "type": "function"
    },
    {
      "inputs": [],
      "name": "fetchMarketItems",
      "outputs": [
        {
          "components": [
            {
              "internalType": "uint256",
              "name": "itemId",
              "type": "uint256"
            },
            {
              "internalType": "address",
              "name": "nftContract",
              "type": "address"
            },
            {
              "internalType": "uint256",
              "name": "tokenId",
              "type": "uint256"
            },
            {
              "internalType": "address payable",
              "name": "seller",
              "type": "address"
            },
            {
              "internalType": "address payable",
              "name": "owner",
              "type": "address"
            },
            {
              "internalType": "uint256",
              "name": "price",
              "type": "uint256"
            },
            {
              "internalType": "uint256",
              "name": "listingPrice",
              "type": "uint256"
            },
            {
              "internalType": "bool",
              "name": "cancelled",
              "type": "bool"
            }
          ],
          "internalType": "struct Marketplace.MarketItem[]",
          "name": "",
          "type": "tuple[]"
        }
      ],
      "stateMutability": "view",
      "type": "function"
    },
    {
      "inputs": [],
      "name": "fetchMyNFTs",
      "outputs": [
        {
          "components": [
            {
              "internalType": "uint256",
              "name": "itemId",
              "type": "uint256"
            },
            {
              "internalType": "address",
              "name": "nftContract",
              "type": "address"
            },
            {
              "internalType": "uint256",
              "name": "tokenId",
              "type": "uint256"
            },
            {
              "internalType": "address payable",
              "name": "seller",
              "type": "address"
            },
            {
              "internalType": "address payable",
              "name": "owner",
              "type": "address"
            },
            {
              "internalType": "uint256",
              "name": "price",
              "type": "uint256"
            },
            {
              "internalType": "uint256",
              "name": "listingPrice",
              "type": "uint256"
            },
            {
              "internalType": "bool",
              "name": "cancelled",
              "type": "bool"
            }
          ],
          "internalType": "struct Marketplace.MarketItem[]",
          "name": "",
          "type": "tuple[]"
        }
      ],
      "stateMutability": "view",
      "type": "function"
    },
    {
      "inputs": [],
      "name": "getListingPrice",
      "outputs": [
        {
          "internalType": "uint256",
          "name": "",
          "type": "uint256"
        }
      ],
      "stateMutability": "view",
      "type": "function"
    },
    {
      "inputs": [
        {
          "internalType": "uint256",
          "name": "marketItemId",
          "type": "uint256"
        }
      ],
      "name": "getMarketItem",
      "outputs": [
        {
          "components": [
            {
              "internalType": "uint256",
              "name": "itemId",
              "type": "uint256"
            },
            {
              "internalType": "address",
              "name": "nftContract",
              "type": "address"
            },
            {
              "internalType": "uint256",
              "name": "tokenId",
              "type": "uint256"
            },
            {
              "internalType": "address payable",
              "name": "seller",
              "type": "address"
            },
            {
              "internalType": "address payable",
              "name": "owner",
              "type": "address"
            },
            {
              "internalType": "uint256",
              "name": "price",
              "type": "uint256"
            },
            {
              "internalType": "uint256",
              "name": "listingPrice",
              "type": "uint256"
            },
            {
              "internalType": "bool",
              "name": "cancelled",
              "type": "bool"
            }
          ],
          "internalType": "struct Marketplace.MarketItem",
          "name": "",
          "type": "tuple"
        }
      ],
      "stateMutability": "view",
      "type": "function"
    },
    {
      "inputs": [],
      "name": "initialize",
      "outputs": [],
      "stateMutability": "nonpayable",
      "type": "function"
    },
    {
      "inputs": [],
      "name": "owner",
      "outputs": [
        {
          "internalType": "address",
          "name": "",
          "type": "address"
        }
      ],
      "stateMutability": "view",
      "type": "function"
    },
    {
      "inputs": [],
      "name": "renounceOwnership",
      "outputs": [],
      "stateMutability": "nonpayable",
      "type": "function"
    },
    {
      "inputs": [
        {
          "internalType": "uint256",
          "name": "_listingPrice",
          "type": "uint256"
        }
      ],
      "name": "setListingPrice",
      "outputs": [],
      "stateMutability": "nonpayable",
      "type": "function"
    },
    {
      "inputs": [
        {
          "internalType": "address",
          "name": "newOwner",
          "type": "address"
        }
      ],
      "name": "transferOwnership",
      "outputs": [],
      "stateMutability": "nonpayable",
      "type": "function"
    },
    {
      "inputs": [
        {
          "internalType": "address",
          "name": "newImplementation",
          "type": "address"
        }
      ],
      "name": "upgradeTo",
      "outputs": [],
      "stateMutability": "nonpayable",
      "type": "function"
    },
    {
      "inputs": [
        {
          "internalType": "address",
          "name": "newImplementation",
          "type": "address"
        },
        {
          "internalType": "bytes",
          "name": "data",
          "type": "bytes"
        }
      ],
      "name": "upgradeToAndCall",
      "outputs": [],
      "stateMutability": "payable",
      "type": "function"
    },
    {
      "inputs": [],
      "name": "version",
      "outputs": [
        {
          "internalType": "string",
          "name": "",
          "type": "string"
        }
      ],
      "stateMutability": "pure",
      "type": "function"
    }
  ],
  "bytecode": "0x608060405234801561001057600080fd5b506122e7806100206000396000f3fe6080604052600436106100f35760003560e01c8063715018a61161008a578063a6e22b0211610059578063a6e22b021461026e578063be9af5361461028e578063c7be7a49146102a1578063f2fde38b146102c1576100f3565b8063715018a6146101fc5780637c726b69146102115780638129fc1c146102315780638da5cb5b14610246576100f3565b80633659cfe6116100c65780633659cfe6146101835780634f1ef286146101a557806354fd4d50146101b857806358eb2df5146101e9576100f3565b80630f08efe0146100f857806312e8558514610123578063202e3740146101415780632e41f5fa14610156575b600080fd5b34801561010457600080fd5b5061010d6102e1565b60405161011a9190611fda565b60405180910390f35b34801561012f57600080fd5b5060fe5460405190815260200161011a565b34801561014d57600080fd5b5061010d610666565b34801561016257600080fd5b50610176610171366004611ee7565b61086a565b60405161011a91906121c0565b34801561018f57600080fd5b506101a361019e366004611df0565b610bd1565b005b6101a36101b3366004611e28565b610bf8565b3480156101c457600080fd5b506040805180820182526002815261763360f01b6020820152905161011a9190612029565b6101a36101f7366004611f12565b610c11565b34801561020857600080fd5b506101a361106c565b34801561021d57600080fd5b506101a361022c366004611f46565b6110a2565b34801561023d57600080fd5b506101a36110d1565b34801561025257600080fd5b506033546040516001600160a01b03909116815260200161011a565b34801561027a57600080fd5b506101a3610289366004611f46565b611180565b6101a361029c366004611f46565b611444565b3480156102ad57600080fd5b506101766102bc366004611f46565b61168b565b3480156102cd57600080fd5b506101a36102dc366004611df0565b611712565b606060006102ee60fb5490565b905060006102fb60fc5490565b60fb5461030891906121e7565b90506000808267ffffffffffffffff81111561033457634e487b7160e01b600052604160045260246000fd5b60405190808252806020026020018201604052801561036d57816020015b61035a611d8e565b8152602001906001900390816103525790505b50905060005b8481101561065d57600060ff8161038b8460016121cf565b8152602081019190915260400160009081206001908101546001600160a01b031692508290636352211e9060ff9084906103c69088906121cf565b8152602001908152602001600020600201546040518263ffffffff1660e01b81526004016103f691815260200190565b60206040518083038186803b15801561040e57600080fd5b505afa158015610422573d6000803e3d6000fd5b505050506040513d601f19601f820116820180604052508101906104469190611e0c565b905060006001600160a01b03831663081812fc60ff836104678860016121cf565b8152602001908152602001600020600201546040518263ffffffff1660e01b815260040161049791815260200190565b60206040518083038186803b1580156104af57600080fd5b505afa1580156104c3573d6000803e3d6000fd5b505050506040513d601f19601f820116820180604052508101906104e79190611e0c565b9050600060ff816104f98760016121cf565b81526020810191909152604001600020600401546001600160a01b0316148015610550575060ff600061052d8660016121cf565b81526020810191909152604001600020600301546001600160a01b038381169116145b801561056457506001600160a01b03811630145b1561064757600060ff816105798760016121cf565b8152602080820192909252604090810160009081205480825260ff808552918390208351610100810185528154815260018201546001600160a01b039081169682019690965260028201549481019490945260038101548516606085015260048101549094166080840152600584015460a0840152600684015460c08401526007840154909116151560e0830152885190935088908a90811061062c57634e487b7160e01b600052603260045260246000fd5b60209081029190910101526106426001896121cf565b975050505b50505080806106559061222e565b915050610373565b50935050505090565b6060600061067360fb5490565b905060008060005b838110156106d6573360ff60006106938460016121cf565b81526020810191909152604001600020600401546001600160a01b031614156106c4576106c16001846121cf565b92505b806106ce8161222e565b91505061067b565b5060008267ffffffffffffffff81111561070057634e487b7160e01b600052604160045260246000fd5b60405190808252806020026020018201604052801561073957816020015b610726611d8e565b81526020019060019003908161071e5790505b50905060005b8481101561065d573360ff60006107578460016121cf565b81526020810191909152604001600020600401546001600160a01b0316141561085857600060ff8161078a8460016121cf565b8152602080820192909252604090810160009081205480825260ff808552918390208351610100810185528154815260018201546001600160a01b039081169682019690965260028201549481019490945260038101548516606085015260048101549094166080840152600584015460a0840152600684015460c08401526007840154909116151560e0830152855190935085908790811061083d57634e487b7160e01b600052603260045260246000fd5b60209081029190910101526108536001866121cf565b945050505b806108628161222e565b91505061073f565b610872611d8e565b600061087d60fb5490565b9050610887611d8e565b60005b82811015610bc6576001600160a01b03861660ff60006108ab8460016121cf565b81526020810191909152604001600020600101546001600160a01b03161480156108f457508460ff60006108e08460016121cf565b815260200190815260200160002060020154145b801561092a5750600060ff8161090b8460016121cf565b81526020810191909152604001600020600401546001600160a01b0316145b8015610959575060ff60006109408360016121cf565b815260208101919091526040016000206007015460ff16155b15610bb457600060ff8161096e8460016121cf565b8152602081019190915260400160009081206001908101546001600160a01b031692508290636352211e9060ff9084906109a99088906121cf565b8152602001908152602001600020600201546040518263ffffffff1660e01b81526004016109d991815260200190565b60206040518083038186803b1580156109f157600080fd5b505afa158015610a05573d6000803e3d6000fd5b505050506040513d601f19601f82011682018060405250810190610a299190611e0c565b905060006001600160a01b03831663081812fc60ff83610a4a8860016121cf565b8152602001908152602001600020600201546040518263ffffffff1660e01b8152600401610a7a91815260200190565b60206040518083038186803b158015610a9257600080fd5b505afa158015610aa6573d6000803e3d6000fd5b505050506040513d601f19601f82011682018060405250810190610aca9190611e0c565b905060ff6000610adb8660016121cf565b81526020810191909152604001600020600301546001600160a01b038381169116148015610b1157506001600160a01b03811630145b15610bb05760ff6000610b258660016121cf565b815260208082019290925260409081016000208151610100810183528154815260018201546001600160a01b039081169482019490945260028201549281019290925260038101548316606083015260048101549092166080820152600582015460a0820152600682015460c082015260079091015460ff16151560e08201529450610bc692505050565b5050505b80610bbe8161222e565b91505061088a565b509150505b92915050565b610bda816117aa565b610bf5816040518060200160405280600081525060006117d4565b50565b610c01826117aa565b610c0d828260016117d4565b5050565b600260c9541415610c3d5760405162461bcd60e51b8152600401610c3490612189565b60405180910390fd5b600260c9556040516331a9108f60e11b81526004810183905283906000906001600160a01b03831690636352211e9060240160206040518083038186803b158015610c8757600080fd5b505afa158015610c9b573d6000803e3d6000fd5b505050506040513d601f19601f82011682018060405250810190610cbf9190611e0c565b60405163020604bf60e21b8152600481018690529091506000906001600160a01b0384169063081812fc9060240160206040518083038186803b158015610d0557600080fd5b505afa158015610d19573d6000803e3d6000fd5b505050506040513d601f19601f82011682018060405250810190610d3d9190611e0c565b90506001600160a01b0382163314610d675760405162461bcd60e51b8152600401610c34906120c4565b6001600160a01b0381163014610d8f5760405162461bcd60e51b8152600401610c349061205c565b60008411610ddf5760405162461bcd60e51b815260206004820152601c60248201527f5072696365206d757374206265206174206c65617374203120776569000000006044820152606401610c34565b60fe543414610e3c5760405162461bcd60e51b8152602060048201526024808201527f56616c7565206d75737420626520657175616c20746f206c697374696e6720706044820152637269636560e01b6064820152608401610c34565b6000610e48878761086a565b805190915015610e9a5760405162461bcd60e51b815260206004820152601a60248201527f4d61726b6574206974656d20616c7265616479206578697374730000000000006044820152606401610c34565b610ea961010380546001019055565b6000610eb56101035490565b9050604051806101000160405280828152602001896001600160a01b03168152602001888152602001336001600160a01b0316815260200160006001600160a01b0316815260200187815260200160fe5481526020016000151581525061010560008381526020019081526020016000206000820151816000015560208201518160010160006101000a8154816001600160a01b0302191690836001600160a01b031602179055506040820151816002015560608201518160030160006101000a8154816001600160a01b0302191690836001600160a01b0316021790555060808201518160040160006101000a8154816001600160a01b0302191690836001600160a01b0316021790555060a0820151816005015560c0820151816006015560e08201518160070160006101000a81548160ff02191690831515021790555090505086886001600160a01b0316827f0577ba4f9e422b352c9a2a6dcafa535fe95af69d985d741e4af739183532ffb4338a60fe54604051611055939291906001600160a01b039390931683526020830191909152604082015260600190565b60405180910390a45050600160c955505050505050565b6033546001600160a01b031633146110965760405162461bcd60e51b8152600401610c3490612154565b6110a0600061195c565b565b6033546001600160a01b031633146110cc5760405162461bcd60e51b8152600401610c3490612154565b60fe55565b600054610100900460ff16806110ea575060005460ff16155b6111065760405162461bcd60e51b8152600401610c3490612106565b600054610100900460ff16158015611131576000805460ff1961ff0019909116610100171660011790555b6111396119ae565b611141611a32565b60fd80546001600160a01b03191673768532c218f4f4e6e4960ceea7f5a7a947a1dd61179055600060fe558015610bf5576000805461ff001916905550565b600260c95414156111a35760405162461bcd60e51b8152600401610c3490612189565b600260c955600081815260ff6020819052604090912060070154161561120b5760405162461bcd60e51b815260206004820181905260248201527f4d61726b6574206974656d20697320616c72656164792063616e63656c6c65646044820152606401610c34565b600081815260ff6020526040808220600181015460029091015491516331a9108f60e11b815260048101929092526001600160a01b031691908290636352211e9060240160206040518083038186803b15801561126757600080fd5b505afa15801561127b573d6000803e3d6000fd5b505050506040513d601f19601f8201168201806040525081019061129f9190611e0c565b600084815260ff602052604080822060020154905163020604bf60e21b81526004810191909152919250906001600160a01b0384169063081812fc9060240160206040518083038186803b1580156112f657600080fd5b505afa15801561130a573d6000803e3d6000fd5b505050506040513d601f19601f8201168201806040525081019061132e9190611e0c565b600085815260ff60205260409020600301549091506001600160a01b03838116911614801561136557506001600160a01b03821633145b6113815760405162461bcd60e51b8152600401610c34906120c4565b6001600160a01b03811630146113a95760405162461bcd60e51b8152600401610c349061205c565b600084815260ff6020526040902060078101805460ff19166001179055600601541561140e57600084815260ff6020526040808220600601549051339282156108fc02929190818181858888f1935050505015801561140c573d6000803e3d6000fd5b505b60405184907fb44d5981f3bd81a0185dad0967e03df817142f923e4b93a322e68f34ec23cba990600090a25050600160c9555050565b600260c95414156114675760405162461bcd60e51b8152600401610c3490612189565b600260c9819055600082815260ff6020526040902060058101549101543482146114fb576040805162461bcd60e51b81526020600482015260248101919091527f506c65617365207375626d6974207468652061736b696e67207072696365206960448201527f6e206f7264657220746f20636f6d706c657465207468652070757263686173656064820152608401610c34565b600083815260ff60205260408082206003015490516001600160a01b03909116913480156108fc02929091818181858888f19350505050158015611543573d6000803e3d6000fd5b50600083815260ff602052604090819020600181015460039091015491516323b872dd60e01b81526001600160a01b039283166004820152336024820152604481018490529116906323b872dd90606401600060405180830381600087803b1580156115ae57600080fd5b505af11580156115c2573d6000803e3d6000fd5b505050600084815260ff6020526040902060040180546001600160a01b03191633179055506115f560fc80546001019055565b600083815260ff6020526040902060060154156116565760fd54600084815260ff60205260408082206006015490516001600160a01b039093169281156108fc0292818181858888f19350505050158015611654573d6000803e3d6000fd5b505b60405183907f5edde87e7efe9511fd280717315e9a4c5f46a6a84becfc74084b59e48154084490600090a25050600160c95550565b611693611d8e565b50600090815260ff60208181526040928390208351610100810185528154815260018201546001600160a01b039081169382019390935260028201549481019490945260038101548216606085015260048101549091166080840152600581015460a0840152600681015460c08401526007015416151560e082015290565b6033546001600160a01b0316331461173c5760405162461bcd60e51b8152600401610c3490612154565b6001600160a01b0381166117a15760405162461bcd60e51b815260206004820152602660248201527f4f776e61626c653a206e6577206f776e657220697320746865207a65726f206160448201526564647265737360d01b6064820152608401610c34565b610bf58161195c565b6033546001600160a01b03163314610bf55760405162461bcd60e51b8152600401610c3490612154565b60006118077f360894a13ba1a3210667c828492db98dca3e2076cc3735a920a3ca505d382bbc546001600160a01b031690565b905061181284611aa2565b60008351118061181f5750815b156118305761182e8484611b47565b505b7f4910fdfa16fed3260ed0e7147f7cc6da11a60208b5b9406d12a635614ffd9143805460ff1661195557805460ff191660011781556040516001600160a01b03831660248201526118af90869060440160408051601f198184030181529190526020810180516001600160e01b0316631b2ce7f360e11b179052611b47565b50805460ff191681557f360894a13ba1a3210667c828492db98dca3e2076cc3735a920a3ca505d382bbc546001600160a01b0383811691161461194c5760405162461bcd60e51b815260206004820152602f60248201527f45524331393637557067726164653a207570677261646520627265616b73206660448201526e75727468657220757067726164657360881b6064820152608401610c34565b61195585611c32565b5050505050565b603380546001600160a01b038381166001600160a01b0319831681179093556040519116919082907f8be0079c531659141344cd1fd0a4f28419497f9722a3daafe3b4186f6b6457e090600090a35050565b600054610100900460ff16806119c7575060005460ff16155b6119e35760405162461bcd60e51b8152600401610c3490612106565b600054610100900460ff16158015611a0e576000805460ff1961ff0019909116610100171660011790555b611a16611c72565b611a1e611ce5565b8015610bf5576000805461ff001916905550565b600054610100900460ff1680611a4b575060005460ff16155b611a675760405162461bcd60e51b8152600401610c3490612106565b600054610100900460ff16158015611a92576000805460ff1961ff0019909116610100171660011790555b611a9a611c72565b611a1e611c72565b803b611b065760405162461bcd60e51b815260206004820152602d60248201527f455243313936373a206e657720696d706c656d656e746174696f6e206973206e60448201526c1bdd08184818dbdb9d1c9858dd609a1b6064820152608401610c34565b7f360894a13ba1a3210667c828492db98dca3e2076cc3735a920a3ca505d382bbc80546001600160a01b0319166001600160a01b0392909216919091179055565b6060823b611ba65760405162461bcd60e51b815260206004820152602660248201527f416464726573733a2064656c65676174652063616c6c20746f206e6f6e2d636f6044820152651b9d1c9858dd60d21b6064820152608401610c34565b600080846001600160a01b031684604051611bc19190611fbe565b600060405180830381855af49150503d8060008114611bfc576040519150601f19603f3d011682016040523d82523d6000602084013e611c01565b606091505b5091509150611c29828260405180606001604052806027815260200161228b60279139611d4e565b95945050505050565b611c3b81611aa2565b6040516001600160a01b038216907fbc7cd75a20ee27fd9adebab32041f755214dbc6bffa90cc0225b39da2e5c2d3b90600090a250565b600054610100900460ff1680611c8b575060005460ff16155b611ca75760405162461bcd60e51b8152600401610c3490612106565b600054610100900460ff16158015611a1e576000805460ff1961ff0019909116610100171660011790558015610bf5576000805461ff001916905550565b600054610100900460ff1680611cfe575060005460ff16155b611d1a5760405162461bcd60e51b8152600401610c3490612106565b600054610100900460ff16158015611d45576000805460ff1961ff0019909116610100171660011790555b611a1e3361195c565b60608315611d5d575081611d87565b825115611d6d5782518084602001fd5b8160405162461bcd60e51b8152600401610c349190612029565b9392505050565b6040518061010001604052806000815260200160006001600160a01b031681526020016000815260200160006001600160a01b0316815260200160006001600160a01b0316815260200160008152602001600081526020016000151581525090565b600060208284031215611e01578081fd5b8135611d8781612275565b600060208284031215611e1d578081fd5b8151611d8781612275565b60008060408385031215611e3a578081fd5b8235611e4581612275565b9150602083013567ffffffffffffffff80821115611e61578283fd5b818501915085601f830112611e74578283fd5b813581811115611e8657611e8661225f565b604051601f8201601f19908116603f01168101908382118183101715611eae57611eae61225f565b81604052828152886020848701011115611ec6578586fd5b82602086016020830137856020848301015280955050505050509250929050565b60008060408385031215611ef9578182fd5b8235611f0481612275565b946020939093013593505050565b600080600060608486031215611f26578081fd5b8335611f3181612275565b95602085013595506040909401359392505050565b600060208284031215611f57578081fd5b5035919050565b80518252602081015160018060a01b03808216602085015260408301516040850152806060840151166060850152806080840151166080850152505060a081015160a083015260c081015160c083015260e0810151151560e08301525050565b60008251611fd08184602087016121fe565b9190910192915050565b6020808252825182820181905260009190848201906040850190845b8181101561201d57612009838551611f5e565b928401926101009290920191600101611ff6565b50909695505050505050565b60006020825282518060208401526120488160408501602087016121fe565b601f01601f19169190910160400192915050565b60208082526042908201527f596f75206d7573742067697665207065726d697373696f6e20666f722074686960408201527f73206d61726b6574706c61636520746f2061636365737320796f757220746f6b60608201526132b760f11b608082015260a00190565b60208082526022908201527f596f75206d75737420626520746865206f776e6572206f662074686520746f6b60408201526132b760f11b606082015260800190565b6020808252602e908201527f496e697469616c697a61626c653a20636f6e747261637420697320616c72656160408201526d191e481a5b9a5d1a585b1a5e995960921b606082015260800190565b6020808252818101527f4f776e61626c653a2063616c6c6572206973206e6f7420746865206f776e6572604082015260600190565b6020808252601f908201527f5265656e7472616e637947756172643a207265656e7472616e742063616c6c00604082015260600190565b6101008101610bcb8284611f5e565b600082198211156121e2576121e2612249565b500190565b6000828210156121f9576121f9612249565b500390565b60005b83811015612219578181015183820152602001612201565b83811115612228576000848401525b50505050565b600060001982141561224257612242612249565b5060010190565b634e487b7160e01b600052601160045260246000fd5b634e487b7160e01b600052604160045260246000fd5b6001600160a01b0381168114610bf557600080fdfe416464726573733a206c6f772d6c6576656c2064656c65676174652063616c6c206661696c6564a2646970667358221220307646e9ccc3cd07976b15ac58e650192e63c52040e67457648081d116fc019864736f6c63430008020033",
  "linkReferences": {},
  "deployedLinkReferences": {}
}