{
  "_format": "hh-sol-artifact-1",
  "contractName": "Mustachio",
  "sourceName": "contracts/Mustachio.sol",
  "abi": [
    {
      "inputs": [],
      "stateMutability": "nonpayable",
      "type": "constructor"
    },
    {
      "anonymous": false,
      "inputs": [
        {
          "indexed": true,
          "internalType": "address",
          "name": "owner",
          "type": "address"
        },
        {
          "indexed": true,
          "internalType": "address",
          "name": "approved",
          "type": "address"
        },
        {
          "indexed": true,
          "internalType": "uint256",
          "name": "tokenId",
          "type": "uint256"
        }
      ],
      "name": "Approval",
      "type": "event"
    },
    {
      "anonymous": false,
      "inputs": [
        {
          "indexed": true,
          "internalType": "address",
          "name": "owner",
          "type": "address"
        },
        {
          "indexed": true,
          "internalType": "address",
          "name": "operator",
          "type": "address"
        },
        {
          "indexed": false,
          "internalType": "bool",
          "name": "approved",
          "type": "bool"
        }
      ],
      "name": "ApprovalForAll",
      "type": "event"
    },
    {
      "anonymous": false,
      "inputs": [
        {
          "indexed": true,
          "internalType": "address",
          "name": "previousOwner",
          "type": "address"
        },
        {
          "indexed": true,
          "internalType": "address",
          "name": "newOwner",
          "type": "address"
        }
      ],
      "name": "OwnershipTransferred",
      "type": "event"
    },
    {
      "anonymous": false,
      "inputs": [
        {
          "indexed": true,
          "internalType": "address",
          "name": "from",
          "type": "address"
        },
        {
          "indexed": true,
          "internalType": "address",
          "name": "to",
          "type": "address"
        },
        {
          "indexed": true,
          "internalType": "uint256",
          "name": "tokenId",
          "type": "uint256"
        }
      ],
      "name": "Transfer",
      "type": "event"
    },
    {
      "inputs": [
        {
          "internalType": "address",
          "name": "to",
          "type": "address"
        },
        {
          "internalType": "uint256",
          "name": "tokenId",
          "type": "uint256"
        }
      ],
      "name": "approve",
      "outputs": [],
      "stateMutability": "nonpayable",
      "type": "function"
    },
    {
      "inputs": [
        {
          "internalType": "address",
          "name": "owner",
          "type": "address"
        }
      ],
      "name": "balanceOf",
      "outputs": [
        {
          "internalType": "uint256",
          "name": "",
          "type": "uint256"
        }
      ],
      "stateMutability": "view",
      "type": "function"
    },
    {
      "inputs": [],
      "name": "createToken",
      "outputs": [],
      "stateMutability": "payable",
      "type": "function"
    },
    {
      "inputs": [
        {
          "internalType": "uint256",
          "name": "tokenId",
          "type": "uint256"
        }
      ],
      "name": "getApproved",
      "outputs": [
        {
          "internalType": "address",
          "name": "",
          "type": "address"
        }
      ],
      "stateMutability": "view",
      "type": "function"
    },
    {
      "inputs": [],
      "name": "getMintPrice",
      "outputs": [
        {
          "internalType": "uint256",
          "name": "",
          "type": "uint256"
        }
      ],
      "stateMutability": "view",
      "type": "function"
    },
    {
      "inputs": [
        {
          "internalType": "address",
          "name": "owner",
          "type": "address"
        },
        {
          "internalType": "address",
          "name": "operator",
          "type": "address"
        }
      ],
      "name": "isApprovedForAll",
      "outputs": [
        {
          "internalType": "bool",
          "name": "",
          "type": "bool"
        }
      ],
      "stateMutability": "view",
      "type": "function"
    },
    {
      "inputs": [],
      "name": "name",
      "outputs": [
        {
          "internalType": "string",
          "name": "",
          "type": "string"
        }
      ],
      "stateMutability": "view",
      "type": "function"
    },
    {
      "inputs": [],
      "name": "owner",
      "outputs": [
        {
          "internalType": "address",
          "name": "",
          "type": "address"
        }
      ],
      "stateMutability": "view",
      "type": "function"
    },
    {
      "inputs": [
        {
          "internalType": "uint256",
          "name": "tokenId",
          "type": "uint256"
        }
      ],
      "name": "ownerOf",
      "outputs": [
        {
          "internalType": "address",
          "name": "",
          "type": "address"
        }
      ],
      "stateMutability": "view",
      "type": "function"
    },
    {
      "inputs": [],
      "name": "renounceOwnership",
      "outputs": [],
      "stateMutability": "nonpayable",
      "type": "function"
    },
    {
      "inputs": [
        {
          "internalType": "address",
          "name": "from",
          "type": "address"
        },
        {
          "internalType": "address",
          "name": "to",
          "type": "address"
        },
        {
          "internalType": "uint256",
          "name": "tokenId",
          "type": "uint256"
        }
      ],
      "name": "safeTransferFrom",
      "outputs": [],
      "stateMutability": "nonpayable",
      "type": "function"
    },
    {
      "inputs": [
        {
          "internalType": "address",
          "name": "from",
          "type": "address"
        },
        {
          "internalType": "address",
          "name": "to",
          "type": "address"
        },
        {
          "internalType": "uint256",
          "name": "tokenId",
          "type": "uint256"
        },
        {
          "internalType": "bytes",
          "name": "_data",
          "type": "bytes"
        }
      ],
      "name": "safeTransferFrom",
      "outputs": [],
      "stateMutability": "nonpayable",
      "type": "function"
    },
    {
      "inputs": [
        {
          "internalType": "address",
          "name": "operator",
          "type": "address"
        },
        {
          "internalType": "bool",
          "name": "approved",
          "type": "bool"
        }
      ],
      "name": "setApprovalForAll",
      "outputs": [],
      "stateMutability": "nonpayable",
      "type": "function"
    },
    {
      "inputs": [
        {
          "internalType": "uint256",
          "name": "_mintPrice",
          "type": "uint256"
        }
      ],
      "name": "setMintPrice",
      "outputs": [],
      "stateMutability": "nonpayable",
      "type": "function"
    },
    {
      "inputs": [
        {
          "internalType": "bytes4",
          "name": "interfaceId",
          "type": "bytes4"
        }
      ],
      "name": "supportsInterface",
      "outputs": [
        {
          "internalType": "bool",
          "name": "",
          "type": "bool"
        }
      ],
      "stateMutability": "view",
      "type": "function"
    },
    {
      "inputs": [],
      "name": "symbol",
      "outputs": [
        {
          "internalType": "string",
          "name": "",
          "type": "string"
        }
      ],
      "stateMutability": "view",
      "type": "function"
    },
    {
      "inputs": [
        {
          "internalType": "uint256",
          "name": "tokenId",
          "type": "uint256"
        }
      ],
      "name": "tokenURI",
      "outputs": [
        {
          "internalType": "string",
          "name": "",
          "type": "string"
        }
      ],
      "stateMutability": "view",
      "type": "function"
    },
    {
      "inputs": [
        {
          "internalType": "address",
          "name": "from",
          "type": "address"
        },
        {
          "internalType": "address",
          "name": "to",
          "type": "address"
        },
        {
          "internalType": "uint256",
          "name": "tokenId",
          "type": "uint256"
        }
      ],
      "name": "transferFrom",
      "outputs": [],
      "stateMutability": "nonpayable",
      "type": "function"
    },
    {
      "inputs": [
        {
          "internalType": "address",
          "name": "newOwner",
          "type": "address"
        }
      ],
      "name": "transferOwnership",
      "outputs": [],
      "stateMutability": "nonpayable",
      "type": "function"
    }
  ],
  "bytecode": "0x6080604052662386f26fc10000600a553480156200001c57600080fd5b50604051806040016040528060098152602001684d757374616368696f60b81b815250604051806040016040528060098152602001684d555354414348494f60b81b815250816000908051906020019062000079929190620000fa565b5080516200008f906001906020840190620000fa565b5050600160075550620000a233620000a8565b620001dd565b600880546001600160a01b038381166001600160a01b0319831681179093556040519116919082907f8be0079c531659141344cd1fd0a4f28419497f9722a3daafe3b4186f6b6457e090600090a35050565b8280546200010890620001a0565b90600052602060002090601f0160209004810192826200012c576000855562000177565b82601f106200014757805160ff191683800117855562000177565b8280016001018555821562000177579182015b82811115620001775782518255916020019190600101906200015a565b506200018592915062000189565b5090565b5b808211156200018557600081556001016200018a565b600181811c90821680620001b557607f821691505b60208210811415620001d757634e487b7160e01b600052602260045260246000fd5b50919050565b61194e80620001ed6000396000f3fe6080604052600436106101145760003560e01c80638da5cb5b116100a0578063b88d4fde11610064578063b88d4fde146102dd578063c87b56dd146102fd578063e985e9c51461031d578063f2fde38b14610366578063f4a0a5281461038657600080fd5b80638da5cb5b1461026d57806395d89b411461028b5780639cbf9e36146102a0578063a22cb465146102a8578063a7f93ebd146102c857600080fd5b806323b872dd116100e757806323b872dd146101ca57806342842e0e146101ea5780636352211e1461020a57806370a082311461022a578063715018a61461025857600080fd5b806301ffc9a71461011957806306fdde031461014e578063081812fc14610170578063095ea7b3146101a8575b600080fd5b34801561012557600080fd5b50610139610134366004611649565b6103a6565b60405190151581526020015b60405180910390f35b34801561015a57600080fd5b506101636103f8565b6040516101459190611731565b34801561017c57600080fd5b5061019061018b366004611681565b61048a565b6040516001600160a01b039091168152602001610145565b3480156101b457600080fd5b506101c86101c3366004611620565b610524565b005b3480156101d657600080fd5b506101c86101e53660046114d6565b61063a565b3480156101f657600080fd5b506101c86102053660046114d6565b61066b565b34801561021657600080fd5b50610190610225366004611681565b610686565b34801561023657600080fd5b5061024a61024536600461148a565b6106fd565b604051908152602001610145565b34801561026457600080fd5b506101c8610784565b34801561027957600080fd5b506008546001600160a01b0316610190565b34801561029757600080fd5b506101636107ea565b6101c86107f9565b3480156102b457600080fd5b506101c86102c33660046115e6565b6108f7565b3480156102d457600080fd5b50600a5461024a565b3480156102e957600080fd5b506101c86102f8366004611511565b6109bc565b34801561030957600080fd5b50610163610318366004611681565b6109f4565b34801561032957600080fd5b506101396103383660046114a4565b6001600160a01b03918216600090815260056020908152604080832093909416825291909152205460ff1690565b34801561037257600080fd5b506101c861038136600461148a565b6109ff565b34801561039257600080fd5b506101c86103a1366004611681565b600a55565b60006001600160e01b031982166380ac58cd60e01b14806103d757506001600160e01b03198216635b5e139f60e01b145b806103f257506301ffc9a760e01b6001600160e01b03198316145b92915050565b60606000805461040790611856565b80601f016020809104026020016040519081016040528092919081815260200182805461043390611856565b80156104805780601f1061045557610100808354040283529160200191610480565b820191906000526020600020905b81548152906001019060200180831161046357829003601f168201915b5050505050905090565b6000818152600260205260408120546001600160a01b03166105085760405162461bcd60e51b815260206004820152602c60248201527f4552433732313a20617070726f76656420717565727920666f72206e6f6e657860448201526b34b9ba32b73a103a37b5b2b760a11b60648201526084015b60405180910390fd5b506000908152600460205260409020546001600160a01b031690565b600061052f82610686565b9050806001600160a01b0316836001600160a01b0316141561059d5760405162461bcd60e51b815260206004820152602160248201527f4552433732313a20617070726f76616c20746f2063757272656e74206f776e656044820152603960f91b60648201526084016104ff565b336001600160a01b03821614806105b957506105b98133610338565b61062b5760405162461bcd60e51b815260206004820152603860248201527f4552433732313a20617070726f76652063616c6c6572206973206e6f74206f7760448201527f6e6572206e6f7220617070726f76656420666f7220616c6c000000000000000060648201526084016104ff565b6106358383610aca565b505050565b6106443382610b38565b6106605760405162461bcd60e51b81526004016104ff90611796565b610635838383610c2f565b610635838383604051806020016040528060008152506109bc565b6000818152600260205260408120546001600160a01b0316806103f25760405162461bcd60e51b815260206004820152602960248201527f4552433732313a206f776e657220717565727920666f72206e6f6e657869737460448201526832b73a103a37b5b2b760b91b60648201526084016104ff565b60006001600160a01b0382166107685760405162461bcd60e51b815260206004820152602a60248201527f4552433732313a2062616c616e636520717565727920666f7220746865207a65604482015269726f206164647265737360b01b60648201526084016104ff565b506001600160a01b031660009081526003602052604090205490565b6008546001600160a01b031633146107de5760405162461bcd60e51b815260206004820181905260248201527f4f776e61626c653a2063616c6c6572206973206e6f7420746865206f776e657260448201526064016104ff565b6107e86000610dcf565b565b60606001805461040790611856565b6002600754141561084c5760405162461bcd60e51b815260206004820152601f60248201527f5265656e7472616e637947756172643a207265656e7472616e742063616c6c0060448201526064016104ff565b6002600755600a5434146108ca576040805162461bcd60e51b81526020600482015260248101919091527f506c65617365207375626d6974207468652061736b696e67207072696365206960448201527f6e206f7264657220746f20636f6d706c6574652074686520707572636861736560648201526084016104ff565b6108d8600980546001019055565b60006108e360095490565b90506108ef3382610e21565b506001600755565b6001600160a01b0382163314156109505760405162461bcd60e51b815260206004820152601960248201527f4552433732313a20617070726f766520746f2063616c6c65720000000000000060448201526064016104ff565b3360008181526005602090815260408083206001600160a01b03871680855290835292819020805460ff191686151590811790915590519081529192917f17307eab39ab6107e8899845ad3d59bd9653f200f220920489ca2b5937696c31910160405180910390a35050565b6109c63383610b38565b6109e25760405162461bcd60e51b81526004016104ff90611796565b6109ee84848484610f63565b50505050565b60606103f282610f96565b6008546001600160a01b03163314610a595760405162461bcd60e51b815260206004820181905260248201527f4f776e61626c653a2063616c6c6572206973206e6f7420746865206f776e657260448201526064016104ff565b6001600160a01b038116610abe5760405162461bcd60e51b815260206004820152602660248201527f4f776e61626c653a206e6577206f776e657220697320746865207a65726f206160448201526564647265737360d01b60648201526084016104ff565b610ac781610dcf565b50565b600081815260046020526040902080546001600160a01b0319166001600160a01b0384169081179091558190610aff82610686565b6001600160a01b03167f8c5be1e5ebec7d5bd14f71427d1e84f3dd0314c0f7b2291e5b200ac8c7c3b92560405160405180910390a45050565b6000818152600260205260408120546001600160a01b0316610bb15760405162461bcd60e51b815260206004820152602c60248201527f4552433732313a206f70657261746f7220717565727920666f72206e6f6e657860448201526b34b9ba32b73a103a37b5b2b760a11b60648201526084016104ff565b6000610bbc83610686565b9050806001600160a01b0316846001600160a01b03161480610bf75750836001600160a01b0316610bec8461048a565b6001600160a01b0316145b80610c2757506001600160a01b0380821660009081526005602090815260408083209388168352929052205460ff165b949350505050565b826001600160a01b0316610c4282610686565b6001600160a01b031614610caa5760405162461bcd60e51b815260206004820152602960248201527f4552433732313a207472616e73666572206f6620746f6b656e2074686174206960448201526839903737ba1037bbb760b91b60648201526084016104ff565b6001600160a01b038216610d0c5760405162461bcd60e51b8152602060048201526024808201527f4552433732313a207472616e7366657220746f20746865207a65726f206164646044820152637265737360e01b60648201526084016104ff565b610d17600082610aca565b6001600160a01b0383166000908152600360205260408120805460019290610d40908490611813565b90915550506001600160a01b0382166000908152600360205260408120805460019290610d6e9084906117e7565b909155505060008181526002602052604080822080546001600160a01b0319166001600160a01b0386811691821790925591518493918716917fddf252ad1be2c89b69c2b068fc378daa952ba7f163c4a11628f55a4df523b3ef91a4505050565b600880546001600160a01b038381166001600160a01b0319831681179093556040519116919082907f8be0079c531659141344cd1fd0a4f28419497f9722a3daafe3b4186f6b6457e090600090a35050565b6001600160a01b038216610e775760405162461bcd60e51b815260206004820181905260248201527f4552433732313a206d696e7420746f20746865207a65726f206164647265737360448201526064016104ff565b6000818152600260205260409020546001600160a01b031615610edc5760405162461bcd60e51b815260206004820152601c60248201527f4552433732313a20746f6b656e20616c7265616479206d696e7465640000000060448201526064016104ff565b6001600160a01b0382166000908152600360205260408120805460019290610f059084906117e7565b909155505060008181526002602052604080822080546001600160a01b0319166001600160a01b03861690811790915590518392907fddf252ad1be2c89b69c2b068fc378daa952ba7f163c4a11628f55a4df523b3ef908290a45050565b610f6e848484610c2f565b610f7a8484848461113a565b6109ee5760405162461bcd60e51b81526004016104ff90611744565b6000818152600260205260409020546060906001600160a01b03166110175760405162461bcd60e51b815260206004820152603160248201527f45524337323155524953746f726167653a2055524920717565727920666f72206044820152703737b732bc34b9ba32b73a103a37b5b2b760791b60648201526084016104ff565b6000828152600660205260408120805461103090611856565b80601f016020809104026020016040519081016040528092919081815260200182805461105c90611856565b80156110a95780601f1061107e576101008083540402835291602001916110a9565b820191906000526020600020905b81548152906001019060200180831161108c57829003601f168201915b5050505050905060006110ec60408051808201909152601b81527f6f776e6c792e696f2f6e66742f6d757374616368696f2f6170692f0000000000602082015290565b90508051600014156110ff575092915050565b8151156111315780826040516020016111199291906116c5565b60405160208183030381529060405292505050919050565b610c2784611247565b60006001600160a01b0384163b1561123c57604051630a85bd0160e11b81526001600160a01b0385169063150b7a029061117e9033908990889088906004016116f4565b602060405180830381600087803b15801561119857600080fd5b505af19250505080156111c8575060408051601f3d908101601f191682019092526111c591810190611665565b60015b611222573d8080156111f6576040519150601f19603f3d011682016040523d82523d6000602084013e6111fb565b606091505b50805161121a5760405162461bcd60e51b81526004016104ff90611744565b805181602001fd5b6001600160e01b031916630a85bd0160e11b149050610c27565b506001949350505050565b6000818152600260205260409020546060906001600160a01b03166112c65760405162461bcd60e51b815260206004820152602f60248201527f4552433732314d657461646174613a2055524920717565727920666f72206e6f60448201526e3732bc34b9ba32b73a103a37b5b2b760891b60648201526084016104ff565b600061130260408051808201909152601b81527f6f776e6c792e696f2f6e66742f6d757374616368696f2f6170692f0000000000602082015290565b90506000815111611322576040518060200160405280600081525061134d565b8061132c84611354565b60405160200161133d9291906116c5565b6040516020818303038152906040525b9392505050565b6060816113785750506040805180820190915260018152600360fc1b602082015290565b8160005b81156113a2578061138c81611891565b915061139b9050600a836117ff565b915061137c565b60008167ffffffffffffffff8111156113cb57634e487b7160e01b600052604160045260246000fd5b6040519080825280601f01601f1916602001820160405280156113f5576020820181803683370190505b5090505b8415610c275761140a600183611813565b9150611417600a866118ac565b6114229060306117e7565b60f81b81838151811061144557634e487b7160e01b600052603260045260246000fd5b60200101906001600160f81b031916908160001a905350611467600a866117ff565b94506113f9565b80356001600160a01b038116811461148557600080fd5b919050565b60006020828403121561149b578081fd5b61134d8261146e565b600080604083850312156114b6578081fd5b6114bf8361146e565b91506114cd6020840161146e565b90509250929050565b6000806000606084860312156114ea578081fd5b6114f38461146e565b92506115016020850161146e565b9150604084013590509250925092565b60008060008060808587031215611526578081fd5b61152f8561146e565b935061153d6020860161146e565b925060408501359150606085013567ffffffffffffffff80821115611560578283fd5b818701915087601f830112611573578283fd5b813581811115611585576115856118ec565b604051601f8201601f19908116603f011681019083821181831017156115ad576115ad6118ec565b816040528281528a60208487010111156115c5578586fd5b82602086016020830137918201602001949094529598949750929550505050565b600080604083850312156115f8578182fd5b6116018361146e565b915060208301358015158114611615578182fd5b809150509250929050565b60008060408385031215611632578182fd5b61163b8361146e565b946020939093013593505050565b60006020828403121561165a578081fd5b813561134d81611902565b600060208284031215611676578081fd5b815161134d81611902565b600060208284031215611692578081fd5b5035919050565b600081518084526116b181602086016020860161182a565b601f01601f19169290920160200192915050565b600083516116d781846020880161182a565b8351908301906116eb81836020880161182a565b01949350505050565b6001600160a01b038581168252841660208201526040810183905260806060820181905260009061172790830184611699565b9695505050505050565b60208152600061134d6020830184611699565b60208082526032908201527f4552433732313a207472616e7366657220746f206e6f6e20455243373231526560408201527131b2b4bb32b91034b6b83632b6b2b73a32b960711b606082015260800190565b60208082526031908201527f4552433732313a207472616e736665722063616c6c6572206973206e6f74206f6040820152701ddb995c881b9bdc88185c1c1c9bdd9959607a1b606082015260800190565b600082198211156117fa576117fa6118c0565b500190565b60008261180e5761180e6118d6565b500490565b600082821015611825576118256118c0565b500390565b60005b8381101561184557818101518382015260200161182d565b838111156109ee5750506000910152565b600181811c9082168061186a57607f821691505b6020821081141561188b57634e487b7160e01b600052602260045260246000fd5b50919050565b60006000198214156118a5576118a56118c0565b5060010190565b6000826118bb576118bb6118d6565b500690565b634e487b7160e01b600052601160045260246000fd5b634e487b7160e01b600052601260045260246000fd5b634e487b7160e01b600052604160045260246000fd5b6001600160e01b031981168114610ac757600080fdfea2646970667358221220e113d5ca3122b809ed07a17c188281fff7c8a61b163f806d2d3753a9e1b8e27564736f6c63430008040033",
  "linkReferences": {},
  "deployedLinkReferences": {}
}