{
  "_format": "hh-sol-artifact-1",
  "contractName": "BNFT",
  "sourceName": "contracts/bep721/BNFT.sol",
  "abi": [
    {
      "inputs": [],
      "stateMutability": "nonpayable",
      "type": "constructor"
    },
    {
      "anonymous": false,
      "inputs": [
        {
          "indexed": true,
          "internalType": "address",
          "name": "owner",
          "type": "address"
        },
        {
          "indexed": true,
          "internalType": "address",
          "name": "approved",
          "type": "address"
        },
        {
          "indexed": true,
          "internalType": "uint256",
          "name": "tokenId",
          "type": "uint256"
        }
      ],
      "name": "Approval",
      "type": "event"
    },
    {
      "anonymous": false,
      "inputs": [
        {
          "indexed": true,
          "internalType": "address",
          "name": "owner",
          "type": "address"
        },
        {
          "indexed": true,
          "internalType": "address",
          "name": "operator",
          "type": "address"
        },
        {
          "indexed": false,
          "internalType": "bool",
          "name": "approved",
          "type": "bool"
        }
      ],
      "name": "ApprovalForAll",
      "type": "event"
    },
    {
      "anonymous": false,
      "inputs": [
        {
          "indexed": false,
          "internalType": "address",
          "name": "account",
          "type": "address"
        }
      ],
      "name": "Paused",
      "type": "event"
    },
    {
      "anonymous": false,
      "inputs": [
        {
          "indexed": true,
          "internalType": "address",
          "name": "from",
          "type": "address"
        },
        {
          "indexed": true,
          "internalType": "address",
          "name": "to",
          "type": "address"
        },
        {
          "indexed": true,
          "internalType": "uint256",
          "name": "tokenId",
          "type": "uint256"
        }
      ],
      "name": "Transfer",
      "type": "event"
    },
    {
      "anonymous": false,
      "inputs": [
        {
          "indexed": false,
          "internalType": "address",
          "name": "account",
          "type": "address"
        }
      ],
      "name": "Unpaused",
      "type": "event"
    },
    {
      "inputs": [],
      "name": "admin",
      "outputs": [
        {
          "internalType": "address",
          "name": "",
          "type": "address"
        }
      ],
      "stateMutability": "view",
      "type": "function"
    },
    {
      "inputs": [
        {
          "internalType": "address",
          "name": "to",
          "type": "address"
        },
        {
          "internalType": "uint256",
          "name": "tokenId",
          "type": "uint256"
        }
      ],
      "name": "approve",
      "outputs": [],
      "stateMutability": "nonpayable",
      "type": "function"
    },
    {
      "inputs": [
        {
          "internalType": "address",
          "name": "owner",
          "type": "address"
        }
      ],
      "name": "balanceOf",
      "outputs": [
        {
          "internalType": "uint256",
          "name": "",
          "type": "uint256"
        }
      ],
      "stateMutability": "view",
      "type": "function"
    },
    {
      "inputs": [
        {
          "internalType": "string",
          "name": "tokenURI",
          "type": "string"
        }
      ],
      "name": "createToken",
      "outputs": [
        {
          "internalType": "uint256",
          "name": "",
          "type": "uint256"
        }
      ],
      "stateMutability": "nonpayable",
      "type": "function"
    },
    {
      "inputs": [
        {
          "internalType": "uint256",
          "name": "tokenId",
          "type": "uint256"
        }
      ],
      "name": "getApproved",
      "outputs": [
        {
          "internalType": "address",
          "name": "",
          "type": "address"
        }
      ],
      "stateMutability": "view",
      "type": "function"
    },
    {
      "inputs": [
        {
          "internalType": "address",
          "name": "owner",
          "type": "address"
        },
        {
          "internalType": "address",
          "name": "operator",
          "type": "address"
        }
      ],
      "name": "isApprovedForAll",
      "outputs": [
        {
          "internalType": "bool",
          "name": "",
          "type": "bool"
        }
      ],
      "stateMutability": "view",
      "type": "function"
    },
    {
      "inputs": [],
      "name": "name",
      "outputs": [
        {
          "internalType": "string",
          "name": "",
          "type": "string"
        }
      ],
      "stateMutability": "view",
      "type": "function"
    },
    {
      "inputs": [
        {
          "internalType": "uint256",
          "name": "tokenId",
          "type": "uint256"
        }
      ],
      "name": "ownerOf",
      "outputs": [
        {
          "internalType": "address",
          "name": "",
          "type": "address"
        }
      ],
      "stateMutability": "view",
      "type": "function"
    },
    {
      "inputs": [],
      "name": "paused",
      "outputs": [
        {
          "internalType": "bool",
          "name": "",
          "type": "bool"
        }
      ],
      "stateMutability": "view",
      "type": "function"
    },
    {
      "inputs": [
        {
          "internalType": "address",
          "name": "from",
          "type": "address"
        },
        {
          "internalType": "address",
          "name": "to",
          "type": "address"
        },
        {
          "internalType": "uint256",
          "name": "tokenId",
          "type": "uint256"
        }
      ],
      "name": "safeTransferFrom",
      "outputs": [],
      "stateMutability": "nonpayable",
      "type": "function"
    },
    {
      "inputs": [
        {
          "internalType": "address",
          "name": "from",
          "type": "address"
        },
        {
          "internalType": "address",
          "name": "to",
          "type": "address"
        },
        {
          "internalType": "uint256",
          "name": "tokenId",
          "type": "uint256"
        },
        {
          "internalType": "bytes",
          "name": "_data",
          "type": "bytes"
        }
      ],
      "name": "safeTransferFrom",
      "outputs": [],
      "stateMutability": "nonpayable",
      "type": "function"
    },
    {
      "inputs": [
        {
          "internalType": "address",
          "name": "operator",
          "type": "address"
        },
        {
          "internalType": "bool",
          "name": "approved",
          "type": "bool"
        }
      ],
      "name": "setApprovalForAll",
      "outputs": [],
      "stateMutability": "nonpayable",
      "type": "function"
    },
    {
      "inputs": [],
      "name": "setPause",
      "outputs": [],
      "stateMutability": "nonpayable",
      "type": "function"
    },
    {
      "inputs": [
        {
          "internalType": "bytes4",
          "name": "interfaceId",
          "type": "bytes4"
        }
      ],
      "name": "supportsInterface",
      "outputs": [
        {
          "internalType": "bool",
          "name": "",
          "type": "bool"
        }
      ],
      "stateMutability": "view",
      "type": "function"
    },
    {
      "inputs": [],
      "name": "symbol",
      "outputs": [
        {
          "internalType": "string",
          "name": "",
          "type": "string"
        }
      ],
      "stateMutability": "view",
      "type": "function"
    },
    {
      "inputs": [
        {
          "internalType": "uint256",
          "name": "index",
          "type": "uint256"
        }
      ],
      "name": "tokenByIndex",
      "outputs": [
        {
          "internalType": "uint256",
          "name": "",
          "type": "uint256"
        }
      ],
      "stateMutability": "view",
      "type": "function"
    },
    {
      "inputs": [
        {
          "internalType": "address",
          "name": "owner",
          "type": "address"
        },
        {
          "internalType": "uint256",
          "name": "index",
          "type": "uint256"
        }
      ],
      "name": "tokenOfOwnerByIndex",
      "outputs": [
        {
          "internalType": "uint256",
          "name": "",
          "type": "uint256"
        }
      ],
      "stateMutability": "view",
      "type": "function"
    },
    {
      "inputs": [
        {
          "internalType": "uint256",
          "name": "tokenId",
          "type": "uint256"
        }
      ],
      "name": "tokenURI",
      "outputs": [
        {
          "internalType": "string",
          "name": "",
          "type": "string"
        }
      ],
      "stateMutability": "view",
      "type": "function"
    },
    {
      "inputs": [],
      "name": "totalSupply",
      "outputs": [
        {
          "internalType": "uint256",
          "name": "",
          "type": "uint256"
        }
      ],
      "stateMutability": "view",
      "type": "function"
    },
    {
      "inputs": [
        {
          "internalType": "address",
          "name": "from",
          "type": "address"
        },
        {
          "internalType": "address",
          "name": "to",
          "type": "address"
        },
        {
          "internalType": "uint256",
          "name": "tokenId",
          "type": "uint256"
        }
      ],
      "name": "transferFrom",
      "outputs": [],
      "stateMutability": "nonpayable",
      "type": "function"
    },
    {
      "inputs": [],
      "name": "unsetPause",
      "outputs": [],
      "stateMutability": "nonpayable",
      "type": "function"
    }
  ],
  "bytecode": "0x60a06040523480156200001157600080fd5b506040805180820182526004808252631093919560e21b602080840182815285518087019096529285528401527f768532c218f4f4e6e4960ceea7f5a7a947a1dd61000000000000000000000000608052815173768532c218f4f4e6e4960ceea7f5a7a947a1dd6193916200008a9160009190620000b5565b508051620000a0906001906020840190620000b5565b5050600b805460ff1916905550620001989050565b828054620000c3906200015b565b90600052602060002090601f016020900481019282620000e7576000855562000132565b82601f106200010257805160ff191683800117855562000132565b8280016001018555821562000132579182015b828111156200013257825182559160200191906001019062000115565b506200014092915062000144565b5090565b5b8082111562000140576000815560010162000145565b6002810460018216806200017057607f821691505b602082108114156200019257634e487b7160e01b600052602260045260246000fd5b50919050565b60805160601c611ffb620001e1600039600081816102ea01528181610668015281816107a90152818161080f01528181610b6201528181610c8d0152610cc50152611ffb6000f3fe608060405234801561001057600080fd5b50600436106101375760003560e01c80634f842143116100b8578063a22cb4651161007c578063a22cb4651461026b578063b88d4fde1461027e578063c87b56dd14610291578063d431b1ac146102a4578063e985e9c5146102ac578063f851a440146102e857610137565b80634f8421431461022a5780635c975abb146102325780636352211e1461023d57806370a082311461025057806395d89b411461026357610137565b806323b872dd116100ff57806323b872dd146101cb5780632f745c59146101de57806342842e0e146101f157806345576f94146102045780634f6ccce71461021757610137565b806301ffc9a71461013c57806306fdde0314610164578063081812fc14610179578063095ea7b3146101a457806318160ddd146101b9575b600080fd5b61014f61014a366004611c41565b61030e565b60405190151581526020015b60405180910390f35b61016c61033b565b60405161015b9190611d6f565b61018c610187366004611cbf565b6103cd565b6040516001600160a01b03909116815260200161015b565b6101b76101b2366004611c18565b61045a565b005b6009545b60405190815260200161015b565b6101b76101d9366004611b2a565b610570565b6101bd6101ec366004611c18565b6105aa565b6101b76101ff366004611b2a565b610640565b6101bd610212366004611c79565b61065b565b6101bd610225366004611cbf565b6106fd565b6101b761079e565b600b5460ff1661014f565b61018c61024b366004611cbf565b6107f0565b6101bd61025e366004611ade565b610836565b61016c6108bd565b6101b7610279366004611bde565b6108cc565b6101b761028c366004611b65565b61099e565b61016c61029f366004611cbf565b6109df565b6101b7610b57565b61014f6102ba366004611af8565b6001600160a01b03918216600090815260056020908152604080832093909416825291909152205460ff1690565b7f000000000000000000000000000000000000000000000000000000000000000061018c565b60006001600160e01b0319821663780e9d6360e01b1480610333575061033382610ba7565b90505b919050565b60606000805461034a90611f03565b80601f016020809104026020016040519081016040528092919081815260200182805461037690611f03565b80156103c35780601f10610398576101008083540402835291602001916103c3565b820191906000526020600020905b8154815290600101906020018083116103a657829003601f168201915b5050505050905090565b60006103d882610bf7565b61043e5760405162461bcd60e51b815260206004820152602c60248201527f4552433732313a20617070726f76656420717565727920666f72206e6f6e657860448201526b34b9ba32b73a103a37b5b2b760a11b60648201526084015b60405180910390fd5b506000908152600460205260409020546001600160a01b031690565b6000610465826107f0565b9050806001600160a01b0316836001600160a01b031614156104d35760405162461bcd60e51b815260206004820152602160248201527f4552433732313a20617070726f76616c20746f2063757272656e74206f776e656044820152603960f91b6064820152608401610435565b336001600160a01b03821614806104ef57506104ef81336102ba565b6105615760405162461bcd60e51b815260206004820152603860248201527f4552433732313a20617070726f76652063616c6c6572206973206e6f74206f7760448201527f6e6572206e6f7220617070726f76656420666f7220616c6c00000000000000006064820152608401610435565b61056b8383610c14565b505050565b61057981610c82565b6105833382610ced565b61059f5760405162461bcd60e51b815260040161043590611dff565b61056b838383610dd3565b60006105b583610836565b82106106175760405162461bcd60e51b815260206004820152602b60248201527f455243373231456e756d657261626c653a206f776e657220696e646578206f7560448201526a74206f6620626f756e647360a81b6064820152608401610435565b506001600160a01b03919091166000908152600760209081526040808320938352929052205490565b61056b8383836040518060200160405280600081525061099e565b6000336001600160a01b037f000000000000000000000000000000000000000000000000000000000000000016146106a55760405162461bcd60e51b815260040161043590611dd4565b6106b3600c80546001019055565b60006106be600c5490565b90506106ca3382610f7e565b61033381846106d8846110bd565b6040516020016106e9929190611d03565b604051602081830303815290604052611203565b600061070860095490565b821061076b5760405162461bcd60e51b815260206004820152602c60248201527f455243373231456e756d657261626c653a20676c6f62616c20696e646578206f60448201526b7574206f6620626f756e647360a01b6064820152608401610435565b6009828154811061078c57634e487b7160e01b600052603260045260246000fd5b90600052602060002001549050919050565b336001600160a01b037f000000000000000000000000000000000000000000000000000000000000000016146107e65760405162461bcd60e51b815260040161043590611dd4565b6107ee61128e565b565b6000818152600260205260408120546001600160a01b031680610333577f0000000000000000000000000000000000000000000000000000000000000000915050610336565b60006001600160a01b0382166108a15760405162461bcd60e51b815260206004820152602a60248201527f4552433732313a2062616c616e636520717565727920666f7220746865207a65604482015269726f206164647265737360b01b6064820152608401610435565b506001600160a01b031660009081526003602052604090205490565b60606001805461034a90611f03565b6001600160a01b0382163314156109255760405162461bcd60e51b815260206004820152601960248201527f4552433732313a20617070726f766520746f2063616c6c6572000000000000006044820152606401610435565b3360008181526005602090815260408083206001600160a01b0387168085529252909120805460ff1916841515179055906001600160a01b03167f17307eab39ab6107e8899845ad3d59bd9653f200f220920489ca2b5937696c3183604051610992911515815260200190565b60405180910390a35050565b6109a782610c82565b6109b13383610ced565b6109cd5760405162461bcd60e51b815260040161043590611dff565b6109d984848484611321565b50505050565b60606109ea82610bf7565b610a505760405162461bcd60e51b815260206004820152603160248201527f45524337323155524953746f726167653a2055524920717565727920666f72206044820152703737b732bc34b9ba32b73a103a37b5b2b760791b6064820152608401610435565b60008281526006602052604081208054610a6990611f03565b80601f0160208091040260200160405190810160405280929190818152602001828054610a9590611f03565b8015610ae25780601f10610ab757610100808354040283529160200191610ae2565b820191906000526020600020905b815481529060010190602001808311610ac557829003601f168201915b505050505090506000610b0060408051602081019091526000815290565b9050805160001415610b1457509050610336565b815115610b46578082604051602001610b2e929190611d03565b60405160208183030381529060405292505050610336565b610b4f84611354565b949350505050565b336001600160a01b037f00000000000000000000000000000000000000000000000000000000000000001614610b9f5760405162461bcd60e51b815260040161043590611dd4565b6107ee61142c565b60006001600160e01b031982166380ac58cd60e01b1480610bd857506001600160e01b03198216635b5e139f60e01b145b8061033357506301ffc9a760e01b6001600160e01b0319831614610333565b6000908152600260205260409020546001600160a01b0316151590565b600081815260046020526040902080546001600160a01b0319166001600160a01b0384169081179091558190610c49826107f0565b6001600160a01b03167f8c5be1e5ebec7d5bd14f71427d1e84f3dd0314c0f7b2291e5b200ac8c7c3b92560405160405180910390a45050565b336001600160a01b037f0000000000000000000000000000000000000000000000000000000000000000161415610cea57610cbc81610bf7565b610cea57610cea7f000000000000000000000000000000000000000000000000000000000000000082610f7e565b50565b6000610cf882610bf7565b610d595760405162461bcd60e51b815260206004820152602c60248201527f4552433732313a206f70657261746f7220717565727920666f72206e6f6e657860448201526b34b9ba32b73a103a37b5b2b760a11b6064820152608401610435565b6000610d64836107f0565b9050806001600160a01b0316846001600160a01b03161480610d9f5750836001600160a01b0316610d94846103cd565b6001600160a01b0316145b80610b4f57506001600160a01b0380821660009081526005602090815260408083209388168352929052205460ff16610b4f565b826001600160a01b0316610de6826107f0565b6001600160a01b031614610e4e5760405162461bcd60e51b815260206004820152602960248201527f4552433732313a207472616e73666572206f6620746f6b656e2074686174206960448201526839903737ba1037bbb760b91b6064820152608401610435565b6001600160a01b038216610eb05760405162461bcd60e51b8152602060048201526024808201527f4552433732313a207472616e7366657220746f20746865207a65726f206164646044820152637265737360e01b6064820152608401610435565b610ebb8383836114a7565b610ec6600082610c14565b6001600160a01b0383166000908152600360205260408120805460019290610eef908490611ec0565b90915550506001600160a01b0382166000908152600360205260408120805460019290610f1d908490611e50565b909155505060008181526002602052604080822080546001600160a01b0319166001600160a01b0386811691821790925591518493918716917fddf252ad1be2c89b69c2b068fc378daa952ba7f163c4a11628f55a4df523b3ef91a4505050565b6001600160a01b038216610fd45760405162461bcd60e51b815260206004820181905260248201527f4552433732313a206d696e7420746f20746865207a65726f20616464726573736044820152606401610435565b610fdd81610bf7565b1561102a5760405162461bcd60e51b815260206004820152601c60248201527f4552433732313a20746f6b656e20616c7265616479206d696e746564000000006044820152606401610435565b611036600083836114a7565b6001600160a01b038216600090815260036020526040812080546001929061105f908490611e50565b909155505060008181526002602052604080822080546001600160a01b0319166001600160a01b03861690811790915590518392907fddf252ad1be2c89b69c2b068fc378daa952ba7f163c4a11628f55a4df523b3ef908290a45050565b6060816110e257506040805180820190915260018152600360fc1b6020820152610336565b8160005b811561110c57806110f681611f3e565b91506111059050600a83611e8d565b91506110e6565b60008167ffffffffffffffff81111561113557634e487b7160e01b600052604160045260246000fd5b6040519080825280601f01601f19166020018201604052801561115f576020820181803683370190505b509050815b85156111fa57611175600182611ec0565b90506000611184600a88611e8d565b61118f90600a611ea1565b6111999088611ec0565b6111a4906030611e68565b905060008160f81b9050808484815181106111cf57634e487b7160e01b600052603260045260246000fd5b60200101906001600160f81b031916908160001a9053506111f1600a89611e8d565b97505050611164565b50949350505050565b61120c82610bf7565b61126f5760405162461bcd60e51b815260206004820152602e60248201527f45524337323155524953746f726167653a2055524920736574206f66206e6f6e60448201526d32bc34b9ba32b73a103a37b5b2b760911b6064820152608401610435565b6000828152600660209081526040909120825161056b928401906119b8565b600b5460ff166112d75760405162461bcd60e51b815260206004820152601460248201527314185d5cd8589b194e881b9bdd081c185d5cd95960621b6044820152606401610435565b600b805460ff191690557f5db9ee0a495bf2e6ff9c91a7834c1ba4fdd244a5e8aa4e537bd38aeae4b073aa335b6040516001600160a01b03909116815260200160405180910390a1565b61132c848484610dd3565b61133884848484611519565b6109d95760405162461bcd60e51b815260040161043590611d82565b606061135f82610bf7565b6113c35760405162461bcd60e51b815260206004820152602f60248201527f4552433732314d657461646174613a2055524920717565727920666f72206e6f60448201526e3732bc34b9ba32b73a103a37b5b2b760891b6064820152608401610435565b60006113da60408051602081019091526000815290565b905060008151116113fa5760405180602001604052806000815250611425565b8061140484611626565b604051602001611415929190611d03565b6040516020818303038152906040525b9392505050565b600b5460ff16156114725760405162461bcd60e51b815260206004820152601060248201526f14185d5cd8589b194e881c185d5cd95960821b6044820152606401610435565b600b805460ff191660011790557f62e78cea01bee320cd4e420270b5ea74000d11b0c9f74754ebdbfc544b05a2586113043390565b6114b2838383611741565b600b5460ff161561056b5760405162461bcd60e51b815260206004820152602b60248201527f4252433732315061757361626c653a20746f6b656e207472616e73666572207760448201526a1a1a5b19481c185d5cd95960aa1b6064820152608401610435565b60006001600160a01b0384163b1561161b57604051630a85bd0160e11b81526001600160a01b0385169063150b7a029061155d903390899088908890600401611d32565b602060405180830381600087803b15801561157757600080fd5b505af19250505080156115a7575060408051601f3d908101601f191682019092526115a491810190611c5d565b60015b611601573d8080156115d5576040519150601f19603f3d011682016040523d82523d6000602084013e6115da565b606091505b5080516115f95760405162461bcd60e51b815260040161043590611d82565b805181602001fd5b6001600160e01b031916630a85bd0160e11b149050610b4f565b506001949350505050565b60608161164b57506040805180820190915260018152600360fc1b6020820152610336565b8160005b8115611675578061165f81611f3e565b915061166e9050600a83611e8d565b915061164f565b60008167ffffffffffffffff81111561169e57634e487b7160e01b600052604160045260246000fd5b6040519080825280601f01601f1916602001820160405280156116c8576020820181803683370190505b5090505b8415610b4f576116dd600183611ec0565b91506116ea600a86611f59565b6116f5906030611e50565b60f81b81838151811061171857634e487b7160e01b600052603260045260246000fd5b60200101906001600160f81b031916908160001a90535061173a600a86611e8d565b94506116cc565b6001600160a01b03831661179c5761179781600980546000838152600a60205260408120829055600182018355919091527f6e1540171b6c0c960b71a7020d9f60077f6af931a8bbf590da0223dacf75c7af0155565b6117bf565b816001600160a01b0316836001600160a01b0316146117bf576117bf83826117fe565b6001600160a01b0382166117db576117d68161189b565b61056b565b826001600160a01b0316826001600160a01b03161461056b5761056b8282611974565b6000600161180b84610836565b6118159190611ec0565b600083815260086020526040902054909150808214611868576001600160a01b03841660009081526007602090815260408083208584528252808320548484528184208190558352600890915290208190555b5060009182526008602090815260408084208490556001600160a01b039094168352600781528383209183525290812055565b6009546000906118ad90600190611ec0565b6000838152600a6020526040812054600980549394509092849081106118e357634e487b7160e01b600052603260045260246000fd5b90600052602060002001549050806009838154811061191257634e487b7160e01b600052603260045260246000fd5b6000918252602080832090910192909255828152600a9091526040808220849055858252812055600980548061195857634e487b7160e01b600052603160045260246000fd5b6001900381819060005260206000200160009055905550505050565b600061197f83610836565b6001600160a01b039093166000908152600760209081526040808320868452825280832085905593825260089052919091209190915550565b8280546119c490611f03565b90600052602060002090601f0160209004810192826119e65760008555611a2c565b82601f106119ff57805160ff1916838001178555611a2c565b82800160010185558215611a2c579182015b82811115611a2c578251825591602001919060010190611a11565b50611a38929150611a3c565b5090565b5b80821115611a385760008155600101611a3d565b600067ffffffffffffffff80841115611a6c57611a6c611f99565b604051601f8501601f19908116603f01168101908282118183101715611a9457611a94611f99565b81604052809350858152868686011115611aad57600080fd5b858560208301376000602087830101525050509392505050565b80356001600160a01b038116811461033657600080fd5b600060208284031215611aef578081fd5b61142582611ac7565b60008060408385031215611b0a578081fd5b611b1383611ac7565b9150611b2160208401611ac7565b90509250929050565b600080600060608486031215611b3e578081fd5b611b4784611ac7565b9250611b5560208501611ac7565b9150604084013590509250925092565b60008060008060808587031215611b7a578081fd5b611b8385611ac7565b9350611b9160208601611ac7565b925060408501359150606085013567ffffffffffffffff811115611bb3578182fd5b8501601f81018713611bc3578182fd5b611bd287823560208401611a51565b91505092959194509250565b60008060408385031215611bf0578182fd5b611bf983611ac7565b915060208301358015158114611c0d578182fd5b809150509250929050565b60008060408385031215611c2a578182fd5b611c3383611ac7565b946020939093013593505050565b600060208284031215611c52578081fd5b813561142581611faf565b600060208284031215611c6e578081fd5b815161142581611faf565b600060208284031215611c8a578081fd5b813567ffffffffffffffff811115611ca0578182fd5b8201601f81018413611cb0578182fd5b610b4f84823560208401611a51565b600060208284031215611cd0578081fd5b5035919050565b60008151808452611cef816020860160208601611ed7565b601f01601f19169290920160200192915050565b60008351611d15818460208801611ed7565b835190830190611d29818360208801611ed7565b01949350505050565b6001600160a01b0385811682528416602082015260408101839052608060608201819052600090611d6590830184611cd7565b9695505050505050565b6000602082526114256020830184611cd7565b60208082526032908201527f4552433732313a207472616e7366657220746f206e6f6e20455243373231526560408201527131b2b4bb32b91034b6b83632b6b2b73a32b960711b606082015260800190565b6020808252601190820152703932b9ba3934b1ba103a379030b236b4b760791b604082015260600190565b60208082526031908201527f4552433732313a207472616e736665722063616c6c6572206973206e6f74206f6040820152701ddb995c881b9bdc88185c1c1c9bdd9959607a1b606082015260800190565b60008219821115611e6357611e63611f6d565b500190565b600060ff821660ff84168060ff03821115611e8557611e85611f6d565b019392505050565b600082611e9c57611e9c611f83565b500490565b6000816000190483118215151615611ebb57611ebb611f6d565b500290565b600082821015611ed257611ed2611f6d565b500390565b60005b83811015611ef2578181015183820152602001611eda565b838111156109d95750506000910152565b600281046001821680611f1757607f821691505b60208210811415611f3857634e487b7160e01b600052602260045260246000fd5b50919050565b6000600019821415611f5257611f52611f6d565b5060010190565b600082611f6857611f68611f83565b500690565b634e487b7160e01b600052601160045260246000fd5b634e487b7160e01b600052601260045260246000fd5b634e487b7160e01b600052604160045260246000fd5b6001600160e01b031981168114610cea57600080fdfea2646970667358221220224b2759326205740f3ed7314ddb3929536f30ce07320f141a8d52c893749b5d64736f6c63430008020033",
  "linkReferences": {},
  "deployedLinkReferences": {}
}