{
  "_format": "hh-sol-artifact-1",
  "contractName": "MarketplaceV2",
  "sourceName": "contracts/MarketplaceV2.sol",
  "abi": [
    {
      "anonymous": false,
      "inputs": [
        {
          "indexed": false,
          "internalType": "address",
          "name": "previousAdmin",
          "type": "address"
        },
        {
          "indexed": false,
          "internalType": "address",
          "name": "newAdmin",
          "type": "address"
        }
      ],
      "name": "AdminChanged",
      "type": "event"
    },
    {
      "anonymous": false,
      "inputs": [
        {
          "indexed": true,
          "internalType": "address",
          "name": "beacon",
          "type": "address"
        }
      ],
      "name": "BeaconUpgraded",
      "type": "event"
    },
    {
      "anonymous": false,
      "inputs": [
        {
          "indexed": true,
          "internalType": "uint256",
          "name": "itemId",
          "type": "uint256"
        }
      ],
      "name": "MarketItemCancelled",
      "type": "event"
    },
    {
      "anonymous": false,
      "inputs": [
        {
          "indexed": true,
          "internalType": "uint256",
          "name": "itemId",
          "type": "uint256"
        },
        {
          "indexed": true,
          "internalType": "address",
          "name": "nftContract",
          "type": "address"
        },
        {
          "indexed": true,
          "internalType": "uint256",
          "name": "tokenId",
          "type": "uint256"
        },
        {
          "indexed": false,
          "internalType": "address",
          "name": "seller",
          "type": "address"
        },
        {
          "indexed": false,
          "internalType": "uint256",
          "name": "price",
          "type": "uint256"
        },
        {
          "indexed": false,
          "internalType": "string",
          "name": "currency",
          "type": "string"
        },
        {
          "indexed": false,
          "internalType": "uint256",
          "name": "listingPrice",
          "type": "uint256"
        }
      ],
      "name": "MarketItemCreated",
      "type": "event"
    },
    {
      "anonymous": false,
      "inputs": [
        {
          "indexed": true,
          "internalType": "uint256",
          "name": "itemId",
          "type": "uint256"
        }
      ],
      "name": "MarketItemSold",
      "type": "event"
    },
    {
      "anonymous": false,
      "inputs": [
        {
          "indexed": true,
          "internalType": "address",
          "name": "previousOwner",
          "type": "address"
        },
        {
          "indexed": true,
          "internalType": "address",
          "name": "newOwner",
          "type": "address"
        }
      ],
      "name": "OwnershipTransferred",
      "type": "event"
    },
    {
      "anonymous": false,
      "inputs": [
        {
          "indexed": true,
          "internalType": "address",
          "name": "implementation",
          "type": "address"
        }
      ],
      "name": "Upgraded",
      "type": "event"
    },
    {
      "inputs": [
        {
          "internalType": "uint256",
          "name": "itemId",
          "type": "uint256"
        }
      ],
      "name": "cancelMarketItem",
      "outputs": [],
      "stateMutability": "nonpayable",
      "type": "function"
    },
    {
      "inputs": [
        {
          "internalType": "string",
          "name": "a",
          "type": "string"
        },
        {
          "internalType": "string",
          "name": "b",
          "type": "string"
        }
      ],
      "name": "compareStrings",
      "outputs": [
        {
          "internalType": "bool",
          "name": "",
          "type": "bool"
        }
      ],
      "stateMutability": "view",
      "type": "function"
    },
    {
      "inputs": [
        {
          "internalType": "address",
          "name": "nftContractAddress",
          "type": "address"
        },
        {
          "internalType": "uint256",
          "name": "tokenId",
          "type": "uint256"
        },
        {
          "internalType": "uint256",
          "name": "price",
          "type": "uint256"
        },
        {
          "internalType": "string",
          "name": "currency",
          "type": "string"
        }
      ],
      "name": "createMarketItem",
      "outputs": [],
      "stateMutability": "payable",
      "type": "function"
    },
    {
      "inputs": [
        {
          "internalType": "uint256",
          "name": "itemId",
          "type": "uint256"
        }
      ],
      "name": "createMarketSale",
      "outputs": [
        {
          "internalType": "uint256",
          "name": "",
          "type": "uint256"
        }
      ],
      "stateMutability": "payable",
      "type": "function"
    },
    {
      "inputs": [
        {
          "internalType": "address",
          "name": "nftContractAddress",
          "type": "address"
        },
        {
          "internalType": "uint256",
          "name": "tokenId",
          "type": "uint256"
        }
      ],
      "name": "fetchMarketItem",
      "outputs": [
        {
          "components": [
            {
              "internalType": "uint256",
              "name": "itemId",
              "type": "uint256"
            },
            {
              "internalType": "address",
              "name": "nftContract",
              "type": "address"
            },
            {
              "internalType": "uint256",
              "name": "tokenId",
              "type": "uint256"
            },
            {
              "internalType": "address payable",
              "name": "seller",
              "type": "address"
            },
            {
              "internalType": "address payable",
              "name": "owner",
              "type": "address"
            },
            {
              "internalType": "uint256",
              "name": "price",
              "type": "uint256"
            },
            {
              "internalType": "string",
              "name": "currency",
              "type": "string"
            },
            {
              "internalType": "uint256",
              "name": "listingPrice",
              "type": "uint256"
            },
            {
              "internalType": "bool",
              "name": "cancelled",
              "type": "bool"
            }
          ],
          "internalType": "struct Marketplace.MarketItem",
          "name": "",
          "type": "tuple"
        }
      ],
      "stateMutability": "view",
      "type": "function"
    },
    {
      "inputs": [],
      "name": "fetchMarketItems",
      "outputs": [
        {
          "components": [
            {
              "internalType": "uint256",
              "name": "itemId",
              "type": "uint256"
            },
            {
              "internalType": "address",
              "name": "nftContract",
              "type": "address"
            },
            {
              "internalType": "uint256",
              "name": "tokenId",
              "type": "uint256"
            },
            {
              "internalType": "address payable",
              "name": "seller",
              "type": "address"
            },
            {
              "internalType": "address payable",
              "name": "owner",
              "type": "address"
            },
            {
              "internalType": "uint256",
              "name": "price",
              "type": "uint256"
            },
            {
              "internalType": "string",
              "name": "currency",
              "type": "string"
            },
            {
              "internalType": "uint256",
              "name": "listingPrice",
              "type": "uint256"
            },
            {
              "internalType": "bool",
              "name": "cancelled",
              "type": "bool"
            }
          ],
          "internalType": "struct Marketplace.MarketItem[]",
          "name": "",
          "type": "tuple[]"
        }
      ],
      "stateMutability": "view",
      "type": "function"
    },
    {
      "inputs": [],
      "name": "fetchMyNFTs",
      "outputs": [
        {
          "components": [
            {
              "internalType": "uint256",
              "name": "itemId",
              "type": "uint256"
            },
            {
              "internalType": "address",
              "name": "nftContract",
              "type": "address"
            },
            {
              "internalType": "uint256",
              "name": "tokenId",
              "type": "uint256"
            },
            {
              "internalType": "address payable",
              "name": "seller",
              "type": "address"
            },
            {
              "internalType": "address payable",
              "name": "owner",
              "type": "address"
            },
            {
              "internalType": "uint256",
              "name": "price",
              "type": "uint256"
            },
            {
              "internalType": "string",
              "name": "currency",
              "type": "string"
            },
            {
              "internalType": "uint256",
              "name": "listingPrice",
              "type": "uint256"
            },
            {
              "internalType": "bool",
              "name": "cancelled",
              "type": "bool"
            }
          ],
          "internalType": "struct Marketplace.MarketItem[]",
          "name": "",
          "type": "tuple[]"
        }
      ],
      "stateMutability": "view",
      "type": "function"
    },
    {
      "inputs": [],
      "name": "getListingPrice",
      "outputs": [
        {
          "internalType": "uint256",
          "name": "",
          "type": "uint256"
        }
      ],
      "stateMutability": "view",
      "type": "function"
    },
    {
      "inputs": [
        {
          "internalType": "uint256",
          "name": "marketItemId",
          "type": "uint256"
        }
      ],
      "name": "getMarketItem",
      "outputs": [
        {
          "components": [
            {
              "internalType": "uint256",
              "name": "itemId",
              "type": "uint256"
            },
            {
              "internalType": "address",
              "name": "nftContract",
              "type": "address"
            },
            {
              "internalType": "uint256",
              "name": "tokenId",
              "type": "uint256"
            },
            {
              "internalType": "address payable",
              "name": "seller",
              "type": "address"
            },
            {
              "internalType": "address payable",
              "name": "owner",
              "type": "address"
            },
            {
              "internalType": "uint256",
              "name": "price",
              "type": "uint256"
            },
            {
              "internalType": "string",
              "name": "currency",
              "type": "string"
            },
            {
              "internalType": "uint256",
              "name": "listingPrice",
              "type": "uint256"
            },
            {
              "internalType": "bool",
              "name": "cancelled",
              "type": "bool"
            }
          ],
          "internalType": "struct Marketplace.MarketItem",
          "name": "",
          "type": "tuple"
        }
      ],
      "stateMutability": "view",
      "type": "function"
    },
    {
      "inputs": [],
      "name": "initialize",
      "outputs": [],
      "stateMutability": "nonpayable",
      "type": "function"
    },
    {
      "inputs": [],
      "name": "initializev2",
      "outputs": [],
      "stateMutability": "nonpayable",
      "type": "function"
    },
    {
      "inputs": [],
      "name": "owner",
      "outputs": [
        {
          "internalType": "address",
          "name": "",
          "type": "address"
        }
      ],
      "stateMutability": "view",
      "type": "function"
    },
    {
      "inputs": [],
      "name": "renounceOwnership",
      "outputs": [],
      "stateMutability": "nonpayable",
      "type": "function"
    },
    {
      "inputs": [
        {
          "internalType": "uint256",
          "name": "_listingPrice",
          "type": "uint256"
        }
      ],
      "name": "setListingPrice",
      "outputs": [],
      "stateMutability": "nonpayable",
      "type": "function"
    },
    {
      "inputs": [
        {
          "internalType": "address",
          "name": "newOwner",
          "type": "address"
        }
      ],
      "name": "transferOwnership",
      "outputs": [],
      "stateMutability": "nonpayable",
      "type": "function"
    },
    {
      "inputs": [
        {
          "internalType": "address",
          "name": "newImplementation",
          "type": "address"
        }
      ],
      "name": "upgradeTo",
      "outputs": [],
      "stateMutability": "nonpayable",
      "type": "function"
    },
    {
      "inputs": [
        {
          "internalType": "address",
          "name": "newImplementation",
          "type": "address"
        },
        {
          "internalType": "bytes",
          "name": "data",
          "type": "bytes"
        }
      ],
      "name": "upgradeToAndCall",
      "outputs": [],
      "stateMutability": "payable",
      "type": "function"
    },
    {
      "inputs": [],
      "name": "version",
      "outputs": [
        {
          "internalType": "string",
          "name": "",
          "type": "string"
        }
      ],
      "stateMutability": "pure",
      "type": "function"
    }
  ],
  "bytecode": "0x608060405234801561001057600080fd5b506129bc806100206000396000f3fe6080604052600436106101095760003560e01c80638129fc1c11610095578063be9af53611610064578063be9af536146102a7578063bed34bba146102ba578063c7be7a49146102ea578063ee45a7111461030a578063f2fde38b1461031d57610109565b80638129fc1c1461023557806386b2d2891461024a5780638da5cb5b1461025f578063a6e22b021461028757610109565b80633659cfe6116100dc5780633659cfe61461019a5780634f1ef286146101bc57806354fd4d50146101cf578063715018a6146102005780637c726b691461021557610109565b80630f08efe01461010e57806312e8558514610139578063202e3740146101585780632e41f5fa1461016d575b600080fd5b34801561011a57600080fd5b5061012361033d565b604051610130919061267f565b60405180910390f35b34801561014557600080fd5b5060fe545b604051908152602001610130565b34801561016457600080fd5b5061012361075b565b34801561017957600080fd5b5061018d61018836600461245d565b6109f8565b6040516101309190612856565b3480156101a657600080fd5b506101ba6101b53660046123c4565b610df7565b005b6101ba6101ca3660046123fc565b610e1e565b3480156101db57600080fd5b5060408051808201825260028152613b1960f11b6020820152905161013091906126df565b34801561020c57600080fd5b506101ba610e37565b34801561022157600080fd5b506101ba610230366004612540565b610e76565b34801561024157600080fd5b506101ba610ea5565b34801561025657600080fd5b506101ba610f54565b34801561026b57600080fd5b506033546040516001600160a01b039091168152602001610130565b34801561029357600080fd5b506101ba6102a2366004612540565b610f7e565b61014a6102b5366004612540565b611242565b3480156102c657600080fd5b506102da6102d53660046124e9565b61154b565b6040519015158152602001610130565b3480156102f657600080fd5b5061018d610305366004612540565b6115a4565b6101ba610318366004612488565b6116c8565b34801561032957600080fd5b506101ba6103383660046123c4565b611bb1565b6060600061034a60fb5490565b9050600061035760fc5490565b60fb546103649190612881565b90506000808267ffffffffffffffff81111561039057634e487b7160e01b600052604160045260246000fd5b6040519080825280602002602001820160405280156103c957816020015b6103b661222d565b8152602001906001900390816103ae5790505b50905060005b8481101561075257600060ff816103e7846001612869565b8152602081019190915260400160009081206001908101546001600160a01b031692508290636352211e9060ff908490610422908890612869565b8152602001908152602001600020600201546040518263ffffffff1660e01b815260040161045291815260200190565b60206040518083038186803b15801561046a57600080fd5b505afa15801561047e573d6000803e3d6000fd5b505050506040513d601f19601f820116820180604052508101906104a291906123e0565b905060006001600160a01b03831663081812fc60ff836104c3886001612869565b8152602001908152602001600020600201546040518263ffffffff1660e01b81526004016104f391815260200190565b60206040518083038186803b15801561050b57600080fd5b505afa15801561051f573d6000803e3d6000fd5b505050506040513d601f19601f8201168201806040525081019061054391906123e0565b9050600060ff81610555876001612869565b81526020810191909152604001600020600401546001600160a01b03161480156105ac575060ff6000610589866001612869565b81526020810191909152604001600020600301546001600160a01b038381169116145b80156105c057506001600160a01b03811630145b1561073c57600060ff816105d5876001612869565b8152602080820192909252604090810160009081205480825260ff8452908290208251610120810184528154815260018201546001600160a01b039081169582019590955260028201549381019390935260038101548416606084015260048101549093166080830152600583015460a0830152600683018054919450839160c084019190610663906128c8565b80601f016020809104026020016040519081016040528092919081815260200182805461068f906128c8565b80156106dc5780601f106106b1576101008083540402835291602001916106dc565b820191906000526020600020905b8154815290600101906020018083116106bf57829003601f168201915b50505091835250506007820154602082015260089091015460ff161515604090910152875188908a90811061072157634e487b7160e01b600052603260045260246000fd5b6020908102919091010152610737600189612869565b975050505b505050808061074a90612903565b9150506103cf565b50935050505090565b6060600061076860fb5490565b905060008060005b838110156107cb573360ff6000610788846001612869565b81526020810191909152604001600020600401546001600160a01b031614156107b9576107b6600184612869565b92505b806107c381612903565b915050610770565b5060008267ffffffffffffffff8111156107f557634e487b7160e01b600052604160045260246000fd5b60405190808252806020026020018201604052801561082e57816020015b61081b61222d565b8152602001906001900390816108135790505b50905060005b84811015610752573360ff600061084c846001612869565b81526020810191909152604001600020600401546001600160a01b031614156109e657600060ff8161087f846001612869565b8152602080820192909252604090810160009081205480825260ff8452908290208251610120810184528154815260018201546001600160a01b039081169582019590955260028201549381019390935260038101548416606084015260048101549093166080830152600583015460a0830152600683018054919450839160c08401919061090d906128c8565b80601f0160208091040260200160405190810160405280929190818152602001828054610939906128c8565b80156109865780601f1061095b57610100808354040283529160200191610986565b820191906000526020600020905b81548152906001019060200180831161096957829003601f168201915b50505091835250506007820154602082015260089091015460ff16151560409091015284518590879081106109cb57634e487b7160e01b600052603260045260246000fd5b60209081029190910101526109e1600186612869565b945050505b806109f081612903565b915050610834565b610a0061222d565b6000610a0b60fb5490565b9050610a1561222d565b60005b82811015610dee576001600160a01b03861660ff6000610a39846001612869565b81526020810191909152604001600020600101546001600160a01b0316148015610a8257508460ff6000610a6e846001612869565b815260200190815260200160002060020154145b8015610ab85750600060ff81610a99846001612869565b81526020810191909152604001600020600401546001600160a01b0316145b8015610ae7575060ff6000610ace836001612869565b815260208101919091526040016000206008015460ff16155b15610ddc57600060ff81610afc846001612869565b8152602081019190915260400160009081206001908101546001600160a01b031692508290636352211e9060ff908490610b37908890612869565b8152602001908152602001600020600201546040518263ffffffff1660e01b8152600401610b6791815260200190565b60206040518083038186803b158015610b7f57600080fd5b505afa158015610b93573d6000803e3d6000fd5b505050506040513d601f19601f82011682018060405250810190610bb791906123e0565b905060006001600160a01b03831663081812fc60ff83610bd8886001612869565b8152602001908152602001600020600201546040518263ffffffff1660e01b8152600401610c0891815260200190565b60206040518083038186803b158015610c2057600080fd5b505afa158015610c34573d6000803e3d6000fd5b505050506040513d601f19601f82011682018060405250810190610c5891906123e0565b905060ff6000610c69866001612869565b81526020810191909152604001600020600301546001600160a01b038381169116148015610c9f57506001600160a01b03811630145b15610dd85760ff6000610cb3866001612869565b815260208082019290925260409081016000208151610120810183528154815260018201546001600160a01b039081169482019490945260028201549281019290925260038101548316606083015260048101549092166080820152600582015460a082015260068201805491929160c084019190610d31906128c8565b80601f0160208091040260200160405190810160405280929190818152602001828054610d5d906128c8565b8015610daa5780601f10610d7f57610100808354040283529160200191610daa565b820191906000526020600020905b815481529060010190602001808311610d8d57829003601f168201915b50505091835250506007820154602082015260089091015460ff1615156040909101529450610dee92505050565b5050505b80610de681612903565b915050610a18565b50949350505050565b610e0081611c49565b610e1b81604051806020016040528060008152506000611c73565b50565b610e2782611c49565b610e3382826001611c73565b5050565b6033546001600160a01b03163314610e6a5760405162461bcd60e51b8152600401610e61906127ea565b60405180910390fd5b610e746000611dfb565b565b6033546001600160a01b03163314610ea05760405162461bcd60e51b8152600401610e61906127ea565b60fe55565b600054610100900460ff1680610ebe575060005460ff16155b610eda5760405162461bcd60e51b8152600401610e619061279c565b600054610100900460ff16158015610f05576000805460ff1961ff0019909116610100171660011790555b610f0d611e4d565b610f15611ed1565b60fd80546001600160a01b03191673768532c218f4f4e6e4960ceea7f5a7a947a1dd61179055600060fe558015610e1b576000805461ff001916905550565b6033546001600160a01b03163314610e745760405162461bcd60e51b8152600401610e61906127ea565b600260c9541415610fa15760405162461bcd60e51b8152600401610e619061281f565b600260c955600081815260ff602081905260409091206008015416156110095760405162461bcd60e51b815260206004820181905260248201527f4d61726b6574206974656d20697320616c72656164792063616e63656c6c65646044820152606401610e61565b600081815260ff6020526040808220600181015460029091015491516331a9108f60e11b815260048101929092526001600160a01b031691908290636352211e9060240160206040518083038186803b15801561106557600080fd5b505afa158015611079573d6000803e3d6000fd5b505050506040513d601f19601f8201168201806040525081019061109d91906123e0565b600084815260ff602052604080822060020154905163020604bf60e21b81526004810191909152919250906001600160a01b0384169063081812fc9060240160206040518083038186803b1580156110f457600080fd5b505afa158015611108573d6000803e3d6000fd5b505050506040513d601f19601f8201168201806040525081019061112c91906123e0565b600085815260ff60205260409020600301549091506001600160a01b03838116911614801561116357506001600160a01b03821633145b61117f5760405162461bcd60e51b8152600401610e619061275a565b6001600160a01b03811630146111a75760405162461bcd60e51b8152600401610e61906126f2565b600084815260ff6020526040902060088101805460ff19166001179055600701541561120c57600084815260ff6020526040808220600701549051339282156108fc02929190818181858888f1935050505015801561120a573d6000803e3d6000fd5b505b60405184907fb44d5981f3bd81a0185dad0967e03df817142f923e4b93a322e68f34ec23cba990600090a25050600160c9555050565b6000600260c95414156112675760405162461bcd60e51b8152600401610e619061281f565b600260c9819055600083815260ff6020526040902060058101549181015460069091018054611339919061129a906128c8565b80601f01602080910402602001604051908101604052809291908181526020018280546112c6906128c8565b80156113135780601f106112e857610100808354040283529160200191611313565b820191906000526020600020905b8154815290600101906020018083116112f657829003601f168201915b50505050506040518060400160405280600381526020016221272160e91b81525061154b565b156113ff578134146113b5576040805162461bcd60e51b81526020600482015260248101919091527f506c65617365207375626d6974207468652061736b696e67207072696365206960448201527f6e206f7264657220746f20636f6d706c657465207468652070757263686173656064820152608401610e61565b600084815260ff60205260408082206003015490516001600160a01b03909116913480156108fc02929091818181858888f193505050501580156113fd573d6000803e3d6000fd5b505b600084815260ff602052604090819020600181015460039091015491516323b872dd60e01b81526001600160a01b039283166004820152336024820152604481018490529116906323b872dd90606401600060405180830381600087803b15801561146957600080fd5b505af115801561147d573d6000803e3d6000fd5b505050600085815260ff6020526040902060040180546001600160a01b03191633179055506114b060fc80546001019055565b600084815260ff6020526040902060070154156115115760fd54600085815260ff60205260408082206007015490516001600160a01b039093169281156108fc0292818181858888f1935050505015801561150f573d6000803e3d6000fd5b505b60405184907f5edde87e7efe9511fd280717315e9a4c5f46a6a84becfc74084b59e48154084490600090a25050600160c955506002919050565b60008160405160200161155e919061262b565b6040516020818303038152906040528051906020012083604051602001611585919061262b565b6040516020818303038152906040528051906020012014905092915050565b6115ac61222d565b600082815260ff60209081526040918290208251610120810184528154815260018201546001600160a01b039081169382019390935260028201549381019390935260038101548216606084015260048101549091166080830152600581015460a083015260068101805460c084019190611626906128c8565b80601f0160208091040260200160405190810160405280929190818152602001828054611652906128c8565b801561169f5780601f106116745761010080835404028352916020019161169f565b820191906000526020600020905b81548152906001019060200180831161168257829003601f168201915b50505091835250506007820154602082015260089091015460ff16151560409091015292915050565b600260c95414156116eb5760405162461bcd60e51b8152600401610e619061281f565b600260c9556040516331a9108f60e11b81526004810184905284906000906001600160a01b03831690636352211e9060240160206040518083038186803b15801561173557600080fd5b505afa158015611749573d6000803e3d6000fd5b505050506040513d601f19601f8201168201806040525081019061176d91906123e0565b60405163020604bf60e21b8152600481018790529091506000906001600160a01b0384169063081812fc9060240160206040518083038186803b1580156117b357600080fd5b505afa1580156117c7573d6000803e3d6000fd5b505050506040513d601f19601f820116820180604052508101906117eb91906123e0565b9050611812846040518060400160405280600381526020016221272160e91b81525061154b565b8061183d575061183d846040518060400160405280600381526020016227aba760e91b81525061154b565b6118825760405162461bcd60e51b8152602060048201526016602482015275496e76616c69642070726963652063757272656e637960501b6044820152606401610e61565b6001600160a01b03821633146118aa5760405162461bcd60e51b8152600401610e619061275a565b6001600160a01b03811630146118d25760405162461bcd60e51b8152600401610e61906126f2565b600085116119225760405162461bcd60e51b815260206004820152601c60248201527f5072696365206d757374206265206174206c65617374203120776569000000006044820152606401610e61565b60fe54341461197f5760405162461bcd60e51b8152602060048201526024808201527f56616c7565206d75737420626520657175616c20746f206c697374696e6720706044820152637269636560e01b6064820152608401610e61565b600061198b88886109f8565b8051909150156119dd5760405162461bcd60e51b815260206004820152601a60248201527f4d61726b6574206974656d20616c7265616479206578697374730000000000006044820152606401610e61565b6119eb60fb80546001019055565b60006119f660fb5490565b90506040518061012001604052808281526020018a6001600160a01b03168152602001898152602001336001600160a01b0316815260200160006001600160a01b0316815260200188815260200187815260200160fe5481526020016000151581525060ff60008381526020019081526020016000206000820151816000015560208201518160010160006101000a8154816001600160a01b0302191690836001600160a01b031602179055506040820151816002015560608201518160030160006101000a8154816001600160a01b0302191690836001600160a01b0316021790555060808201518160040160006101000a8154816001600160a01b0302191690836001600160a01b0316021790555060a0820151816005015560c0820151816006019080519060200190611b2d929190612296565b5060e08201516007820155610100909101516008909101805460ff191691151591909117905560fe5460405189916001600160a01b038c169184917fe4eef4d323c643be00d3153991b0fe3d4b55b32261c49ad782e362ac53fd663b91611b999133918e918e91612647565b60405180910390a45050600160c95550505050505050565b6033546001600160a01b03163314611bdb5760405162461bcd60e51b8152600401610e61906127ea565b6001600160a01b038116611c405760405162461bcd60e51b815260206004820152602660248201527f4f776e61626c653a206e6577206f776e657220697320746865207a65726f206160448201526564647265737360d01b6064820152608401610e61565b610e1b81611dfb565b6033546001600160a01b03163314610e1b5760405162461bcd60e51b8152600401610e61906127ea565b6000611ca67f360894a13ba1a3210667c828492db98dca3e2076cc3735a920a3ca505d382bbc546001600160a01b031690565b9050611cb184611f41565b600083511180611cbe5750815b15611ccf57611ccd8484611fe6565b505b7f4910fdfa16fed3260ed0e7147f7cc6da11a60208b5b9406d12a635614ffd9143805460ff16611df457805460ff191660011781556040516001600160a01b0383166024820152611d4e90869060440160408051601f198184030181529190526020810180516001600160e01b0316631b2ce7f360e11b179052611fe6565b50805460ff191681557f360894a13ba1a3210667c828492db98dca3e2076cc3735a920a3ca505d382bbc546001600160a01b03838116911614611deb5760405162461bcd60e51b815260206004820152602f60248201527f45524331393637557067726164653a207570677261646520627265616b73206660448201526e75727468657220757067726164657360881b6064820152608401610e61565b611df4856120d1565b5050505050565b603380546001600160a01b038381166001600160a01b0319831681179093556040519116919082907f8be0079c531659141344cd1fd0a4f28419497f9722a3daafe3b4186f6b6457e090600090a35050565b600054610100900460ff1680611e66575060005460ff16155b611e825760405162461bcd60e51b8152600401610e619061279c565b600054610100900460ff16158015611ead576000805460ff1961ff0019909116610100171660011790555b611eb5612111565b611ebd612184565b8015610e1b576000805461ff001916905550565b600054610100900460ff1680611eea575060005460ff16155b611f065760405162461bcd60e51b8152600401610e619061279c565b600054610100900460ff16158015611f31576000805460ff1961ff0019909116610100171660011790555b611f39612111565b611ebd612111565b803b611fa55760405162461bcd60e51b815260206004820152602d60248201527f455243313936373a206e657720696d706c656d656e746174696f6e206973206e60448201526c1bdd08184818dbdb9d1c9858dd609a1b6064820152608401610e61565b7f360894a13ba1a3210667c828492db98dca3e2076cc3735a920a3ca505d382bbc80546001600160a01b0319166001600160a01b0392909216919091179055565b6060823b6120455760405162461bcd60e51b815260206004820152602660248201527f416464726573733a2064656c65676174652063616c6c20746f206e6f6e2d636f6044820152651b9d1c9858dd60d21b6064820152608401610e61565b600080846001600160a01b031684604051612060919061262b565b600060405180830381855af49150503d806000811461209b576040519150601f19603f3d011682016040523d82523d6000602084013e6120a0565b606091505b50915091506120c88282604051806060016040528060278152602001612960602791396121ed565b95945050505050565b6120da81611f41565b6040516001600160a01b038216907fbc7cd75a20ee27fd9adebab32041f755214dbc6bffa90cc0225b39da2e5c2d3b90600090a250565b600054610100900460ff168061212a575060005460ff16155b6121465760405162461bcd60e51b8152600401610e619061279c565b600054610100900460ff16158015611ebd576000805460ff1961ff0019909116610100171660011790558015610e1b576000805461ff001916905550565b600054610100900460ff168061219d575060005460ff16155b6121b95760405162461bcd60e51b8152600401610e619061279c565b600054610100900460ff161580156121e4576000805460ff1961ff0019909116610100171660011790555b611ebd33611dfb565b606083156121fc575081612226565b82511561220c5782518084602001fd5b8160405162461bcd60e51b8152600401610e6191906126df565b9392505050565b6040518061012001604052806000815260200160006001600160a01b031681526020016000815260200160006001600160a01b0316815260200160006001600160a01b031681526020016000815260200160608152602001600081526020016000151581525090565b8280546122a2906128c8565b90600052602060002090601f0160209004810192826122c4576000855561230a565b82601f106122dd57805160ff191683800117855561230a565b8280016001018555821561230a579182015b8281111561230a5782518255916020019190600101906122ef565b5061231692915061231a565b5090565b5b80821115612316576000815560010161231b565b600067ffffffffffffffff8084111561234a5761234a612934565b604051601f8501601f19908116603f0116810190828211818310171561237257612372612934565b8160405280935085815286868601111561238b57600080fd5b858560208301376000602087830101525050509392505050565b600082601f8301126123b5578081fd5b6122268383356020850161232f565b6000602082840312156123d5578081fd5b81356122268161294a565b6000602082840312156123f1578081fd5b81516122268161294a565b6000806040838503121561240e578081fd5b82356124198161294a565b9150602083013567ffffffffffffffff811115612434578182fd5b8301601f81018513612444578182fd5b6124538582356020840161232f565b9150509250929050565b6000806040838503121561246f578182fd5b823561247a8161294a565b946020939093013593505050565b6000806000806080858703121561249d578182fd5b84356124a88161294a565b93506020850135925060408501359150606085013567ffffffffffffffff8111156124d1578182fd5b6124dd878288016123a5565b91505092959194509250565b600080604083850312156124fb578182fd5b823567ffffffffffffffff80821115612512578384fd5b61251e868387016123a5565b93506020850135915080821115612533578283fd5b50612453858286016123a5565b600060208284031215612551578081fd5b5035919050565b60008151808452612570816020860160208601612898565b601f01601f19169290920160200192915050565b60006101208251845260018060a01b0360208401511660208501526040830151604085015260608301516125c360608601826001600160a01b03169052565b5060808301516125de60808601826001600160a01b03169052565b5060a083015160a085015260c08301518160c086015261260082860182612558565b91505060e083015160e0850152610100808401516126218287018215159052565b5090949350505050565b6000825161263d818460208701612898565b9190910192915050565b600060018060a01b03861682528460208301526080604083015261266e6080830185612558565b905082606083015295945050505050565b6000602080830181845280855180835260408601915060408482028701019250838701855b828110156126d257603f198886030184526126c0858351612584565b945092850192908501906001016126a4565b5092979650505050505050565b6000602082526122266020830184612558565b60208082526042908201527f596f75206d7573742067697665207065726d697373696f6e20666f722074686960408201527f73206d61726b6574706c61636520746f2061636365737320796f757220746f6b60608201526132b760f11b608082015260a00190565b60208082526022908201527f596f75206d75737420626520746865206f776e6572206f662074686520746f6b60408201526132b760f11b606082015260800190565b6020808252602e908201527f496e697469616c697a61626c653a20636f6e747261637420697320616c72656160408201526d191e481a5b9a5d1a585b1a5e995960921b606082015260800190565b6020808252818101527f4f776e61626c653a2063616c6c6572206973206e6f7420746865206f776e6572604082015260600190565b6020808252601f908201527f5265656e7472616e637947756172643a207265656e7472616e742063616c6c00604082015260600190565b6000602082526122266020830184612584565b6000821982111561287c5761287c61291e565b500190565b6000828210156128935761289361291e565b500390565b60005b838110156128b357818101518382015260200161289b565b838111156128c2576000848401525b50505050565b6002810460018216806128dc57607f821691505b602082108114156128fd57634e487b7160e01b600052602260045260246000fd5b50919050565b60006000198214156129175761291761291e565b5060010190565b634e487b7160e01b600052601160045260246000fd5b634e487b7160e01b600052604160045260246000fd5b6001600160a01b0381168114610e1b57600080fdfe416464726573733a206c6f772d6c6576656c2064656c65676174652063616c6c206661696c6564a2646970667358221220cdc2ffcbf70bcfd6a7af169affc2cf66f5feb1b54b8ac4dd52f28545cb9eb27e64736f6c63430008020033",
  "linkReferences": {},
  "deployedLinkReferences": {}
}