{
  "_format": "hh-sol-artifact-1",
  "contractName": "BNFT",
  "sourceName": "contracts/BNFT.sol",
  "abi": [
    {
      "inputs": [],
      "stateMutability": "nonpayable",
      "type": "constructor"
    },
    {
      "anonymous": false,
      "inputs": [
        {
          "indexed": true,
          "internalType": "address",
          "name": "owner",
          "type": "address"
        },
        {
          "indexed": true,
          "internalType": "address",
          "name": "approved",
          "type": "address"
        },
        {
          "indexed": true,
          "internalType": "uint256",
          "name": "tokenId",
          "type": "uint256"
        }
      ],
      "name": "Approval",
      "type": "event"
    },
    {
      "anonymous": false,
      "inputs": [
        {
          "indexed": true,
          "internalType": "address",
          "name": "owner",
          "type": "address"
        },
        {
          "indexed": true,
          "internalType": "address",
          "name": "operator",
          "type": "address"
        },
        {
          "indexed": false,
          "internalType": "bool",
          "name": "approved",
          "type": "bool"
        }
      ],
      "name": "ApprovalForAll",
      "type": "event"
    },
    {
      "anonymous": false,
      "inputs": [
        {
          "indexed": false,
          "internalType": "address",
          "name": "account",
          "type": "address"
        }
      ],
      "name": "Paused",
      "type": "event"
    },
    {
      "anonymous": false,
      "inputs": [
        {
          "indexed": true,
          "internalType": "address",
          "name": "from",
          "type": "address"
        },
        {
          "indexed": true,
          "internalType": "address",
          "name": "to",
          "type": "address"
        },
        {
          "indexed": true,
          "internalType": "uint256",
          "name": "tokenId",
          "type": "uint256"
        }
      ],
      "name": "Transfer",
      "type": "event"
    },
    {
      "anonymous": false,
      "inputs": [
        {
          "indexed": false,
          "internalType": "address",
          "name": "account",
          "type": "address"
        }
      ],
      "name": "Unpaused",
      "type": "event"
    },
    {
      "inputs": [],
      "name": "admin",
      "outputs": [
        {
          "internalType": "address",
          "name": "",
          "type": "address"
        }
      ],
      "stateMutability": "view",
      "type": "function"
    },
    {
      "inputs": [
        {
          "internalType": "address",
          "name": "to",
          "type": "address"
        },
        {
          "internalType": "uint256",
          "name": "tokenId",
          "type": "uint256"
        }
      ],
      "name": "approve",
      "outputs": [],
      "stateMutability": "nonpayable",
      "type": "function"
    },
    {
      "inputs": [
        {
          "internalType": "address",
          "name": "owner",
          "type": "address"
        }
      ],
      "name": "balanceOf",
      "outputs": [
        {
          "internalType": "uint256",
          "name": "",
          "type": "uint256"
        }
      ],
      "stateMutability": "view",
      "type": "function"
    },
    {
      "inputs": [
        {
          "internalType": "string",
          "name": "tokenURI",
          "type": "string"
        }
      ],
      "name": "createToken",
      "outputs": [
        {
          "internalType": "uint256",
          "name": "",
          "type": "uint256"
        }
      ],
      "stateMutability": "nonpayable",
      "type": "function"
    },
    {
      "inputs": [
        {
          "internalType": "uint256",
          "name": "tokenId",
          "type": "uint256"
        }
      ],
      "name": "getApproved",
      "outputs": [
        {
          "internalType": "address",
          "name": "",
          "type": "address"
        }
      ],
      "stateMutability": "view",
      "type": "function"
    },
    {
      "inputs": [
        {
          "internalType": "address",
          "name": "owner",
          "type": "address"
        },
        {
          "internalType": "address",
          "name": "operator",
          "type": "address"
        }
      ],
      "name": "isApprovedForAll",
      "outputs": [
        {
          "internalType": "bool",
          "name": "",
          "type": "bool"
        }
      ],
      "stateMutability": "view",
      "type": "function"
    },
    {
      "inputs": [],
      "name": "name",
      "outputs": [
        {
          "internalType": "string",
          "name": "",
          "type": "string"
        }
      ],
      "stateMutability": "view",
      "type": "function"
    },
    {
      "inputs": [
        {
          "internalType": "uint256",
          "name": "tokenId",
          "type": "uint256"
        }
      ],
      "name": "ownerOf",
      "outputs": [
        {
          "internalType": "address",
          "name": "",
          "type": "address"
        }
      ],
      "stateMutability": "view",
      "type": "function"
    },
    {
      "inputs": [],
      "name": "paused",
      "outputs": [
        {
          "internalType": "bool",
          "name": "",
          "type": "bool"
        }
      ],
      "stateMutability": "view",
      "type": "function"
    },
    {
      "inputs": [
        {
          "internalType": "address",
          "name": "from",
          "type": "address"
        },
        {
          "internalType": "address",
          "name": "to",
          "type": "address"
        },
        {
          "internalType": "uint256",
          "name": "tokenId",
          "type": "uint256"
        }
      ],
      "name": "safeTransferFrom",
      "outputs": [],
      "stateMutability": "nonpayable",
      "type": "function"
    },
    {
      "inputs": [
        {
          "internalType": "address",
          "name": "from",
          "type": "address"
        },
        {
          "internalType": "address",
          "name": "to",
          "type": "address"
        },
        {
          "internalType": "uint256",
          "name": "tokenId",
          "type": "uint256"
        },
        {
          "internalType": "bytes",
          "name": "_data",
          "type": "bytes"
        }
      ],
      "name": "safeTransferFrom",
      "outputs": [],
      "stateMutability": "nonpayable",
      "type": "function"
    },
    {
      "inputs": [
        {
          "internalType": "address",
          "name": "operator",
          "type": "address"
        },
        {
          "internalType": "bool",
          "name": "approved",
          "type": "bool"
        }
      ],
      "name": "setApprovalForAll",
      "outputs": [],
      "stateMutability": "nonpayable",
      "type": "function"
    },
    {
      "inputs": [],
      "name": "setPause",
      "outputs": [],
      "stateMutability": "nonpayable",
      "type": "function"
    },
    {
      "inputs": [
        {
          "internalType": "bytes4",
          "name": "interfaceId",
          "type": "bytes4"
        }
      ],
      "name": "supportsInterface",
      "outputs": [
        {
          "internalType": "bool",
          "name": "",
          "type": "bool"
        }
      ],
      "stateMutability": "view",
      "type": "function"
    },
    {
      "inputs": [],
      "name": "symbol",
      "outputs": [
        {
          "internalType": "string",
          "name": "",
          "type": "string"
        }
      ],
      "stateMutability": "view",
      "type": "function"
    },
    {
      "inputs": [
        {
          "internalType": "uint256",
          "name": "index",
          "type": "uint256"
        }
      ],
      "name": "tokenByIndex",
      "outputs": [
        {
          "internalType": "uint256",
          "name": "",
          "type": "uint256"
        }
      ],
      "stateMutability": "view",
      "type": "function"
    },
    {
      "inputs": [
        {
          "internalType": "address",
          "name": "owner",
          "type": "address"
        },
        {
          "internalType": "uint256",
          "name": "index",
          "type": "uint256"
        }
      ],
      "name": "tokenOfOwnerByIndex",
      "outputs": [
        {
          "internalType": "uint256",
          "name": "",
          "type": "uint256"
        }
      ],
      "stateMutability": "view",
      "type": "function"
    },
    {
      "inputs": [
        {
          "internalType": "uint256",
          "name": "tokenId",
          "type": "uint256"
        }
      ],
      "name": "tokenURI",
      "outputs": [
        {
          "internalType": "string",
          "name": "",
          "type": "string"
        }
      ],
      "stateMutability": "view",
      "type": "function"
    },
    {
      "inputs": [],
      "name": "totalSupply",
      "outputs": [
        {
          "internalType": "uint256",
          "name": "",
          "type": "uint256"
        }
      ],
      "stateMutability": "view",
      "type": "function"
    },
    {
      "inputs": [
        {
          "internalType": "address",
          "name": "from",
          "type": "address"
        },
        {
          "internalType": "address",
          "name": "to",
          "type": "address"
        },
        {
          "internalType": "uint256",
          "name": "tokenId",
          "type": "uint256"
        }
      ],
      "name": "transferFrom",
      "outputs": [],
      "stateMutability": "nonpayable",
      "type": "function"
    },
    {
      "inputs": [],
      "name": "unsetPause",
      "outputs": [],
      "stateMutability": "nonpayable",
      "type": "function"
    }
  ],
  "bytecode": "0x60a06040523480156200001157600080fd5b50604080518082018252600c81526b13d91bdb99d3585a185b5bdd60a21b6020808301918252835180850190945260038452624f444f60e81b908401527f768532c218f4f4e6e4960ceea7f5a7a947a1dd61000000000000000000000000608052815173768532c218f4f4e6e4960ceea7f5a7a947a1dd6193916200009a9160009190620000c5565b508051620000b0906001906020840190620000c5565b5050600b805460ff1916905550620001a89050565b828054620000d3906200016b565b90600052602060002090601f016020900481019282620000f7576000855562000142565b82601f106200011257805160ff191683800117855562000142565b8280016001018555821562000142579182015b828111156200014257825182559160200191906001019062000125565b506200015092915062000154565b5090565b5b8082111562000150576000815560010162000155565b6002810460018216806200018057607f821691505b60208210811415620001a257634e487b7160e01b600052602260045260246000fd5b50919050565b60805160601c61210f620001f160003960008181610521015281816106190152818161068801528181610944015281816109b901528181610ab50152610aed015261210f6000f3fe608060405234801561001057600080fd5b50600436106101375760003560e01c80634f842143116100b8578063a22cb4651161007c578063a22cb46514610261578063b88d4fde14610274578063c87b56dd14610287578063d431b1ac1461029a578063e985e9c5146102a2578063f851a440146102b557610137565b80634f842143146102235780635c975abb1461022b5780636352211e1461023357806370a082311461024657806395d89b411461025957610137565b806323b872dd116100ff57806323b872dd146101c45780632f745c59146101d757806342842e0e146101ea57806345576f94146101fd5780634f6ccce71461021057610137565b806301ffc9a71461013c57806306fdde0314610165578063081812fc1461017a578063095ea7b31461019a57806318160ddd146101af575b600080fd5b61014f61014a366004611855565b6102bd565b60405161015c9190611997565b60405180910390f35b61016d6102ea565b60405161015c91906119a2565b61018d6101883660046118d3565b61037c565b60405161015c9190611946565b6101ad6101a836600461182c565b6103c8565b005b6101b7610460565b60405161015c9190611f5b565b6101ad6101d236600461173e565b610466565b6101b76101e536600461182c565b6104a7565b6101ad6101f836600461173e565b6104f9565b6101b761020b36600461188d565b610514565b6101b761021e3660046118d3565b6105b3565b6101ad61060e565b61014f610660565b61018d6102413660046118d3565b610669565b6101b76102543660046116f2565b6106af565b61016d6106f3565b6101ad61026f3660046117f2565b610702565b6101ad610282366004611779565b6107d0565b61016d6102953660046118d3565b610818565b6101ad610939565b61014f6102b036600461170c565b610989565b61018d6109b7565b60006001600160e01b0319821663780e9d6360e01b14806102e257506102e2826109db565b90505b919050565b6060600080546102f990612017565b80601f016020809104026020016040519081016040528092919081815260200182805461032590612017565b80156103725780601f1061034757610100808354040283529160200191610372565b820191906000526020600020905b81548152906001019060200180831161035557829003601f168201915b5050505050905090565b600061038782610a1b565b6103ac5760405162461bcd60e51b81526004016103a390611d99565b60405180910390fd5b506000908152600460205260409020546001600160a01b031690565b60006103d382610669565b9050806001600160a01b0316836001600160a01b031614156104075760405162461bcd60e51b81526004016103a390611e7d565b806001600160a01b0316610419610a38565b6001600160a01b031614806104355750610435816102b0610a38565b6104515760405162461bcd60e51b81526004016103a390611c1e565b61045b8383610a3c565b505050565b60095490565b61046f81610aaa565b61048061047a610a38565b82610b15565b61049c5760405162461bcd60e51b81526004016103a390611ebe565b61045b838383610b92565b60006104b2836106af565b82106104d05760405162461bcd60e51b81526004016103a3906119e3565b506001600160a01b03919091166000908152600760209081526040808320938352929052205490565b61045b838383604051806020016040528060008152506107d0565b6000336001600160a01b037f0000000000000000000000000000000000000000000000000000000000000000161461055e5760405162461bcd60e51b81526004016103a390611bf3565b610568600c610cbf565b6000610574600c610cc8565b90506105803382610ccc565b6102e2818461058e84610dab565b60405160200161059f929190611917565b604051602081830303815290604052610ef1565b60006105bd610460565b82106105db5760405162461bcd60e51b81526004016103a390611f0f565b600982815481106105fc57634e487b7160e01b600052603260045260246000fd5b90600052602060002001549050919050565b336001600160a01b037f000000000000000000000000000000000000000000000000000000000000000016146106565760405162461bcd60e51b81526004016103a390611bf3565b61065e610f35565b565b600b5460ff1690565b6000818152600260205260408120546001600160a01b0316806102e2577f00000000000000000000000000000000000000000000000000000000000000009150506102e5565b60006001600160a01b0382166106d75760405162461bcd60e51b81526004016103a390611c7b565b506001600160a01b031660009081526003602052604090205490565b6060600180546102f990612017565b61070a610a38565b6001600160a01b0316826001600160a01b0316141561073b5760405162461bcd60e51b81526004016103a390611b46565b8060056000610748610a38565b6001600160a01b03908116825260208083019390935260409182016000908120918716808252919093529120805460ff19169215159290921790915561078c610a38565b6001600160a01b03167f17307eab39ab6107e8899845ad3d59bd9653f200f220920489ca2b5937696c31836040516107c49190611997565b60405180910390a35050565b6107d982610aaa565b6107ea6107e4610a38565b83610b15565b6108065760405162461bcd60e51b81526004016103a390611ebe565b61081284848484610fa3565b50505050565b606061082382610a1b565b61083f5760405162461bcd60e51b81526004016103a390611d48565b6000828152600660205260408120805461085890612017565b80601f016020809104026020016040519081016040528092919081815260200182805461088490612017565b80156108d15780601f106108a6576101008083540402835291602001916108d1565b820191906000526020600020905b8154815290600101906020018083116108b457829003601f168201915b5050505050905060006108e2610fd6565b90508051600014156108f6575090506102e5565b815115610928578082604051602001610910929190611917565b604051602081830303815290604052925050506102e5565b61093184610fe8565b949350505050565b336001600160a01b037f000000000000000000000000000000000000000000000000000000000000000016146109815760405162461bcd60e51b81526004016103a390611bf3565b61065e61106b565b6001600160a01b03918216600090815260056020908152604080832093909416825291909152205460ff1690565b7f000000000000000000000000000000000000000000000000000000000000000090565b60006001600160e01b031982166380ac58cd60e01b1480610a0c57506001600160e01b03198216635b5e139f60e01b145b806102e257506102e2826110c6565b6000908152600260205260409020546001600160a01b0316151590565b3390565b600081815260046020526040902080546001600160a01b0319166001600160a01b0384169081179091558190610a7182610669565b6001600160a01b03167f8c5be1e5ebec7d5bd14f71427d1e84f3dd0314c0f7b2291e5b200ac8c7c3b92560405160405180910390a45050565b336001600160a01b037f0000000000000000000000000000000000000000000000000000000000000000161415610b1257610ae481610a1b565b610b1257610b127f000000000000000000000000000000000000000000000000000000000000000082610ccc565b50565b6000610b2082610a1b565b610b3c5760405162461bcd60e51b81526004016103a390611b7d565b6000610b4783610669565b9050806001600160a01b0316846001600160a01b03161480610b825750836001600160a01b0316610b778461037c565b6001600160a01b0316145b8061093157506109318185610989565b826001600160a01b0316610ba582610669565b6001600160a01b031614610bcb5760405162461bcd60e51b81526004016103a390611de5565b6001600160a01b038216610bf15760405162461bcd60e51b81526004016103a390611b02565b610bfc8383836110df565b610c07600082610a3c565b6001600160a01b0383166000908152600360205260408120805460019290610c30908490611fd4565b90915550506001600160a01b0382166000908152600360205260408120805460019290610c5e908490611f64565b909155505060008181526002602052604080822080546001600160a01b0319166001600160a01b0386811691821790925591518493918716917fddf252ad1be2c89b69c2b068fc378daa952ba7f163c4a11628f55a4df523b3ef91a4505050565b80546001019055565b5490565b6001600160a01b038216610cf25760405162461bcd60e51b81526004016103a390611d13565b610cfb81610a1b565b15610d185760405162461bcd60e51b81526004016103a390611a80565b610d24600083836110df565b6001600160a01b0382166000908152600360205260408120805460019290610d4d908490611f64565b909155505060008181526002602052604080822080546001600160a01b0319166001600160a01b03861690811790915590518392907fddf252ad1be2c89b69c2b068fc378daa952ba7f163c4a11628f55a4df523b3ef908290a45050565b606081610dd057506040805180820190915260018152600360fc1b60208201526102e5565b8160005b8115610dfa5780610de481612052565b9150610df39050600a83611fa1565b9150610dd4565b60008167ffffffffffffffff811115610e2357634e487b7160e01b600052604160045260246000fd5b6040519080825280601f01601f191660200182016040528015610e4d576020820181803683370190505b509050815b8515610ee857610e63600182611fd4565b90506000610e72600a88611fa1565b610e7d90600a611fb5565b610e879088611fd4565b610e92906030611f7c565b905060008160f81b905080848481518110610ebd57634e487b7160e01b600052603260045260246000fd5b60200101906001600160f81b031916908160001a905350610edf600a89611fa1565b97505050610e52565b50949350505050565b610efa82610a1b565b610f165760405162461bcd60e51b81526004016103a390611cc5565b6000828152600660209081526040909120825161045b928401906115d2565b610f3d610660565b610f595760405162461bcd60e51b81526004016103a3906119b5565b600b805460ff191690557f5db9ee0a495bf2e6ff9c91a7834c1ba4fdd244a5e8aa4e537bd38aeae4b073aa610f8c610a38565b604051610f999190611946565b60405180910390a1565b610fae848484610b92565b610fba8484848461110f565b6108125760405162461bcd60e51b81526004016103a390611a2e565b60408051602081019091526000815290565b6060610ff382610a1b565b61100f5760405162461bcd60e51b81526004016103a390611e2e565b6000611019610fd6565b905060008151116110395760405180602001604052806000815250611064565b806110438461122a565b604051602001611054929190611917565b6040516020818303038152906040525b9392505050565b611073610660565b156110905760405162461bcd60e51b81526004016103a390611bc9565b600b805460ff191660011790557f62e78cea01bee320cd4e420270b5ea74000d11b0c9f74754ebdbfc544b05a258610f8c610a38565b6001600160e01b031981166301ffc9a760e01b14919050565b6110ea838383611345565b6110f2610660565b1561045b5760405162461bcd60e51b81526004016103a390611ab7565b6000611123846001600160a01b03166113ce565b1561121f57836001600160a01b031663150b7a0261113f610a38565b8786866040518563ffffffff1660e01b8152600401611161949392919061195a565b602060405180830381600087803b15801561117b57600080fd5b505af19250505080156111ab575060408051601f3d908101601f191682019092526111a891810190611871565b60015b611205573d8080156111d9576040519150601f19603f3d011682016040523d82523d6000602084013e6111de565b606091505b5080516111fd5760405162461bcd60e51b81526004016103a390611a2e565b805181602001fd5b6001600160e01b031916630a85bd0160e11b149050610931565b506001949350505050565b60608161124f57506040805180820190915260018152600360fc1b60208201526102e5565b8160005b8115611279578061126381612052565b91506112729050600a83611fa1565b9150611253565b60008167ffffffffffffffff8111156112a257634e487b7160e01b600052604160045260246000fd5b6040519080825280601f01601f1916602001820160405280156112cc576020820181803683370190505b5090505b8415610931576112e1600183611fd4565b91506112ee600a8661206d565b6112f9906030611f64565b60f81b81838151811061131c57634e487b7160e01b600052603260045260246000fd5b60200101906001600160f81b031916908160001a90535061133e600a86611fa1565b94506112d0565b61135083838361045b565b6001600160a01b03831661136c57611367816113d4565b61138f565b816001600160a01b0316836001600160a01b03161461138f5761138f8382611418565b6001600160a01b0382166113ab576113a6816114b5565b61045b565b826001600160a01b0316826001600160a01b03161461045b5761045b828261158e565b3b151590565b600980546000838152600a60205260408120829055600182018355919091527f6e1540171b6c0c960b71a7020d9f60077f6af931a8bbf590da0223dacf75c7af0155565b60006001611425846106af565b61142f9190611fd4565b600083815260086020526040902054909150808214611482576001600160a01b03841660009081526007602090815260408083208584528252808320548484528184208190558352600890915290208190555b5060009182526008602090815260408084208490556001600160a01b039094168352600781528383209183525290812055565b6009546000906114c790600190611fd4565b6000838152600a6020526040812054600980549394509092849081106114fd57634e487b7160e01b600052603260045260246000fd5b90600052602060002001549050806009838154811061152c57634e487b7160e01b600052603260045260246000fd5b6000918252602080832090910192909255828152600a9091526040808220849055858252812055600980548061157257634e487b7160e01b600052603160045260246000fd5b6001900381819060005260206000200160009055905550505050565b6000611599836106af565b6001600160a01b039093166000908152600760209081526040808320868452825280832085905593825260089052919091209190915550565b8280546115de90612017565b90600052602060002090601f0160209004810192826116005760008555611646565b82601f1061161957805160ff1916838001178555611646565b82800160010185558215611646579182015b8281111561164657825182559160200191906001019061162b565b50611652929150611656565b5090565b5b808211156116525760008155600101611657565b600067ffffffffffffffff80841115611686576116866120ad565b604051601f8501601f1916810160200182811182821017156116aa576116aa6120ad565b6040528481529150818385018610156116c257600080fd5b8484602083013760006020868301015250509392505050565b80356001600160a01b03811681146102e557600080fd5b600060208284031215611703578081fd5b611064826116db565b6000806040838503121561171e578081fd5b611727836116db565b9150611735602084016116db565b90509250929050565b600080600060608486031215611752578081fd5b61175b846116db565b9250611769602085016116db565b9150604084013590509250925092565b6000806000806080858703121561178e578081fd5b611797856116db565b93506117a5602086016116db565b925060408501359150606085013567ffffffffffffffff8111156117c7578182fd5b8501601f810187136117d7578182fd5b6117e68782356020840161166b565b91505092959194509250565b60008060408385031215611804578182fd5b61180d836116db565b915060208301358015158114611821578182fd5b809150509250929050565b6000806040838503121561183e578182fd5b611847836116db565b946020939093013593505050565b600060208284031215611866578081fd5b8135611064816120c3565b600060208284031215611882578081fd5b8151611064816120c3565b60006020828403121561189e578081fd5b813567ffffffffffffffff8111156118b4578182fd5b8201601f810184136118c4578182fd5b6109318482356020840161166b565b6000602082840312156118e4578081fd5b5035919050565b60008151808452611903816020860160208601611feb565b601f01601f19169290920160200192915050565b60008351611929818460208801611feb565b83519083019061193d818360208801611feb565b01949350505050565b6001600160a01b0391909116815260200190565b6001600160a01b038581168252841660208201526040810183905260806060820181905260009061198d908301846118eb565b9695505050505050565b901515815260200190565b60006020825261106460208301846118eb565b60208082526014908201527314185d5cd8589b194e881b9bdd081c185d5cd95960621b604082015260600190565b6020808252602b908201527f455243373231456e756d657261626c653a206f776e657220696e646578206f7560408201526a74206f6620626f756e647360a81b606082015260800190565b60208082526032908201527f4552433732313a207472616e7366657220746f206e6f6e20455243373231526560408201527131b2b4bb32b91034b6b83632b6b2b73a32b960711b606082015260800190565b6020808252601c908201527f4552433732313a20746f6b656e20616c7265616479206d696e74656400000000604082015260600190565b6020808252602b908201527f4252433732315061757361626c653a20746f6b656e207472616e73666572207760408201526a1a1a5b19481c185d5cd95960aa1b606082015260800190565b60208082526024908201527f4552433732313a207472616e7366657220746f20746865207a65726f206164646040820152637265737360e01b606082015260800190565b60208082526019908201527f4552433732313a20617070726f766520746f2063616c6c657200000000000000604082015260600190565b6020808252602c908201527f4552433732313a206f70657261746f7220717565727920666f72206e6f6e657860408201526b34b9ba32b73a103a37b5b2b760a11b606082015260800190565b60208082526010908201526f14185d5cd8589b194e881c185d5cd95960821b604082015260600190565b6020808252601190820152703932b9ba3934b1ba103a379030b236b4b760791b604082015260600190565b60208082526038908201527f4552433732313a20617070726f76652063616c6c6572206973206e6f74206f7760408201527f6e6572206e6f7220617070726f76656420666f7220616c6c0000000000000000606082015260800190565b6020808252602a908201527f4552433732313a2062616c616e636520717565727920666f7220746865207a65604082015269726f206164647265737360b01b606082015260800190565b6020808252602e908201527f45524337323155524953746f726167653a2055524920736574206f66206e6f6e60408201526d32bc34b9ba32b73a103a37b5b2b760911b606082015260800190565b6020808252818101527f4552433732313a206d696e7420746f20746865207a65726f2061646472657373604082015260600190565b60208082526031908201527f45524337323155524953746f726167653a2055524920717565727920666f72206040820152703737b732bc34b9ba32b73a103a37b5b2b760791b606082015260800190565b6020808252602c908201527f4552433732313a20617070726f76656420717565727920666f72206e6f6e657860408201526b34b9ba32b73a103a37b5b2b760a11b606082015260800190565b60208082526029908201527f4552433732313a207472616e73666572206f6620746f6b656e2074686174206960408201526839903737ba1037bbb760b91b606082015260800190565b6020808252602f908201527f4552433732314d657461646174613a2055524920717565727920666f72206e6f60408201526e3732bc34b9ba32b73a103a37b5b2b760891b606082015260800190565b60208082526021908201527f4552433732313a20617070726f76616c20746f2063757272656e74206f776e656040820152603960f91b606082015260800190565b60208082526031908201527f4552433732313a207472616e736665722063616c6c6572206973206e6f74206f6040820152701ddb995c881b9bdc88185c1c1c9bdd9959607a1b606082015260800190565b6020808252602c908201527f455243373231456e756d657261626c653a20676c6f62616c20696e646578206f60408201526b7574206f6620626f756e647360a01b606082015260800190565b90815260200190565b60008219821115611f7757611f77612081565b500190565b600060ff821660ff84168060ff03821115611f9957611f99612081565b019392505050565b600082611fb057611fb0612097565b500490565b6000816000190483118215151615611fcf57611fcf612081565b500290565b600082821015611fe657611fe6612081565b500390565b60005b83811015612006578181015183820152602001611fee565b838111156108125750506000910152565b60028104600182168061202b57607f821691505b6020821081141561204c57634e487b7160e01b600052602260045260246000fd5b50919050565b600060001982141561206657612066612081565b5060010190565b60008261207c5761207c612097565b500690565b634e487b7160e01b600052601160045260246000fd5b634e487b7160e01b600052601260045260246000fd5b634e487b7160e01b600052604160045260246000fd5b6001600160e01b031981168114610b1257600080fdfea264697066735822122098c9ff6fa4cdcdf51549c92463bfa758cd6008c41fa3e148c370721c6a251a2064736f6c63430008000033",
  "linkReferences": {},
  "deployedLinkReferences": {}
}